:0400000029EF00F0F4
:060008005B82C8EF0FF05F
:100018005B80D8CF01F0E8CF02F0E0CF03F00E010B
:1000280033AB19EF00F01BEF00F021EF00F00B0EDF
:10003800D46EDB0ED36E7C88339B03C0E0FF02C016
:0E004800E8FF01C0D8FF5B901000ACEF0EF097
:100E000000253032642025303264202530326420C1
:100E10002530326420253034640025642E2530329C
:100E200064002530336400007CAE19EF07F01BEF3F
:100E300007F034EF07F0555009E10D0E545CD8A0CF
:100E400024EF07F026EF07F02DEF07F0010E056EF7
:100E50000468D6EC0AF033EF07F0000E056E000EC2
:100E6000046ED6EC0AF07C9E7CA839EF07F03BEFCD
:100E700007F03EEF07F0544A552A7C98555009E197
:100E8000180E545CD8A047EF07F049EF07F051EF78
:100E900007F0000E556E000E546E524A532A504A07
:100EA000512A515009E1080E505CD8A05AEF07F0C2
:100EB0005CEF07F060EF07F0000E516E010E506E10
:100EC0004EC009F04FC00AF04CC00BF04DC00CF002
:100ED00018EC08F05250095C53500A58D8B073EF20
:100EE00007F075EF07F07BEF07F0000E536E010E71
:100EF000526E4E4A4F2A4F5009E10D0E4E5CD8A05B
:100F000084EF07F086EF07F08CEF07F0000E4F6ECE
:100F1000010E4E6E4C4A4D2A54045510D8A493EF3E
:100F200007F095EF07F097EF07F0A0EC0CF0050E37
:100F300054185510D8A49FEF07F0A1EF07F0A6EFC3
:100F400007F0010E056E0468D6EC0AF0030E4E1889
:100F50004F10D8B4AEEF07F0B0EF07F0BAEF07F0DC
:100F60000A0E4E184F10D8A4B8EF07F0BAEF07F0EA
:100F7000DDEF07F0070E50185110D8A4C2EF07F0AC
:100F8000C4EF07F0DDEF07F0535009E1190E525C92
:100F9000D8A0CDEF07F0CFEF07F0DDEF07F04EC0A0
:100FA00004F04FC005F054C006F055C007F036EC11
:100FB0000DF004C054F005C055F0DEEC0FF004C095
:100FC00008F005C009F0000E0B6E3C0E0A6E98EC9E
:100FD0000FF008C00EF009C00FF0000E116E10687F
:100FE000B9EC0DF00EC058F00FC059F0020EEAEC4B
:100FF0000EF0820E326E010E336E58C034F059C0BE
:1010000035F054C036F055C037F052C038F053C0F8
:1010100039F04EC03AF04FC03BF04CC03CF04DC0F0
:101020003DF024EC0FF0820E076E58EC0FF012002A
:1010300009040A10D8B41FEF08F021EF08F05DEFA3
:1010400008F0030E09180A10D8B429EF08F02BEFA6
:1010500008F05DEF08F0050E09180A10D8B433EF58
:1010600008F035EF08F05DEF08F0070E09180A10D8
:10107000D8B43DEF08F03FEF08F05DEF08F0080E40
:1010800009180A10D8B447EF08F049EF08F05DEFEF
:1010900008F00A0E09180A10D8B451EF08F053EFFF
:1010A00008F05DEF08F00C0E09180A10D8A45BEFE9
:1010B00008F05DEF08F063EF08F0000E106E1F0EF1
:1010C0000F6EDAEF08F0040E09180A10D8B46BEFAF
:1010D00008F06DEF08F08BEF08F0060E09180A1003
:1010E000D8B475EF08F077EF08F08BEF08F0090E31
:1010F00009180A10D8B47FEF08F081EF08F08BEFE1
:1011000008F00B0E09180A10D8A489EF08F08BEF2D
:1011100008F091EF08F0000E106E1E0E0F6EDAEF61
:1011200008F0020E09180A10D8A499EF08F09BEFF6
:1011300008F0DAEF08F0030E0B140D6E000E0C141D
:101140000E6E0D500E10D8A4A8EF08F0AAEF08F00C
:10115000BDEF08F00BC004F00CC005F0000E076EE8
:10116000640E066E59EC0EF004500510D8A4BBEFC7
:1011700008F0BDEF08F0D0EF08F00BC004F00CC091
:1011800005F0010E076E900E066E59EC0EF004503D
:101190000510D8A4CEEF08F0D0EF08F0D6EF08F095
:1011A000000E106E1D0E0F6EDAEF08F0000E106EBE
:1011B0001C0E0F6E0FC009F010C00AF01200245070
:1011C000D96EDA6ADFCFF6FF0E0EF76E000EF86EFC
:1011D0000800F550250AD8A4F0EF08F0F2EF08F067
:1011E0008DEF09F02450D96EDA6ADF2A000E576EAF
:1011F000000E566E56C05AF0000160696169000E1B
:101200002C6E29EF09F05A822450D96EDA6ADF2A4F
:1012100029EF09F0010E2C6E29EF09F02450D96E48
:10122000DA6ADFCFF6FF0E0EF76E000EF86E0800DA
:10123000F550266E276A2750000AD8B422EF09F02D
:101240000AEF09F02650300AD8B403EF09F00AEF8C
:1012500009F02C50D8B42FEF09F031EF09F00EEF60
:1012600009F024C00EF025C00FF0F4EC0BF00EC016
:1012700056F00FC057F057BE42EF09F040EF09F0AB
:1012800047EF09F05A80566C571ED8B0572A2450A1
:10129000D96EDA6ADF502D6E2DC0F6FF0E0EF76E96
:1012A000000EF86E0800F550640AD8B45AEF09F041
:1012B0005CEF09F06CEF09F02DC0F6FF0E0EF76E33
:1012C000000EF86E0800F550690AD8A46AEF09F01C
:1012D0006CEF09F087EF09F02550D96EDA6A020E3B
:1012E000DF26DF5CD96EDA6ADECF28F0DECF29F0A8
:1012F0002450D96EDA6A2D28DF6E23C018F028C07A
:1013000019F029C01AF0A1EC09F0A0EF09F024505F
:10131000D96EDA6ADF2AA0EF09F02450D96EDA6AB2
:10132000DFCFF6FF0E0EF76E000EF86E0800F550D8
:10133000046E056A23C006F04BEC0CF087EF09F051
:101340001200010E1D6E1ABEA8EF09F0ABEF09F0F6
:10135000010EACEF09F0000E206E56C01EF057C013
:101360001FF02050D8B4B7EF09F0B9EF09F0D0EF73
:1013700009F01E06D8A01F062050D8A4C2EF09F01D
:10138000C4EF09F0CAEF09F0000E1C6E2B0E1B6EA5
:10139000CEEF09F0000E1C6E2D0E1B6E1BC020F050
:1013A000000E226E1F0E216E000E0001816F06EFEF
:1013B0000AF02106D8A022062150620FD96EDA6AFF
:1013C00019C004F01AC005F0000E076E0A0E066E72
:1013D0009CEC0BF004C00AF005C00BF03EEC0FF0E3
:1013E0000A50300FDF6E000E1D6E1E06D8A01F06BD
:1013F00019C004F01AC005F0000E076E0A0E066E42
:101400003AEC0BF004C019F005C01AF022BE11EF3F
:101410000AF0225008E12104D8A011EF0AF013EFDE
:101420000AF038EF0AF019501A10D8A41AEF0AF08F
:101430001CEF0AF0D9EF09F01D50D8A422EF0AF0F2
:1014400024EF0AF0D9EF09F01FBE2FEF0AF01F506A
:1014500008E11E04D8A02FEF0AF031EF0AF038EFB0
:101460000AF05AB236EF0AF038EF0AF0D9EF09F075
:101470002050D8B43EEF0AF040EF0AF049EF0AF0EE
:101480002106D8A022062150620FD96EDA6A20C048
:10149000DFFF18C011F02150620F126E1EC013F052
:1014A0001FC014F0F1EC0CF01200839C8394829620
:1014B0008294859685927B9C7B947A967A947D968D
:1014C0007D920D0E086E2D0E076ED80EE82EFED7FB
:1014D000072EFCD7082EFAD7030EF3EC0DF0680E9A
:1014E000076EE40EE82EFED7072EFCD700D0030EC1
:1014F000F3EC0DF0050E076E260EE82EFED7072E34
:10150000FCD700D0030EF3EC0DF0050E076E260E8F
:10151000E82EFED7072EFCD700D0020EF3EC0DF01C
:10152000050E076E260EE82EFED7072EFCD700D03C
:10153000000E056E2C0E6FEC0FF0E40E00D000D004
:10154000E82EFCD700D000D0000E056E080E6FEC20
:101550000FF0E40E00D000D0E82EFCD700D000D071
:10156000000E056E010E6FEC0FF0680E076EE40EB4
:10157000E82EFED7072EFCD700D0000E056E060E13
:101580006FEC0FF0E40E00D000D0E82EFCD700D0B6
:1015900000D0000E056E0C0E6FEC0FF0E40E00D0C4
:1015A00000D0E82EFCD700D000D0120004A0DBEF62
:1015B0000AF0DDEF0AF0E0EF0AF07F80E1EF0AF0D9
:1015C0007F9004A2E6EF0AF0E8EF0AF0EBEF0AF0F2
:1015D0007F82ECEF0AF07F9204A4F1EF0AF0F3EFC0
:1015E0000AF0F6EF0AF07984F7EF0AF0799404A68E
:1015F000FCEF0AF0FEEF0AF001EF0BF07E8C02EF39
:101600000BF07E9C04A807EF0BF009EF0BF00CEF3A
:101610000BF079880DEF0BF0799804AA12EF0BF01C
:1016200014EF0BF017EF0BF0798A18EF0BF0799AA3
:1016300004AC1DEF0BF01FEF0BF022EF0BF07E80E0
:1016400023EF0BF07E9004AE28EF0BF02AEF0BF0A7
:101650002DEF0BF07A802EEF0BF07A9005A033EF90
:101660000BF035EF0BF038EF0BF07A8239EF0BF01F
:101670007A921200000E096E07BE43EF0BF041EFA5
:101680000BF049EF0BF0066C071ED8B0072A010ECD
:10169000096E05BE50EF0BF04EEF0BF056EF0BF05E
:1016A000046C051ED8B0052A010E091A000E0B6E37
:1016B000000E0A6E06500710D8B461EF0BF063EF0E
:1016C0000BF08BEF0BF0010E086E6BEF0BF0D89068
:1016D00006360736082A07AE70EF0BF072EF0BF0F4
:1016E00067EF0BF0D8900A360B360650045C0750B3
:1016F0000558D8A07EEF0BF080EF0BF085EF0BF0D4
:101700000650045E0750055A0A80D8900732063208
:10171000082E72EF0BF00950D8B491EF0BF093EF55
:101720000BF097EF0BF00A6C0B1ED8B00B2A0AC017
:1017300004F00BC005F01200000E096E05BEA5EF07
:101740000BF0A3EF0BF0ABEF0BF0046C051ED8B061
:10175000052A010E096E07BEB2EF0BF0B0EF0BF0D9
:10176000B6EF0BF0066C071ED8B0072A065007101C
:10177000D8B4BDEF0BF0BFEF0BF0E3EF0BF0010EB1
:10178000086EC7EF0BF0D89006360736082A07AE6A
:10179000CCEF0BF0CEEF0BF0C3EF0BF00650045C78
:1017A00007500558D8A0D7EF0BF0D9EF0BF0DDEFBD
:1017B0000BF00650045E0750055AD89007320632E7
:1017C000082ECEEF0BF00950D8B4E9EF0BF0EBEF99
:1017D0000BF0EFEF0BF0046C051ED8B0052A04C027
:1017E00004F005C005F01200000E126E000E116E1E
:1017F0000E50D96EDA6ADFCFF6FF0E0EF76E000ECE
:10180000F86E0800F5502A0AD8A409EF0CF00BEF87
:101810000CF031EF0CF00E50D96EDA6ADF2A0F505F
:10182000D96EDA6A020EDF26DF5CD96EDA6ADECFA5
:1018300011F0DECF12F046EF0CF011C008F012C02C
:1018400009F0000E0B6E0A0E0A6E98EC0FF01050A5
:101850000824116E000E0920126E0E50D96EDA6A3D
:10186000DF2A0E50D96EDA6ADFCFF6FF0E0EF76E62
:10187000000EF86E0800F550D00F106E090E1064BF
:1018800044EF0CF046EF0CF01DEF0CF011C00EF021
:1018900012C00FF012000650D8B451EF0CF053EF05
:1018A0000CF05BEF0CF00650D8A459EF0CF05BEF96
:1018B0000CF060EF0CF00450FCEC0FF09FEF0CF01C
:1018C0000650D96EDA6A0A0ED926DE50DE10D8B478
:1018D0006CEF0CF06EEF0CF087EF0CF00650D96E49
:1018E000DA6A0A0ED9260650E16EE26A030EE12694
:1018F000DE50E65CE650800A0B6EDE50800A0B5824
:10190000D8B085EF0CF087EF0CF09FEF0CF006508D
:10191000D96EDA6A030ED926DF50076E0650D96EEB
:10192000DA6ADF500724D96EDA6A04C0DFFF065096
:10193000D96EDA6A030ED926DE2A000EDD221200E5
:10194000000E0A6E000E096E52C004F053C005F07E
:10195000000E076E030E066E59EC0EF004500510D3
:10196000D8A4B5EF0CF0B7EF0CF0BBEF0CF0000E05
:101970000A6E490E096E52C004F053C005F0000E05
:10198000076E030E066E59EC0EF004040510D8A481
:10199000CCEF0CF0CEEF0CF0D2EF0CF0000E0A6E94
:1019A000920E096E52C004F053C005F0000E076E8F
:1019B000030E066E59EC0EF0020E04180510D8A4A2
:1019C000E4EF0CF0E6EF0CF0EAEF0CF0010E0A6E1B
:1019D000240E096E09C004F00AC005F0D6EC0AF026
:1019E00012005AA0F6EF0CF0F8EF0CF0FEEF0CF03E
:1019F00012C00CF011C00DF0CCEC0EF014BE05EFCF
:101A00000DF003EF0DF009EF0DF0000E146E000E57
:101A1000136E000E176E000E166E19EF0DF0000E0D
:101A2000056E200E046E11C006F04BEC0CF0164A49
:101A3000172A1350165C1750800A156E1450800A2E
:101A40001558D8A026EF0DF028EF0DF00FEF0DF090
:101A50005AB02DEF0DF02FEF0DF035EF0DF012C055
:101A60000CF011C00DF0CCEC0EF01200030E0418B7
:101A70000510D8A43EEF0DF040EF0DF055EF0DF03E
:101A800006040710D8A447EF0DF049EF0DF055EF0D
:101A90000DF080B64EEF0DF050EF0DF055EF0DF05C
:101AA000000E076E020E066E80860A0E04180510E0
:101AB000D8A45DEF0DF05FEF0DF075EF0DF0020EA5
:101AC00006180710D8A467EF0DF069EF0DF075EF59
:101AD0000DF080A66EEF0DF070EF0DF075EF0DF0CC
:101AE000000E076E010E066E809606C004F007C059
:101AF00005F01200608060B080EF0DF082EF0DF015
:101B00007BEF0DF064CF17F0186A1750FF08176EBF
:101B10001850D8A0E82A0008186EEE0E1724086E98
:101B2000FF0E1820096E000E0B6E0A6898EC0FF07D
:101B300008C00EF009C00FF0000E116E580E106EA6
:101B4000B9EC0DF00EC017F00FC018F01704020E1C
:101B50001858D8A0AEEF0DF0B0EF0DF0B4EF0DF0C7
:101B6000000E186E000E176E17C015F018C016F094
:101B70001200000E146E000E136E10501110D8B427
:101B8000C4EF0DF0C6EF0DF0EEEF0DF0010E126E8A
:101B9000CEEF0DF0D89010361136122A11AED3EFD9
:101BA0000DF0D5EF0DF0CAEF0DF0D89013361436C6
:101BB00010500E5C11500F58D8A0E1EF0DF0E3EF7C
:101BC0000DF0E8EF0DF010500E5E11500F5A13801B
:101BD000D89011321032122ED5EF0DF013C00EF046
:101BE00014C00FF01200046E04A0F9EF0DF0FBEF2B
:101BF0000DF0FEEF0DF07A86FFEF0DF07A9604A25D
:101C000004EF0EF006EF0EF009EF0EF07A840AEF03
:101C10000EF07A9404A40FEF0EF011EF0EF014EF13
:101C20000EF07D8615EF0EF07D9604A61AEF0EF0ED
:101C30001CEF0EF01FEF0EF07D8220EF0EF07D9274
:101C4000F0EC0FF0A00E00D0E82EFDD7120055ECFE
:101C50000AF085EC0FF0BBEC0FF0ABEC0FF007ECEB
:101C60000FF0E7EC0FF0809688967C9E849E7C981F
:101C70008498010EEAEC0EF08C0E326E220E336E5A
:101C80007AEC0DF015C034F016C035F024EC0FF0EE
:101C90008C0E076E58EC0FF014EC07F0D00E4B6E64
:101CA000CA0EE82EFED74B2EFCD739EF0EF029EFE7
:101CB00000F006500710D8B460EF0EF062EF0EF09F
:101CC00086EF0EF0010E086E6AEF0EF0D890063621
:101CD0000736082A07AE6FEF0EF071EF0EF066EFD1
:101CE0000EF00650045C07500558D8A07AEF0EF0AD
:101CF0007CEF0EF080EF0EF00650045E0750055AA0
:101D0000D89007320632082E71EF0EF004C004F0AE
:101D100005C005F012002FC031F097EF0EF02EC075
:101D200023F0310E246E30C025F0DFEC08F031C016
:101D3000F6FF0E0EF76E000EF86E0800F550000963
:101D4000D8A4A5EF0EF0A7EF0EF08FEF0EF0000E67
:101D50002F6E000E2E6E1200EE0EF66E1F0EF76E38
:101D6000000EF86E00EE4CF010EE0AF00900F5CF10
:101D7000EEFFE550E150FAE100EE60F02C0EEE6A65
:101D8000E806FDE15A6A596A586A576A566A5B90D2
:101D90005B92000127EF0EF0000E106E000E0F6E2A
:101DA000DBEF0EF00EC004F0056A0DC006F04BEC40
:101DB0000CF00F4A102A0C500F24D96EDA6ADF504B
:101DC0000E6E0E50D8A4E7EF0EF0E9EF0EF0D2EF52
:101DD0000EF01200076E0704D8A4F1EF0EF0F3EF37
:101DE0000EF0F8EF0EF0000E056E800E6FEC0FF0A7
:101DF000020E0718D8A4FFEF0EF001EF0FF006EF68
:101E00000FF0000E056EC00E6FEC0FF01200879001
:101E100087928194869C8198819A86908290829202
:101E20007F907F9279947E9C7998799A7E907A902F
:101E30007A920E01BC91BC939295B49D9299929B1B
:101E4000B4919A919A931200340E3E6E32C03FF0D4
:101E5000000E436E000E426E000E4A6E000E496E7A
:101E60003F0E2E6E33C02FF03E0E306E8BEC0EF018
:101E700032504224D96EDA6ADF6A12000BBE43EF99
:101E80000FF045EF0FF04BEF0FF00AC00AF00BC058
:101E90000BF057EF0FF00AC00CF00BC00DF00C1E4A
:101EA0000D1E0C4A0D2A0CC00AF00DC00BF01200DA
:101EB00063EF0FF0010E056E0750D96EDA6ADF503E
:101EC0006FEC0FF0072A0750D96EDA6ADF50D8A4FA
:101ED0006CEF0FF06EEF0FF05AEF0FF01200066E7E
:101EE00005B002D07B9C01D07B8C06380F0BF3EC45
:101EF0000DF0A00E00D0E82EFDD70650F3EC0DF04B
:101F0000A00E00D0E82EFDD71200868E0E01D25111
:101F1000F80B0309D26FD351F80B0509D36FD083A7
:101F2000D089D183D181D4EC0FF00E01D08F120073
:101F300008500A02F3CF0CF0F4CF0DF008500B025A
:101F4000F3500D2609500A02F3500D260CC008F07C
:101F50000DC009F01200D6501F0B4009D66ED6886E
:101F6000D650F00B0809D66ED5880B0ED46EDB0E5A
:101F7000D36ED58E120081860E0192870F0158997B
:101F8000FC0E5817030E5F6F60946088608E12001D
:101F90000E0135A1CEEF0FF0D0EF0FF0D2EF0FF022
:101FA0007C8E35915B921100F30E0E01C617C6911F
:101FB000C751E00B1B09C76FC68F1200D350D4CF97
:101FC00006F0076A06C004F007C005F012000E0113
:101FD000298B2B8121811F9BF28AF28EF28C1200B9
:101FE0007B841A0EE82EFED700D07B941200E807FF
:0A1FF000030006001E00100012009E
:020000040030CA
:02000000AAFF55
:020004009FFF5C
:00000001FF
