:0400000058EF00F0C5
:100008005A820E0135A10BEF00F00DEF00F021EF41
:1000180000F080A612EF00F016EF00F0016A012A46
:1000280017EF00F0016A01460146014680500118A9
:10003800F70B0118806E0E01359133AB26EF00F0F7
:1000480028EF00F056EF00F00B0ED46EDB0ED36EE7
:10005800010E5724576E000E5820586E180E571868
:100068005810D8A43AEF00F03CEF00F040EF00F051
:10007800000E586E000E576E57045810D8A447EF5C
:1000880000F049EF00F04AEF00F07C9E050E57188B
:100098005810D8A452EF00F054EF00F055EF00F0DC
:0C00A8007C8E339B5A92110069EF0DF022
:100E00000025642E2530326400002250D96EDA6A43
:100E1000DFCFF6FF0E0EF76E000EF86E0800F550ED
:100E2000250AD8A416EF07F018EF07F0B2EF07F085
:100E30002250D96EDA6ADF2A000E546E000E536E0D
:100E400053C059F055685668000E2A6E4EEF07F0F1
:100E500059822250D96EDA6ADF2A4EEF07F0010E6E
:100E60002A6E4EEF07F02250D96EDA6ADFCFF6FF16
:100E70000E0EF76E000EF86E0800F550246E256A0F
:100E80002550000AD8B447EF07F02FEF07F02450A1
:100E9000300AD8B428EF07F02FEF07F02A50D8B463
:100EA00054EF07F056EF07F033EF07F022C008F0D9
:100EB00023C009F076EC0AF008C053F009C054F0E2
:100EC00054BE67EF07F065EF07F06CEF07F059804D
:100ED000536C541ED8B0542A2250D96EDA6ADF50AF
:100EE0002B6E2BC0F6FF0E0EF76E000EF86E08008C
:100EF000F550640AD8B47FEF07F081EF07F091EF67
:100F000007F02BC0F6FF0E0EF76E000EF86E08000D
:100F1000F550690AD8A48FEF07F091EF07F0ACEF16
:100F200007F02350D96EDA6A020EDF26DF5CD96E35
:100F3000DA6ADECF26F0DECF27F02250D96EDA6AE9
:100F40002B28DF6E21C016F026C017F027C018F03E
:100F5000C6EC07F0C5EF07F02250D96EDA6ADF2A37
:100F6000C5EF07F02250D96EDA6ADFCFF6FF0E0E1A
:100F7000F76E000EF86E0800F550026E036A21C08D
:100F800004F0C1EC09F0ACEF07F01200010E1B6E8B
:100F900018BECDEF07F0D0EF07F0010ED1EF07F04C
:100FA000000E1E6E53C01CF054C01DF01E50D8B46D
:100FB000DCEF07F0DEEF07F0F5EF07F01C06D8A036
:100FC0001D061E50D8A4E7EF07F0E9EF07F0EFEF9A
:100FD00007F0000E1A6E2B0E196EF3EF07F0000EDD
:100FE0001A6E2D0E196E19C01EF0000E206E1F0E07
:100FF0001F6E000E00017F6F2BEF08F01F06D8A0B8
:1010000020061F50600FD96EDA6A17C002F018C0B0
:1010100003F0000E056E0A0E046E1EEC0AF002C00C
:1010200008F003C009F0F9EC0CF00850300FDF6E47
:10103000000E1B6E1C06D8A01D0617C002F018C0BB
:1010400003F0000E056E0A0E046E5FEC09F002C09C
:1010500017F003C018F020BE36EF08F0205008E16A
:101060001F04D8A036EF08F038EF08F05DEF08F065
:1010700017501810D8A43FEF08F041EF08F0FEEF2A
:1010800007F01B50D8A447EF08F049EF08F0FEEF37
:1010900007F01DBE54EF08F01D5008E11C04D8A055
:1010A00054EF08F056EF08F05DEF08F059B25BEF2F
:1010B00008F05DEF08F0FEEF07F01E50D8B463EFC4
:1010C00008F065EF08F06EEF08F01F06D8A02006C4
:1010D0001F50600FD96EDA6A1EC0DFFF16C00FF016
:1010E0001F50600F106E1CC011F01DC012F070EC8C
:1010F0000BF01200839C839482968294859685924D
:101100007B9C7B947A967A947D967D920D0E066EEA
:101110002D0E056ED80EE82EFED7052EFCD7062E16
:10112000FAD7030E2EEC0CF0680E056EE40EE82ED6
:10113000FED7052EFCD700D0030E2EEC0CF0050ECA
:10114000056E260EE82EFED7052EFCD700D0030E26
:101150002EEC0CF0050E056E260EE82EFED7052EA1
:10116000FCD700D0020E2EEC0CF0050E056E260EFC
:10117000E82EFED7052EFCD700D0000E036E2C0EF5
:101180002DEC0DF0E40E00D000D0E82EFCD700D0FE
:1011900000D0000E036E080E2DEC0DF0E40E00D012
:1011A00000D0E82EFCD700D000D0000E036E010E58
:1011B0002DEC0DF0680E056EE40EE82EFED7052E20
:1011C000FCD700D0000E036E060E2DEC0DF0E40EE1
:1011D00000D000D0E82EFCD700D000D0000E036E67
:1011E0000C0E2DEC0DF0E40E00D000D0E82EFCD754
:1011F00000D000D0120006A000EF09F002EF09F0C5
:1012000005EF09F07F8006EF09F07F9006A20BEF53
:1012100009F00DEF09F010EF09F07F8211EF09F0EE
:101220007F9206A416EF09F018EF09F01BEF09F002
:1012300079841CEF09F0799406A621EF09F023EFD9
:1012400009F026EF09F07E8C27EF09F07E9C06A8B6
:101250002CEF09F02EEF09F031EF09F0798832EF29
:1012600009F0799806AA37EF09F039EF09F03CEF59
:1012700009F0798A3DEF09F0799A06AC42EF09F05E
:1012800044EF09F047EF09F07E8048EF09F07E90C7
:1012900006AE4DEF09F04FEF09F052EF09F07A80FA
:1012A00053EF09F07A9007A058EF09F05AEF09F0D0
:1012B0005DEF09F07A825EEF09F07A921200000E7B
:1012C000076E05BE68EF09F066EF09F06EEF09F0F2
:1012D000046C051ED8B0052A010E076E03BE75EF1B
:1012E00009F073EF09F07BEF09F0026C031ED8B030
:1012F000032A010E071A000E096E000E086E045034
:101300000510D8B486EF09F088EF09F0B0EF09F0C6
:10131000010E066E90EF09F0D89004360536062AC5
:1013200005AE95EF09F097EF09F08CEF09F0D89032
:10133000083609360450025C05500358D8A0A3EFC4
:1013400009F0A5EF09F0AAEF09F00450025E05507C
:10135000035A0880D89005320432062E97EF09F020
:101360000750D8B4B6EF09F0B8EF09F0BCEF09F0B8
:10137000086C091ED8B0092A08C002F009C003F0A1
:1013800012000450D8B4C7EF09F0C9EF09F0D1EF4B
:1013900009F00450D8A4CFEF09F0D1EF09F0D6EF4F
:1013A00009F00250B9EC0DF01DEF0AF00450D96EAF
:1013B000DA6A0A0ED926DE50DE10D8B4E2EF09F060
:1013C000E4EF09F0FDEF09F00450D96EDA6A0A0E75
:1013D000D9260450E16EE26A030EE126DE50E65C97
:1013E000E650800A096EDE50800A0958D8B0FBEF3B
:1013F00009F0FDEF09F01DEF0AF00450D96EDA6A2A
:10140000030ED926DECF05F0DDCF06F00450D96EED
:10141000DA6ADECF07F0DDCF08F005500724D96E79
:1014200006500820DA6E02C0DFFF0450D96EDA6A77
:10143000030ED926DE2A000EDD221200000E076EF2
:1014400003BE27EF0AF025EF0AF02DEF0AF0026C39
:10145000031ED8B0032A010E076E05BE34EF0AF052
:1014600032EF0AF038EF0AF0046C051ED8B0052AF6
:1014700004500510D8B43FEF0AF041EF0AF065EFD1
:101480000AF0010E066E49EF0AF0D89004360536D0
:10149000062A05AE4EEF0AF050EF0AF045EF0AF0CB
:1014A0000450025C05500358D8A059EF0AF05BEFD6
:1014B0000AF05FEF0AF00450025E0550035AD8901C
:1014C00005320432062E50EF0AF00750D8B46BEF05
:1014D0000AF06DEF0AF071EF0AF0026C031ED8B04B
:1014E000032A02C002F003C003F01200000E0C6ECB
:1014F000000E0B6E0850D96EDA6ADFCFF6FF0E0EC3
:10150000F76E000EF86E0800F5502A0AD8A48BEF8B
:101510000AF08DEF0AF0B3EF0AF00850D96EDA6ADC
:10152000DF2A0950D96EDA6A020EDF26DF5CD96E37
:10153000DA6ADECF0BF0DECF0CF0C8EF0AF00BC09A
:1015400002F00CC003F0000E056E0A0E046E56EC9D
:101550000DF00A5002240B6E000E03200C6E085092
:10156000D96EDA6ADF2A0850D96EDA6ADFCFF6FF61
:101570000E0EF76E000EF86E0800F550D00F0A6ED2
:10158000090E0A64C6EF0AF0C8EF0AF09FEF0AF0EE
:101590000BC008F00CC009F012007AEC08F043EC24
:1015A0000DF08AEC0DF07AEC0DF0BFEC0CF0AAEC2B
:1015B0000DF0000E506E000E4F6E809688967C9E49
:1015C000849E010EDCEC0CF0B5EC0BF00FC051F07A
:1015D00010C052F04F50511809E150505218D8B471
:1015E000F4EF0AF0F6EF0AF010EF0BF0000E036EC6
:1015F000010E2DEC0DF02A0E4E6E8E0EE82EFED74B
:101600004E2EFCD7640E446E000E456E51C046F05F
:1016100052C047F023EC0BF051C04FF052C050F0D5
:10162000D00E4E6ECA0EE82EFED74E2EFCD7A1EC81
:101630000DF002C006F003C007F0FBEC08F0E1EF8C
:101640000AF058EF00F046C008F047C009F0000E5D
:101650000B6E4D0E0A6EF4EC0BF008C04CF009C096
:101660004DF046C002F047C003F0000E056E640E58
:10167000046E56EC0DF002C008F003C009F0000E35
:101680000B6E4D0E0A6EF4EC0BF008C048F009C06A
:1016900049F04CC002F04DC003F0FF0E056E9C0EE9
:1016A000046E56EC0DF0025048244A6E0350492057
:1016B0004B6E44C030F045C031F0010E326E4CC06C
:1016C00033F04DC034F04AC035F04BC036F083ECF7
:1016D0000CF044C005F045C006F013EC0DF012000C
:1016E00059A075EF0BF077EF0BF07DEF0BF010C00A
:1016F0000AF00FC00BF0A1EC0CF012BE84EF0BF05F
:1017000082EF0BF088EF0BF0000E126E000E116EE0
:10171000000E156E000E146E98EF0BF0000E036EA7
:10172000200E026E0FC004F0C1EC09F0144A152A15
:101730001150145C1550800A136E1250800A135811
:10174000D8A0A5EF0BF0A7EF0BF08EEF0BF059B080
:10175000ACEF0BF0AEEF0BF0B4EF0BF010C00AF0F3
:101760000FC00BF0A1EC0CF01200608060B0BBEF7A
:101770000BF0BDEF0BF0B6EF0BF064CF11F0126A77
:101780001150FF08116E1250D8A0E82A0008126EFE
:10179000DF0E1124026EFF0E1220036E000E056E86
:1017A000046856EC0DF002C008F003C009F0000E0A
:1017B0000B6E760E0A6EF4EC0BF008C011F009C047
:1017C00012F01104020E1258D8A0E9EF0BF0EBEF63
:1017D0000BF0EFEF0BF0000E126E000E116E11C049
:1017E0000FF012C010F01200000E0D6E000E0C6E05
:1017F0000A500B10D8B4FFEF0BF001EF0CF029EFFB
:101800000CF0010E0E6E09EF0CF0D8900A360B3674
:101810000E2A0BAE0EEF0CF010EF0CF005EF0CF0F3
:10182000D8900C360D360A50085C0B500958D8A0D9
:101830001CEF0CF01EEF0CF023EF0CF00A50085ECA
:101840000B50095A0C80D8900B320A320E2E10EF32
:101850000CF00CC008F00DC009F01200026E02A0DE
:1018600034EF0CF036EF0CF039EF0CF07A863AEFEB
:101870000CF07A9602A23FEF0CF041EF0CF044EF2F
:101880000CF07A8445EF0CF07A9402A44AEF0CF045
:101890004CEF0CF04FEF0CF07D8650EF0CF07D9686
:1018A00002A655EF0CF057EF0CF05AEF0CF07D82CA
:1018B0005BEF0CF07D92B2EC0DF0A00E00D0E82EA4
:1018C000FDD712002DC02FF06EEF0CF02CC021F0D0
:1018D0002F0E226E2EC023F005EC07F02FC0F6FF6E
:1018E0000E0EF76E000EF86E0800F5500009D8A431
:1018F0007CEF0CF07EEF0CF066EF0CF0000E2D6E1E
:10190000000E2C6E1200330E376E30C038F031C02E
:1019100039F0000E3C6E000E3B6E000E436E000E62
:10192000426E380E2C6E32C02DF0370E2E6E62ECE9
:101930000CF03B503024D96E3C503120DA6EDF6A17
:101940001200000E0E6E000E0D6EB0EF0CF00CC00B
:1019500002F0036A0BC004F0C1EC09F00D4A0E2A34
:101960000A500D24D96EDA6ADF500C6E0C50D8A4E0
:10197000BCEF0CF0BEEF0CF0A7EF0CF0120087905C
:1019800087928194869C8198819A86908290829297
:101990007F907F9279947E9C7998799A7E907A90C4
:1019A0007A920E01BC91BC939295B49D9299929BB0
:1019B000B4919A919A931200056E0504D8A4E3EFAE
:1019C0000CF0E5EF0CF0EAEF0CF0000E036E800E69
:1019D0002DEC0DF0020E0518D8A4F1EF0CF0F3EF8A
:1019E0000CF0F8EF0CF0000E036EC00E2DEC0DF0B5
:1019F000120009BEFEEF0CF000EF0DF006EF0DF047
:101A000008C008F009C009F012EF0DF008C00AF094
:101A100009C00BF00A1E0B1E0A4A0B2A0AC008F066
:101A20000BC009F0120020EF0DF0010E036E05C08F
:101A3000D9FF06C0DAFFDF502DEC0DF0054A062A6B
:101A400005C0D9FF06C0DAFFDF50D8A42AEF0DF099
:101A50002CEF0DF015EF0DF01200046E03B002D064
:101A60007B9C01D07B8C04380F0B2EEC0CF0A00E6D
:101A700000D0E82EFDD704502EEC0CF0A00E00D0C4
:101A8000E82EFDD71200868E0E01D251F80B030905
:101A9000D26FD351F80B0509D36FD083D089D1838E
:101AA000D18197EC0DF00E01D08F1200025004028C
:101AB000F3CF06F0F4CF07F002500502F3500726EB
:101AC00003500402F350072606C002F007C003F0DB
:101AD000120000EE60F0200EEE6AE806FDE100EE76
:101AE00053F0070EEE6AE806FDE15A905A920001A3
:101AF000CDEF0AF0D6501F0B4009D66ED688D650CF
:101B0000F00B0809D66ED5880B0ED46EDB0ED36EA3
:101B1000D58E120081860E0192870F015899FC0E16
:101B20005817030E5F6F60946088608E1200F30E8A
:101B30000E01C617C691C751E00B1B09C76FC68FB0
:101B40001200D350D4CF04F0056A04C002F005C0DF
:101B500003F012000E01298B2B8121811F8BF28E45
:101B6000F28C12007B841A0EE82EFED700D07B94F4
:041B7000120012004D
:020000040030CA
:02000000AAFF55
:020004009FFF5C
:00000001FF
