:0400000029EF00F0F4
:060008005B823BEF0FF0EC
:100018005B80D8CF01F0E8CF02F0E0CF03F00E010B
:1000280033AB19EF00F01BEF00F021EF00F00B0EDF
:10003800D46EDB0ED36E8086339B03C0E0FF02C014
:0E004800E8FF01C0D8FF5B901000FDEF0DF047
:100E000000253032642025303264202530326420C1
:100E10002530326420253034640025642E2530329C
:100E2000640025303364000009040A10D8B41BEFB5
:100E300007F01DEF07F059EF07F0030E09180A102D
:100E4000D8B425EF07F027EF07F059EF07F0050EAC
:100E500009180A10D8B42FEF07F031EF07F059EF57
:100E600007F0070E09180A10D8B439EF07F03BEF66
:100E700007F059EF07F0080E09180A10D8B443EF2D
:100E800007F045EF07F059EF07F00A0E09180A10AE
:100E9000D8B44DEF07F04FEF07F059EF07F00C0E05
:100EA00009180A10D8A457EF07F059EF07F05FEFC1
:100EB00007F0000E106E1F0E0F6ED6EF07F0040E37
:100EC00009180A10D8B467EF07F069EF07F087EF49
:100ED00007F0060E09180A10D8B471EF07F073EF87
:100EE00007F087EF07F0090E09180A10D8B47BEF56
:100EF00007F07DEF07F087EF07F00B0E09180A10D7
:100F0000D8A485EF07F087EF07F08DEF07F0000E0C
:100F1000106E1E0E0F6ED6EF07F0020E09180A10A3
:100F2000D8A495EF07F097EF07F0D6EF07F0030E80
:100F30000B140D6E000E0C140E6E0D500E10D8A476
:100F4000A4EF07F0A6EF07F0B9EF07F00BC004F02D
:100F50000CC005F0000E076E640E066E9BEC0DF0E3
:100F600004500510D8A4B7EF07F0B9EF07F0CCEFA5
:100F700007F00BC004F00CC005F0010E076E900ED8
:100F8000066E9BEC0DF004500510D8A4CAEF07F0D4
:100F9000CCEF07F0D2EF07F0000E106E1D0E0F6EB3
:100FA000D6EF07F0000E106E1C0E0F6E0FC009F08A
:100FB00010C00AF012002450D96EDA6ADFCFF6FFB3
:100FC0000E0EF76E000EF86E0800F550250AD8A434
:100FD000ECEF07F0EEEF07F088EF08F02450D96E41
:100FE000DA6ADF2A000E4D6E000E4C6E4CC054F0D3
:100FF0004E684F68000E2C6E24EF08F05482245087
:10100000D96EDA6ADF2A24EF08F0010E2C6E24EF85
:1010100008F02450D96EDA6ADFCFF6FF0E0EF76EB5
:10102000000EF86E0800F550266E276A2750000A59
:10103000D8B41DEF08F005EF08F02650300AD8B4F8
:10104000FEEF07F005EF08F02C50D8B42AEF08F0B7
:101050002CEF08F009EF08F024C00EF025C00FF0C7
:10106000ABEC0BF00EC04CF00FC04DF04DBE3DEFA1
:1010700008F03BEF08F042EF08F054804C6C4D1E36
:10108000D8B04D2A2450D96EDA6ADF502D6E2DC0AB
:10109000F6FF0E0EF76E000EF86E0800F550640AAB
:1010A000D8B455EF08F057EF08F067EF08F02DC0FF
:1010B000F6FF0E0EF76E000EF86E0800F550690A86
:1010C000D8A465EF08F067EF08F082EF08F025502C
:1010D000D96EDA6A020EDF26DF5CD96EDA6ADECFFD
:1010E00028F0DECF29F02450D96EDA6A2D28DF6E81
:1010F00023C018F028C019F029C01AF058EC09F0E4
:101100009BEF08F02450D96EDA6ADF2A9BEF08F0D3
:101110002450D96EDA6ADFCFF6FF0E0EF76E000E9E
:10112000F86E0800F550046E056A23C006F002EC64
:101130000CF082EF08F012007CAEA1EF08F0A3EFF4
:1011400008F0BCEF08F0515009E10D0E505CD8A03A
:10115000ACEF08F0AEEF08F0B5EF08F0010E056E49
:1011600004688DEC0AF0BBEF08F0000E056E000E6F
:10117000046E8DEC0AF07C9E80A6C1EF08F0C3EFF0
:1011800008F0C6EF08F0504A512A8096515009E104
:10119000180E505CD8A0CFEF08F0D1EF08F0D7EFD1
:1011A00008F0000E516E000E506E594A5A2A57C070
:1011B00009F058C00AF055C00BF056C00CF014EC02
:1011C00007F05950095C5A500A58D8B0EAEF08F0B5
:1011D000ECEF08F0F2EF08F0000E5A6E010E596EB7
:1011E000574A582A585009E10D0E575CD8A0FBEF1A
:1011F00008F0FDEF08F003EF09F0000E586E010E45
:10120000576E554A562A50045110D8A40AEF09F0D7
:101210000CEF09F00EEF09F057EC0CF0050E50182A
:101220005110D8A416EF09F018EF09F01DEF09F0DE
:10123000010E056E04688DEC0AF051EC0FF004C04D
:1012400008F005C009F0000E0B6E3C0E0A6E0BECA8
:101250000FF008C00EF009C00FF0000E116E1068FC
:101260002DEC0DF00EC052F00FC053F0020E5DECED
:101270000EF0800E326E010E336E52C034F053C049
:1012800035F050C036F051C037F059C038F05AC070
:1012900039F057C03AF058C03BF055C03CF056C04A
:1012A0003DF097EC0EF0800E076ECBEC0EF01200C6
:1012B000010E1D6E1ABE5FEF09F062EF09F0010E1C
:1012C00063EF09F0000E206E4CC01EF04DC01FF001
:1012D0002050D8B46EEF09F070EF09F087EF09F0F5
:1012E0001E06D8A01F062050D8A479EF09F07BEF86
:1012F00009F081EF09F0000E1C6E2B0E1B6E85EFBE
:1013000009F0000E1C6E2D0E1B6E1BC020F0000E8F
:10131000226E1F0E216E000E00017F6FBDEF09F0DF
:101320002106D8A022062150600FD96EDA6A19C0B2
:1013300004F01AC005F0000E076E0A0E066E53EC9C
:101340000BF004C00AF005C00BF0B1EC0EF00A502F
:10135000300FDF6E000E1D6E1E06D8A01F0619C0CE
:1013600004F01AC005F0000E076E0A0E066EF1ECCE
:101370000AF004C019F005C01AF022BEC8EF09F047
:10138000225008E12104D8A0C8EF09F0CAEF09F003
:10139000EFEF09F019501A10D8A4D1EF09F0D3EFEC
:1013A00009F090EF09F01D50D8A4D9EF09F0DBEF58
:1013B00009F090EF09F01FBEE6EF09F01F5008E1B9
:1013C0001E04D8A0E6EF09F0E8EF09F0EFEF09F00E
:1013D00054B2EDEF09F0EFEF09F090EF09F0205073
:1013E000D8B4F5EF09F0F7EF09F000EF0AF02106A5
:1013F000D8A022062150600FD96EDA6A20C0DFFF24
:1014000018C011F02150600F126E1EC013F01FC0E3
:1014100014F0A8EC0CF01200839C839482968294C2
:10142000859685927B9C7B947A967A947D967D9224
:101430000D0E086E2D0E076ED80EE82EFED7072E65
:10144000FCD7082EFAD7030E67EC0DF0680E076E76
:10145000E40EE82EFED7072EFCD700D0030E67EC73
:101460000DF0050E076E260EE82EFED7072EFCD7D0
:1014700000D0030E67EC0DF0050E076E260EE82E69
:10148000FED7072EFCD700D0020E67EC0DF0050E3C
:10149000076E260EE82EFED7072EFCD700D0000ED2
:1014A000056E2C0EE2EC0EF0E40E00D000D0E82E1B
:1014B000FCD700D000D0000E056E080EE2EC0EF056
:1014C000E40E00D000D0E82EFCD700D000D0000EF3
:1014D000056E010EE2EC0EF0680E076EE40EE82ECB
:1014E000FED7072EFCD700D0000E056E060EE2ECEC
:1014F0000EF0E40E00D000D0E82EFCD700D000D0D3
:10150000000E056E0C0EE2EC0EF0E40E00D000D0E2
:10151000E82EFCD700D000D0120004A092EF0AF011
:1015200094EF0AF097EF0AF07F8098EF0AF07F902F
:1015300004A29DEF0AF09FEF0AF0A2EF0AF07F826B
:10154000A3EF0AF07F9204A4A8EF0AF0AAEF0AF032
:10155000ADEF0AF07984AEEF0AF0799404A6B3EF08
:101560000AF0B5EF0AF0B8EF0AF07E8CB9EF0AF096
:101570007E9C04A8BEEF0AF0C0EF0AF0C3EF0AF0A9
:101580007988C4EF0AF0799804AAC9EF0AF0CBEF82
:101590000AF0CEEF0AF0798ACFEF0AF0799A04AC1C
:1015A000D4EF0AF0D6EF0AF0D9EF0AF07E80DAEF36
:1015B0000AF07E9004AEDFEF0AF0E1EF0AF0E4EF0C
:1015C0000AF07A80E5EF0AF07A9005A0EAEF0AF0D7
:1015D000ECEF0AF0EFEF0AF07A82F0EF0AF07A927D
:1015E0001200000E096E07BEFAEF0AF0F8EF0AF0DB
:1015F00000EF0BF0066C071ED8B0072A010E096E2B
:1016000005BE07EF0BF005EF0BF00DEF0BF0046CD0
:10161000051ED8B0052A010E091A000E0B6E000E29
:101620000A6E06500710D8B418EF0BF01AEF0BF043
:1016300042EF0BF0010E086E22EF0BF0D890063649
:101640000736082A07AE27EF0BF029EF0BF01EEF45
:101650000BF0D8900A360B360650045C075005583C
:10166000D8A035EF0BF037EF0BF03CEF0BF0065046
:10167000045E0750055A0A80D89007320632082EB9
:1016800029EF0BF00950D8B448EF0BF04AEF0BF0FC
:101690004EEF0BF00A6C0B1ED8B00B2A0AC004F0F8
:1016A0000BC005F01200000E096E05BE5CEF0BF0DA
:1016B0005AEF0BF062EF0BF0046C051ED8B0052A50
:1016C000010E096E07BE69EF0BF067EF0BF06DEFCF
:1016D0000BF0066C071ED8B0072A06500710D8B4C6
:1016E00074EF0BF076EF0BF09AEF0BF0010E086E33
:1016F0007EEF0BF0D89006360736082A07AE83EF48
:101700000BF085EF0BF07AEF0BF00650045C0750FE
:101710000558D8A08EEF0BF090EF0BF094EF0BF084
:101720000650045E0750055AD89007320632082E3C
:1017300085EF0BF00950D8B4A0EF0BF0A2EF0BF03F
:10174000A6EF0BF0046C051ED8B0052A04C004F007
:1017500005C005F01200000E126E000E116E0E5044
:10176000D96EDA6ADFCFF6FF0E0EF76E000EF86E56
:101770000800F5502A0AD8A4C0EF0BF0C2EF0BF016
:10178000E8EF0BF00E50D96EDA6ADF2A0F50D96EEF
:10179000DA6A020EDF26DF5CD96EDA6ADECF11F07C
:1017A000DECF12F0FDEF0BF011C008F012C009F00F
:1017B000000E0B6E0A0E0A6E0BEC0FF01050082490
:1017C000116E000E0920126E0E50D96EDA6ADF2AF1
:1017D0000E50D96EDA6ADFCFF6FF0E0EF76E000EEE
:1017E000F86E0800F550D00F106E090E1064FBEF74
:1017F0000BF0FDEF0BF0D4EF0BF011C00EF012C0A8
:101800000FF012000650D8B408EF0CF00AEF0CF0FD
:1018100012EF0CF00650D8A410EF0CF012EF0CF001
:1018200017EF0CF004506DEC0FF056EF0CF0065073
:10183000D96EDA6A0A0ED926DE50DE10D8B423EF4C
:101840000CF025EF0CF03EEF0CF00650D96EDA6A82
:101850000A0ED9260650E16EE26A030EE126DE503A
:10186000E65CE650800A0B6EDE50800A0B58D8B05A
:101870003CEF0CF03EEF0CF056EF0CF00650D96E3A
:10188000DA6A030ED926DF50076E0650D96EDA6A7F
:10189000DF500724D96EDA6A04C0DFFF0650D96E24
:1018A000DA6A030ED926DE2A000EDD221200000EAF
:1018B0000A6E000E096E59C004F05AC005F0000E01
:1018C000076E030E066E9BEC0DF004500510D8A4B5
:1018D0006CEF0CF06EEF0CF072EF0CF0000E0A6E75
:1018E000490E096E59C004F05AC005F0000E076E8B
:1018F000030E066E9BEC0DF004040510D8A483EFD4
:101900000CF085EF0CF089EF0CF0000E0A6E920ED1
:10191000096E59C004F05AC005F0000E076E030EA0
:10192000066E9BEC0DF0020E04180510D8A49BEF78
:101930000CF09DEF0CF0A1EF0CF0010E0A6E240EDE
:10194000096E09C004F00AC005F08DEC0AF012001F
:1019500054A0ADEF0CF0AFEF0CF0B5EF0CF012C0EF
:101960000CF011C00DF03FEC0EF014BEBCEF0CF00B
:10197000BAEF0CF0C0EF0CF0000E146E000E136EF8
:10198000000E176E000E166ED0EF0CF0000E056EF6
:10199000200E046E11C006F002EC0CF0164A172A55
:1019A0001350165C1750800A156E1450800A155893
:1019B000D8A0DDEF0CF0DFEF0CF0C6EF0CF054B068
:1019C000E4EF0CF0E6EF0CF0ECEF0CF012C00CF0D2
:1019D00011C00DF03FEC0EF01200608060B0F3EF2C
:1019E0000CF0F5EF0CF0EEEF0CF064CF17F0186A86
:1019F0001750FF08176E1850D8A0E82A0008186E74
:101A0000DB0E1724086EFF0E1820096E000E0B6EF9
:101A10003C0E0A6E0BEC0FF008C00EF009C00FF080
:101A2000000E116E740E106E2DEC0DF00EC017F03E
:101A30000FC018F01704020E1858D8A022EF0DF0AE
:101A400024EF0DF028EF0DF0000E186E000E176E4B
:101A500017C015F018C016F01200000E146E000E1C
:101A6000136E10501110D8B438EF0DF03AEF0DF09E
:101A700062EF0DF0010E126E42EF0DF0D8901036AD
:101A80001136122A11AE47EF0DF049EF0DF03EEF7F
:101A90000DF0D8901336143610500E5C11500F58BC
:101AA000D8A055EF0DF057EF0DF05CEF0DF0105092
:101AB0000E5E11500F5A1380D89011321032122E30
:101AC00049EF0DF013C00EF014C00FF01200046EB9
:101AD00004A06DEF0DF06FEF0DF072EF0DF07A8650
:101AE00073EF0DF07A9604A278EF0DF07AEF0DF017
:101AF0007DEF0DF07A847EEF0DF07A9404A483EFED
:101B00000DF085EF0DF088EF0DF07D8689EF0DF07B
:101B10007D9604A68EEF0DF090EF0DF093EF0DF093
:101B20007D8294EF0DF07D9263EC0FF0A00E00D05B
:101B3000E82EFDD7120006500710D8B4A2EF0DF022
:101B4000A4EF0DF0C8EF0DF0010E086EACEF0DF034
:101B5000D89006360736082A07AEB1EF0DF0B3EF7E
:101B60000DF0A8EF0DF00650045C07500558D8A002
:101B7000BCEF0DF0BEEF0DF0C2EF0DF00650045EAD
:101B80000750055AD89007320632082EB3EF0DF0F1
:101B900004C004F005C005F012000CEC0AF0F8ECEB
:101BA0000EF02EEC0FF01EEC0FF07AEC0EF05AEC6B
:101BB0000FF0809688967C9E849E010E5DEC0EF060
:101BC0008A0E326E220E336EEDEC0CF015C034F03E
:101BD00016C035F097EC0EF08A0E076ECBEC0EF0C7
:101BE0009CEC08F0D00E4B6ECA0EE82EFED74B2EA2
:101BF000FCD7DDEF0DF029EF00F0D40EF66E1E0ECF
:101C0000F76E000EF86E00EE55F010EE06F00900CB
:101C1000F5CFEEFFE550E150FAE100EE60F02A0E5C
:101C2000EE6AE806FDE100EE4CF0090EEE6AE80609
:101C3000FDE15B905B920001CDEF0DF02FC031F024
:101C40002AEF0EF02EC023F0310E246E30C025F0A6
:101C5000DBEC07F031C0F6FF0E0EF76E000EF86EEB
:101C60000800F5500009D8A438EF0EF03AEF0EF056
:101C700022EF0EF0000E2F6E000E2E6E1200000EE0
:101C8000106E000E0F6E4EEF0EF00EC004F0056ADF
:101C90000DC006F002EC0CF00F4A102A0C500F2475
:101CA000D96EDA6ADF500E6E0E50D8A45AEF0EF0DD
:101CB0005CEF0EF045EF0EF01200076E0704D8A49B
:101CC00064EF0EF066EF0EF06BEF0EF0000E056E97
:101CD000800EE2EC0EF0020E0718D8A472EF0EF0A0
:101CE00074EF0EF079EF0EF0000E056EC00EE2EC10
:101CF0000EF01200879087928194869C8198819A39
:101D00008690829082927F907F9279947E9C79983F
:101D1000799A7E907A907A920E01BC91BC939295BA
:101D2000B49D9299929BB4919A919A931200340E19
:101D30003E6E32C03FF0000E436E000E426E000E4B
:101D40004A6E000E496E3F0E2E6E33C02FF03E0ECF
:101D5000306E1EEC0EF032504224D96EDA6ADF6A21
:101D600012000BBEB6EF0EF0B8EF0EF0BEEF0EF0A5
:101D70000AC00AF00BC00BF0CAEF0EF00AC00CF05C
:101D80000BC00DF00C1E0D1E0C4A0D2A0CC00AF0E3
:101D90000DC00BF01200D6EF0EF0010E056E0750CD
:101DA000D96EDA6ADF50E2EC0EF0072A0750D96EDE
:101DB000DA6ADF50D8A4DFEF0EF0E1EF0EF0CDEFDE
:101DC0000EF01200066E05B002D07B9C01D07B8C19
:101DD00006380F0B67EC0DF0A00E00D0E82EFDD7F3
:101DE000065067EC0DF0A00E00D0E82EFDD71200D3
:101DF000868E0E01D251F80B0309D26FD351F80B26
:101E00000509D36FD083D089D183D18147EC0FF0FE
:101E10000E01D08F120008500A02F3CF0CF0F4CF5D
:101E20000DF008500B02F3500D2609500A02F35032
:101E30000D260CC008F00DC009F01200D6501F0B83
:101E40004009D66ED688D650F00B0809D66ED588D4
:101E50000B0ED46EDB0ED36ED58E120081860E0172
:101E600092870F015899FC0E5817030E5F6F60940C
:101E70006088608E12000E0135A141EF0FF043EF34
:101E80000FF045EF0FF07C8E35915B921100F30E51
:101E90000E01C617C691C751E00B1B09C76FC68F4D
:101EA0001200D350D4CF06F0076A06C004F007C072
:101EB00005F012000E01298B2B8121811F9BF28AD4
:101EC000F28EF28C12007B841A0EE82EFED700D020
:0C1ED0007B941200E80702001C001200C6
:020000040030CA
:02000000AAFF55
:020004009FFF5C
:00000001FF
