:0400000029EF00F0F4
:060008005B826AEF0EF0BE
:100018005B80D8CF01F0E8CF02F0E0CF03F00E010B
:1000280033AB19EF00F01BEF00F021EF00F00B0EDF
:10003800D46EDB0ED36E8086339B03C0E0FF02C014
:0E004800E8FF01C0D8FF5B9010003CEF0EF007
:100E000000253032642025303264202530326420C1
:100E10002530326420253034640025642E2530329C
:100E200064002530336400007CAE19EF07F01BEF3F
:100E300007F034EF07F0535009E10D0E525CD8A0D3
:100E400024EF07F026EF07F02DEF07F0010E056EF7
:100E50000468CDEC09F033EF07F0000E056E000ECC
:100E6000046ECDEC09F07C9E80A639EF07F03BEFD5
:100E700007F03EEF07F0524A532A8096535009E19B
:100E8000180E525CD8A047EF07F049EF07F053EF78
:100E900007F0000E536E000E526E010E5824586E6D
:100EA000000E5920596E595009E11E0E585CD8A009
:100EB0005CEF07F05EEF07F068EF07F0000E596E89
:100EC000010E586E010E5024506E000E5120516ECE
:100ED000515009E10D0E505CD8A071EF07F073EF8F
:100EE00007F07DEF07F0000E516E010E506E010EFF
:100EF0004E244E6E000E4F204F6E52045310D8A455
:100F000084EF07F086EF07F088EF07F097EC0BF01F
:100F1000050E52185310D8A490EF07F092EF07F087
:100F200097EF07F0010E056E0468CDEC09F080EC38
:100F30000EF004C056F005C057F056C004F057C07C
:100F400005F0000E076E3C0E066E29EC0EF004C094
:100F50000AF005C00BF0000E0D6E0C686CEC0CF086
:100F60000AC054F00BC055F0020E7BEC0DF0820E5F
:100F7000326E010E336E54C034F055C035F052C09D
:100F800036F053C037F058C038F059C039F050C06F
:100F90003AF051C03BF04EC03CF04FC03DF0B5ECD4
:100FA0000DF0820E076EE9EC0DF012002450D96EA0
:100FB000DA6ADFCFF6FF0E0EF76E000EF86E08004D
:100FC000F550250AD8A4E7EF07F0E9EF07F084EF22
:100FD00008F02450D96EDA6ADF2A000E4D6E000E3A
:100FE0004C6E4CC05AF0000160696169000E2C6EB5
:100FF00020EF08F05A822450D96EDA6ADF2A20EFF7
:1010000008F0010E2C6E20EF08F02450D96EDA6A39
:10101000DFCFF6FF0E0EF76E000EF86E0800F550EB
:10102000266E276A2750000AD8B419EF08F001EF9E
:1010300008F02650300AD8B4FAEF07F001EF08F0B4
:101040002C50D8B426EF08F028EF08F005EF08F090
:1010500024C00AF025C00BF0EBEC0AF00AC04CF0FB
:101060000BC04DF04DBE39EF08F037EF08F03EEF02
:1010700008F05A804C6C4D1ED8B04D2A2450D96EC1
:10108000DA6ADF502D6E2DC0F6FF0E0EF76E000EE1
:10109000F86E0800F550640AD8B451EF08F053EF29
:1010A00008F063EF08F02DC0F6FF0E0EF76E000E8D
:1010B000F86E0800F550690AD8A461EF08F063EFF4
:1010C00008F07EEF08F02550D96EDA6A020EDF26AE
:1010D000DF5CD96EDA6ADECF28F0DECF29F024504B
:1010E000D96EDA6A2D28DF6E23C018F028C019F0F7
:1010F00029C01AF098EC08F097EF08F02450D96E48
:10110000DA6ADF2A97EF08F02450D96EDA6ADFCF67
:10111000F6FF0E0EF76E000EF86E0800F550046E26
:10112000056A23C006F042EC0BF07EEF08F01200D7
:10113000010E1D6E1ABE9FEF08F0A2EF08F0010E1F
:10114000A3EF08F0000E206E4CC01EF04DC01FF043
:101150002050D8B4AEEF08F0B0EF08F0C7EF08F0B9
:101160001E06D8A01F062050D8A4B9EF08F0BBEF88
:1011700008F0C1EF08F0000E1C6E2B0E1B6EC5EFC1
:1011800008F0000E1C6E2D0E1B6E1BC020F0000E12
:10119000226E1F0E216E000E0001816FFDEF08F020
:1011A0002106D8A022062150620FD96EDA6A19C032
:1011B00004F01AC005F0000E076E0A0E066E93ECDE
:1011C0000AF004C00AF005C00BF0CFEC0DF00A5095
:1011D000300FDF6E000E1D6E1E06D8A01F0619C050
:1011E00004F01AC005F0000E076E0A0E066E31EC10
:1011F0000AF004C019F005C01AF022BE08EF09F089
:10120000225008E12104D8A008EF09F00AEF09F004
:101210002FEF09F019501A10D8A411EF09F013EFAD
:1012200009F0D0EF08F01D50D8A419EF09F01BEF1A
:1012300009F0D0EF08F01FBE26EF09F01F5008E1BB
:101240001E04D8A026EF09F028EF09F02FEF09F0CF
:101250005AB22DEF09F02FEF09F0D0EF08F020502F
:10126000D8B435EF09F037EF09F040EF09F0210667
:10127000D8A022062150620FD96EDA6A20C0DFFFA3
:1012800018C011F02150620F126E1EC013F01FC063
:1012900014F0E8EC0BF01200839C83948296829405
:1012A000859685927B9C7B947A967A947D967D92A6
:1012B0000D0E086E2D0E076ED80EE82EFED7072EE7
:1012C000FCD7082EFAD7030EA6EC0CF0680E076EBA
:1012D000E40EE82EFED7072EFCD700D0030EA6ECB6
:1012E0000CF0050E076E260EE82EFED7072EFCD753
:1012F00000D0030EA6EC0CF0050E076E260EE82EAD
:10130000FED7072EFCD700D0020EA6EC0CF0050E7F
:10131000076E260EE82EFED7072EFCD700D0000E53
:10132000056E2C0E00EC0EF0E40E00D000D0E82E7E
:10133000FCD700D000D0000E056E080E00EC0EF0B9
:10134000E40E00D000D0E82EFCD700D000D0000E74
:10135000056E010E00EC0EF0680E076EE40EE82E2E
:10136000FED7072EFCD700D0000E056E060E00EC4F
:101370000EF0E40E00D000D0E82EFCD700D000D054
:10138000000E056E0C0E00EC0EF0E40E00D000D046
:10139000E82EFCD700D000D0120004A0D2EF09F054
:1013A000D4EF09F0D7EF09F07F80D8EF09F07F90F4
:1013B00004A2DDEF09F0DFEF09F0E2EF09F07F8230
:1013C000E3EF09F07F9204A4E8EF09F0EAEF09F0F7
:1013D000EDEF09F07984EEEF09F0799404A6F3EFCC
:1013E00009F0F5EF09F0F8EF09F07E8CF9EF09F05C
:1013F0007E9C04A8FEEF09F000EF0AF003EF0AF06C
:10140000798804EF0AF0799804AA09EF0AF00BEF43
:101410000AF00EEF0AF0798A0FEF0AF0799A04AC1D
:1014200014EF0AF016EF0AF019EF0AF07E801AEFB7
:101430000AF07E9004AE1FEF0AF021EF0AF024EFCD
:101440000AF07A8025EF0AF07A9005A02AEF0AF0D8
:101450002CEF0AF02FEF0AF07A8230EF0AF07A923E
:101460001200000E096E07BE3AEF0AF038EF0AF0DC
:1014700040EF0AF0066C071ED8B0072A010E096E6D
:1014800005BE47EF0AF045EF0AF04DEF0AF0046C95
:10149000051ED8B0052A010E091A000E0B6E000EAB
:1014A0000A6E06500710D8B458EF0AF05AEF0AF047
:1014B00082EF0AF0010E086E62EF0AF0D89006364D
:1014C0000736082A07AE67EF0AF069EF0AF05EEF09
:1014D0000AF0D8900A360B360650045C07500558BF
:1014E000D8A075EF0AF077EF0AF07CEF0AF006500B
:1014F000045E0750055A0A80D89007320632082E3B
:1015000069EF0AF00950D8B488EF0AF08AEF0AF0C0
:101510008EEF0AF00A6C0B1ED8B00B2A0AC004F03A
:101520000BC005F01200000E096E05BE9CEF0AF01C
:101530009AEF0AF0A2EF0AF0046C051ED8B0052A53
:10154000010E096E07BEA9EF0AF0A7EF0AF0ADEF92
:101550000AF0066C071ED8B0072A06500710D8B448
:10156000B4EF0AF0B6EF0AF0DAEF0AF0010E086EF7
:10157000BEEF0AF0D89006360736082A07AEC3EF4A
:101580000AF0C5EF0AF0BAEF0AF00650045C075003
:101590000558D8A0CEEF0AF0D0EF0AF0D4EF0AF049
:1015A0000650045E0750055AD89007320632082EBE
:1015B000C5EF0AF00950D8B4E0EF0AF0E2EF0AF004
:1015C000E6EF0AF0046C051ED8B0052A04C004F04A
:1015D00005C005F01200000E0E6E000E0D6E0A50D2
:1015E000D96EDA6ADFCFF6FF0E0EF76E000EF86ED8
:1015F0000800F5502A0AD8A400EF0BF002EF0BF018
:1016000028EF0BF00A50D96EDA6ADF2A0B50D96E38
:10161000DA6A020EDF26DF5CD96EDA6ADECF0DF001
:10162000DECF0EF03DEF0BF00DC004F00EC005F064
:10163000000E076E0A0E066E29EC0EF00C50042404
:101640000D6E000E05200E6E0A50D96EDA6ADF2A82
:101650000A50D96EDA6ADFCFF6FF0E0EF76E000E73
:10166000F86E0800F550D00F0C6E090E0C643BEFBD
:101670000BF03DEF0BF014EF0BF00DC00AF00EC0B5
:101680000BF012000650D8B448EF0BF04AEF0BF005
:1016900052EF0BF00650D8A450EF0BF052EF0BF0C6
:1016A00057EF0BF0045099EC0EF096EF0BF006504C
:1016B000D96EDA6A0A0ED926DE50DE10D8B463EF8E
:1016C0000BF065EF0BF07EEF0BF00650D96EDA6A87
:1016D0000A0ED9260650E16EE26A030EE126DE50BC
:1016E000E65CE650800A0B6EDE50800A0B58D8B0DC
:1016F0007CEF0BF07EEF0BF096EF0BF00650D96EFF
:10170000DA6A030ED926DF50076E0650D96EDA6A00
:10171000DF500724D96EDA6A04C0DFFF0650D96EA5
:10172000DA6A030ED926DE2A000EDD221200000E30
:101730000A6E000E096E58C004F059C005F0000E84
:10174000076E030E066EDAEC0CF004500510D8A4F8
:10175000ACEF0BF0AEEF0BF0B2EF0BF0000E0A6E39
:10176000490E096E58C004F059C005F0000E076E0E
:10177000030E066EDAEC0CF004040510D8A4C3EFD7
:101780000BF0C5EF0BF0C9EF0BF0000E0A6E920ED6
:10179000096E58C004F059C005F0000E076E030E24
:1017A000066EDAEC0CF0020E04180510D8A4DBEF7C
:1017B0000BF0DDEF0BF0E1EF0BF0010E0A6E240EE3
:1017C000096E09C004F00AC005F0CDEC09F0120062
:1017D0005AA0EDEF0BF0EFEF0BF0F5EF0BF012C0AE
:1017E0000CF011C00DF05DEC0DF014BEFCEF0BF031
:1017F000FAEF0BF000EF0CF0000E146E000E136EFB
:10180000000E176E000E166E10EF0CF0000E056E37
:10181000200E046E11C006F042EC0BF0164A172A97
:101820001350165C1750800A156E1450800A155814
:10183000D8A01DEF0CF01FEF0CF006EF0CF05AB023
:1018400024EF0CF026EF0CF02CEF0CF012C00CF093
:1018500011C00DF05DEC0DF01200608060B033EF50
:101860000CF035EF0CF02EEF0CF064CF13F0146A8F
:101870001350FF08136E1450D8A0E82A0008146E05
:10188000DB0E1324046EFF0E1420056E000E076E8F
:10189000066829EC0EF004C00AF005C00BF0000E3B
:1018A0000D6E740E0C6E6CEC0CF00AC013F00BC0D5
:1018B00014F01304020E1458D8A061EF0CF063EF7B
:1018C0000CF067EF0CF0000E146E000E136E13C0D8
:1018D00011F014C012F01200000E106E000E0F6E08
:1018E0000C500D10D8B477EF0CF079EF0CF0A1EF9D
:1018F0000CF0010E0E6E81EF0CF0D8900C360D3608
:101900000E2A0DAE86EF0CF088EF0CF07DEF0CF098
:10191000D8900F3610360C500A5C0D500B58D8A0DA
:1019200094EF0CF096EF0CF09BEF0CF00C500A5E6D
:101930000D500B5A0F80D8900D320C320E2E88EFBE
:101940000CF00FC00AF010C00BF01200046E04A0DF
:10195000ACEF0CF0AEEF0CF0B1EF0CF07A86B2EF1A
:101960000CF07A9604A2B7EF0CF0B9EF0CF0BCEFD4
:101970000CF07A84BDEF0CF07A9404A4C2EF0CF062
:10198000C4EF0CF0C7EF0CF07D86C8EF0CF07D962D
:1019900004A6CDEF0CF0CFEF0CF0D2EF0CF07D826F
:1019A000D3EF0CF07D9292EC0EF0A00E00D0E82E5A
:1019B000FDD7120006500710D8B4E1EF0CF0E3EFAA
:1019C0000CF007EF0DF0010E086EEBEF0CF0D89065
:1019D00006360736082A07AEF0EF0CF0F2EF0CF0EF
:1019E000E7EF0CF00650045C07500558D8A0FBEF59
:1019F0000CF0FDEF0CF001EF0DF00650045E075007
:101A0000055AD89007320632082EF2EF0CF004C0C7
:101A100004F005C005F012004CEC09F016EC0EF0D5
:101A20005DEC0EF04DEC0EF098EC0DF089EC0EF044
:101A3000809688967C9E849E010E7BEC0DF08C0E29
:101A4000326E220E336E2DEC0CF011C034F012C049
:101A500035F0B5EC0DF08C0E076EE9EC0DF014ECE2
:101A600007F0D00E4B6ECA0EE82EFED74B2EFCD7D9
:101A70001CEF0DF029EF00F02FC031F048EF0DF012
:101A80002EC023F0310E246E30C025F0D6EC07F0C6
:101A900031C0F6FF0E0EF76E000EF86E0800F5501E
:101AA0000009D8A456EF0DF058EF0DF040EF0DF0FF
:101AB000000E2F6E000E2E6E1200000E106E000E25
:101AC0000F6E6CEF0DF00EC004F0056A0DC006F04D
:101AD00042EC0BF00F4A102A0C500F24D96EDA6A30
:101AE000DF500E6E0E50D8A478EF0DF07AEF0DF0A7
:101AF00063EF0DF01200076E0704D8A482EF0DF01B
:101B000084EF0DF089EF0DF0000E056E800E00ECF5
:101B10000EF0020E0718D8A490EF0DF092EF0DF022
:101B200097EF0DF0000E056EC00E00EC0EF01200E7
:101B3000879087928194869C8198819A86908290E2
:101B400082927F907F9279947E9C7998799A7E9008
:101B50007A907A920E01BC91BC939295B49D929921
:101B6000929BB4919A919A931200340E3E6E32C0B9
:101B70003FF0000E436E000E426E000E4A6E000EE5
:101B8000496E3F0E2E6E33C02FF03E0E306E3CEC91
:101B90000DF032504224D96EDA6ADF6A12000BBEB1
:101BA000D4EF0DF0D6EF0DF0DCEF0DF00AC00AF027
:101BB0000BC00BF0E8EF0DF00AC00CF00BC00DF0FD
:101BC0000C1E0D1E0C4A0D2A0CC00AF00DC00BF0A5
:101BD0001200F4EF0DF0010E056E0750D96EDA6AAF
:101BE000DF5000EC0EF0072A0750D96EDA6ADF509A
:101BF000D8A4FDEF0DF0FFEF0DF0EBEF0DF01200AC
:101C0000066E05B002D07B9C01D07B8C06380F0B92
:101C1000A6EC0CF0A00E00D0E82EFDD70650A6ECE6
:101C20000CF0A00E00D0E82EFDD71200868E0E011B
:101C3000D251F80B0309D26FD351F80B0509D36FBA
:101C4000D083D089D183D18176EC0EF00E01D08F74
:101C5000120004500602F3CF08F0F4CF09F004504C
:101C60000702F350092605500602F350092608C062
:101C700004F009C005F0120000EE60F02C0EEE6AD0
:101C8000E806FDE100EE4CF00F0EEE6AE806FDE11D
:101C90005B905B9200010CEF0DF0D6501F0B4009DA
:101CA000D66ED688D650F00B0809D66ED5880B0EA6
:101CB000D46EDB0ED36ED58E120081860E01928714
:101CC0000F015899FC0E5817030E5F6F60946088DF
:101CD000608E12000E0135A170EF0EF072EF0EF063
:101CE00074EF0EF07C8E35915B921100F30E0E01B5
:101CF000C617C691C751E00B1B09C76FC68F1200EC
:101D0000D350D4CF06F0076A06C004F007C005F030
:101D100012000E01298B2B8121811F9BF28AF28EEA
:101D2000F28C12007B841A0EE82EFED700D07B9432
:041D3000120012008B
:020000040030CA
:02000000AAFF55
:020004009FFF5C
:00000001FF
