:0400000029EF00F0F4
:060008005C8286EF20F08F
:100018005C80D8CF01F0E8CF02F0E0CF03F00E010A
:1000280033AB19EF00F01BEF00F021EF00F00B0EDF
:10003800D46EDB0ED36E7C88339B03C0E0FF02C016
:0E004800E8FF01C0D8FF5C901000B4EF1EF07E
:100E0000003C6C3636CF0750B98488083CABAA2A20
:100E1000BEA3858832DA0FC93F83F9223F00000064
:100E20003F179ACC373F04B6BA9FAA2A3D0000006C
:100E3000BFDB0FC940E4CB9640DB0F4940DB0FC955
:100E40003F25303264202530326420253032642042
:100E50002020202020202020200025303264202542
:100E60003032642025303264202530326420253031
:100E700034640025642E253032640000A5C0BDF026
:100E8000A6C0BEF0A7C0BFF0A8C0C0F00001C0BFA0
:100E90004CEF07F04FEF07F0010E50EF07F0000E98
:100EA000B46FC09FDB0EBD5D0F0EBE59490EBF591A
:100EB0003F0EC059D8B05FEF07F061EF07F08AEF3F
:100EC00007F0800EBF5D390EC059D8B06AEF07F049
:100ED0006CEF07F076EF07F0A5C0A5F0A6C0A6F06E
:100EE000A7C0A7F0A8C0A8F0CCEF09F0A5C051F0AA
:100EF000A6C052F0A7C053F0A8C054F028EC15F0DB
:100F000051C0A5F052C0A6F053C0A7F054C0A8F03D
:100F1000CCEF09F0D20EBD5D530EBE597B0EBF590A
:100F2000400EC059D8B097EF07F099EF07F07CEF6B
:100F300008F0E40EBD5DCB0EBE59160EBF59400E33
:100F4000C059D8B0A6EF07F0A8EF07F016EF08F0E9
:100F5000B451D8B4AEEF07F0B0EF07F0E8EF07F008
:100F6000DB0E396E0F0E3A6EC90E3B6E3F0E3C6EB5
:100F7000A5C035F0A6C036F0A7C037F0A8C038F03D
:100F8000CDEC09F035C0B5F036C0B6F037C0B7F0DB
:100F900038C0B8F0B5C051F0B6C052F0B7C053F089
:100FA000B8C054F041EC16F051C055F052C056F0A4
:100FB00053C057F054C058F0C3EC1FF055C0A5F013
:100FC00056C0A6F057C0A7F058C0A8F0CCEF09F063
:100FD000A5C035F0A6C036F0A7C037F0A8C038F0DD
:100FE000DB0E396E0F0E3A6EC90E3B6EBF0E3C6EB5
:100FF000CDEC09F035C0B5F036C0B6F037C0B7F06B
:1010000038C0B8F0B5C051F0B6C052F0B7C053F018
:10101000B8C054F041EC16F051C0A5F052C0A6F093
:1010200053C0A7F054C0A8F0CCEF09F0B451D8A435
:101030001CEF08F01EEF08F044EF08F0DB0E396EED
:101040000F0E3A6E490E3B6EC00E3C6EA5C035F0D9
:10105000A6C036F0A7C037F0A8C038F0CDEC09F034
:1010600035C055F036C056F037C057F038C058F08C
:10107000C3EC1FF055C0ABF056C0ACF057C0ADF09C
:1010800058C0AEF068EF08F0DB0E396E0F0E3A6E06
:10109000490E3B6E400E3C6EA5C035F0A6C036F042
:1010A000A7C037F0A8C038F0CDEC09F035C055F036
:1010B00036C056F037C057F038C058F0C3EC1FF0B8
:1010C00055C0ABF056C0ACF057C0ADF058C0AEF054
:1010D000ABC051F0ACC052F0ADC053F0AEC054F054
:1010E00028EC15F051C0A5F052C0A6F053C0A7F0EF
:1010F00054C0A8F0CCEF09F0D60EBD5D310EBE593C
:10110000E20EBF59400EC059D8B089EF08F08BEFFE
:1011100008F02CEF09F0E00EBD5DED0EBE59AF0EEC
:10112000BF59400EC059D8B098EF08F09AEF08F0B8
:10113000DAEF08F0B451D8B4A0EF08F0A2EF08F04D
:10114000BEEF08F0A5C035F0A6C036F0A7C037F056
:10115000A8C038F0E40E396ECB0E3A6E960E3B6E98
:10116000400E3C6ECDEC09F035C0B5F036C0B6F09F
:1011700037C0B7F038C0B8F002EF08F0E40E396EAF
:10118000CB0E3A6E960E3B6EC00E3C6EA5C035F08F
:10119000A6C036F0A7C037F0A8C038F0CDEC09F0F3
:1011A00035C0B5F036C0B6F037C0B7F038C0B8F0CB
:1011B000CAEF07F0B451D8A4E0EF08F0E2EF08F06E
:1011C000FEEF08F0A5C035F0A6C036F0A7C037F096
:1011D000A8C038F0DB0E396E0F0E3A6EC90E3B6EAA
:1011E000C00E3C6ECDEC09F035C0AFF036C0B0F0AB
:1011F00037C0B1F038C0B2F018EF09F0A5C035F033
:10120000A6C036F0A7C037F0A8C038F0DB0E396EA4
:101210000F0E3A6EC90E3B6E400E3C6ECDEC09F0DF
:1012200035C0AFF036C0B0F037C0B1F038C0B2F062
:10123000AFC051F0B0C052F0B1C053F0B2C054F0E2
:1012400028EC15F051C0A5F052C0A6F053C0A7F08D
:1012500054C0A8F0CCEF09F0800EBF5D7F0EC059DE
:10126000D8A035EF09F037EF09F049EF09F0FF0E8C
:10127000BD13FF0EBE13FF0EBF13000EC013BDC083
:10128000A5F0BEC0A6F0BFC0A7F0C0C0A8F0CCEFCC
:1012900009F0A5C085F0A6C086F0A7C087F0A8C059
:1012A00088F0B90E896F32EC10F000018551030B04
:1012B000B36FB3EF09F0B9C055F0BAC056F0BBC078
:1012C00057F0BCC058F0C3EC1FF055C0B9F056C081
:1012D000BAF057C0BBF058C0BCF0B9C051F0BAC0AA
:1012E00052F0BBC053F0BCC054F028EC15F051C014
:1012F000A5F052C0A6F053C0A7F054C0A8F0CCEFA0
:1013000009F0B9C051F0BAC052F0BBC053F0BCC034
:1013100054F041EC16F051C0A5F052C0A6F053C0F5
:10132000A7F054C0A8F0CCEF09F0B9C051F0BAC092
:1013300052F0BBC053F0BCC054F041EC16F051C0A9
:1013400055F052C056F053C057F054C058F0C3EC9B
:101350001FF055C0A5F056C0A6F057C0A7F058C062
:10136000A8F0CCEF09F0B351A96FAA6BAA51000AFB
:10137000D8B4BDEF09F095EF09F0A951000AD8B42F
:101380006DEF09F0010AD8B481EF09F0030AD8B46F
:101390005BEF09F095EF09F012003850800B416EB9
:1013A00038503824436E37AED8EF09F0DAEF09F041
:1013B000DBEF09F043804350D8B4E1EF09F0E3EFED
:1013C00009F0F8EF09F04328D8A4E9EF09F0EBEFB2
:1013D00009F0F3EF09F0000E356E000E366E000EC8
:1013E000376E000E386E378E000E386E00EF0AF042
:1013F000000E356E000E366E000E376E000E386E23
:101400003C50800B426E41504218D8B40AEF0AF0AB
:101410000CEF0AF00DEF0AF0418C3C503C24426E78
:101420003BAE15EF0AF017EF0AF018EF0AF0428012
:101430004250D8B41EEF0AF020EF0AF035EF0AF060
:101440004228D8A426EF0AF028EF0AF030EF0AF07D
:10145000000E396E000E3A6E000E3B6E000E3C6EB2
:101460003B8E000E3C6E3DEF0AF0000E396E000E12
:101470003A6E000E3B6E000E3C6E4350425CD8B09C
:1014800044EF0AF046EF0AF06DEF0AF041AC4BEF83
:101490000AF04DEF0AF04FEF0AF0800E411A43C0F8
:1014A00044F042C043F044C042F035C044F039C07B
:1014B00035F044C039F036C044F03AC036F044C08C
:1014C0003AF037C044F03BC037F044C03BF038C07E
:1014D00044F03CC038F044C03CF0000E446E435031
:1014E00042C03DF03E6A3D5E000E3E5A3EBE82EF77
:1014F0000AF03E5009E11A0E3D5CD8A082EF0AF0D6
:1015000084EF0AF0BBEF0AF0355036103710381070
:10151000D8A48DEF0AF090EF0AF0010E91EF0AF0D7
:10152000000E446E000E356E000E366E000E376EE5
:10153000000E386E42C043F0C4EF0AF044A0A3EF9F
:101540000AF0A5EF0AF0ABEF0AF0D8904430010999
:10155000446EADEF0AF0D890443235A0B2EF0AF0F5
:10156000B4EF0AF0B5EF0AF0448E3834383237322F
:1015700036323532432A4250435CD8A0C2EF0AF0DB
:10158000C4EF0AF09EEF0AF041BCC9EF0AF0CBEFBE
:101590000AF00BEF0BF04350D8A4D1EF0AF0D3EFD1
:1015A0000AF0DDEF0AF0000E356E000E366E000E0A
:1015B000376E000E386E2CEF0CF0395035263A504D
:1015C00036223B5037223C50382238A0EAEF0AF04E
:1015D000ECEF0AF098EF0BF044A0F1EF0AF0F3EF14
:1015E0000AF0F9EF0AF0D89044300109446EFBEF9D
:1015F0000AF0D890443235A000EF0BF002EF0BF068
:1016000003EF0BF0448E383438323732363235320D
:10161000432A98EF0BF03950355C3A5036583B501E
:1016200037583850800A3D6E3C50800A3D58D8B03B
:101630001CEF0BF01EEF0BF049EF0BF03550395C4F
:101640003D6E36503A583E6E37503B583F6E3850DC
:101650003C58406EFF0E3D24356EFF0E3E20366E28
:10166000FF0E3F20376EFF0E4020386E800E411A6D
:10167000446C4450D8A43FEF0BF041EF0BF051EF16
:101680000BF0010E3526000E36223722382251EF9C
:101690000BF03950355E3A50365A3B50375A3C5071
:1016A000385A3550361037103810D8A45AEF0BF08E
:1016B0005CEF0BF091EF0BF04450D8A462EF0BF00D
:1016C00064EF0BF091EF0BF0000E356E000E366EEE
:1016D000000E376E000E386E2CEF0CF0D8903536B9
:1016E00036363736383644AE78EF0BF07AEF0BF0FB
:1016F0007BEF0BF0358044A080EF0BF082EF0BF016
:1017000086EF0BF0D880443688EF0BF0D890443643
:101710004350D8B48EEF0BF090EF0BF091EF0BF03D
:10172000430637AE96EF0BF098EF0BF06EEF0BF031
:10173000000E426E44AE9FEF0BF0A1EF0BF0B9EF3D
:101740000BF044C03DF07F0E3D16D8B4AAEF0BF06D
:10175000ACEF0BF0B0EF0BF0010E426EB9EF0BF0F7
:1017600035A0B5EF0BF0B7EF0BF0B9EF0BF0ACEF26
:101770000BF04250D8B4BFEF0BF0C1EF0BF0ECEF21
:101780000BF0010E3526000E36223722382238A003
:10179000CCEF0BF0CEEF0BF0ECEF0BF035C03DF0E3
:1017A00036C03EF037C03FF038C040F040344032E1
:1017B0003F323E323D323DC035F03EC036F03FC094
:1017C00037F040C038F04328D8B4E9EF0BF0EBEF26
:1017D0000BF0ECEF0BF0432A4328D8B4F2EF0BF0F8
:1017E000F4EF0BF0FCEF0BF04350D8A4FAEF0BF042
:1017F000FCEF0BF00EEF0CF0000E356E000E366EA7
:10180000000E376E000E386E4350D8A40AEF0CF06D
:101810000CEF0CF00EEF0CF0000E416E43A013EF36
:101820000CF015EF0CF018EF0CF0378E19EF0CF0F0
:10183000379ED8904330386E41AE21EF0CF023EF45
:101840000CF024EF0CF0388E35C035F036C036F091
:1018500037C037F038C038F012004850800B000114
:10186000606F48504824666F47AE39EF0CF03BEF8D
:101870000CF03CEF0CF066816651D8B442EF0CF0EE
:1018800044EF0CF057EF0CF06629D8A44AEF0CF0A7
:101890004CEF0CF054EF0CF0000E456E000E466E4F
:1018A000000E476E000E486E478E5FEF0CF0000E84
:1018B000456E000E466E000E476E000E486E4C5090
:1018C000800B601B4C504C24656F4BAE6AEF0CF0E4
:1018D0006CEF0CF06DEF0CF065816551D8B473EFCF
:1018E0000CF075EF0CF088EF0CF06529D8A47BEFB5
:1018F0000CF07DEF0CF085EF0CF0000E496E000E41
:101900004A6E000E4B6E000E4C6E4B8E90EF0CF03C
:10191000000E496E000E4A6E000E4B6E000E4C6EAD
:101920006551D8B496EF0CF098EF0CF0A0EF0CF0E6
:101930006651D8A49EEF0CF0A0EF0CF0AAEF0CF0CB
:10194000000E456E000E466E000E476E000E486E8D
:1019500042EF0EF04B504502F3CF6BF0F4CF6CF03A
:101960006B51616F626B636B646B6C51676F686B1B
:10197000696B6A6B4A504602F3CF6BF0F4CF6CF0A0
:101980006B516127000E6223632364236C51672728
:10199000000E682369236A2349504702F3CF6BF096
:1019A000F4CF6CF06B516127000E62236323642334
:1019B0006C516727000E682369236A2363C064F0B3
:1019C00062C063F061C062F0616B49504602F3CFC0
:1019D0006BF0F4CF6CF06B5161276C516223000EF9
:1019E0006323000E64234A504502F3CF6BF0F4CF1B
:1019F0006CF06B5161276C516223000E6323000E63
:101A0000642363C064F062C063F061C062F0616B24
:101A100049504502F3CF6BF0F4CF6CF06B51612766
:101A20006C516223000E6323000E64234B50460268
:101A3000F3CF6BF0F4CF6CF06B5167276C516823D8
:101A4000000E6923000E6A234A504702F3CF6BF061
:101A5000F4CF6CF06B5167276C516823000E69233B
:101A6000000E6A234B504702F3CF6BF0F4CF6CF0BB
:101A70006B514D6E6C514E6E4F6A506A4FC050F0B4
:101A80004EC04FF04DC04EF04D6A4D5067274E503E
:101A900068234F50692350506A2361C04DF062C0E3
:101AA0004EF063C04FF064C050F0190E5DEF0DF0C2
:101AB000D89050324F324E324D32E82E58EF0DF062
:101AC0004D5067274E5068234F50692350506A236A
:101AD00063C064F062C063F061C062F0616B655125
:101AE00066C04DF04E6A4D26000E4E22820E4D24E9
:101AF0006B6FFF0E4E206C6F93EF0DF0D890673731
:101B0000683769376A3764AF88EF0DF08AEF0DF0F8
:101B10008BEF0DF06781D890613762376337643798
:101B20006B07D8A06C0769AF98EF0DF09AEF0DF036
:101B30007EEF0DF0000E656F64AFA1EF0DF0A3EF27
:101B40000DF0C7EF0DF0FF0E61154D6EFF0E621523
:101B50004E6EFF0E63154F6E7F0E6415506E4D5026
:101B60004E104F105010D8B4B8EF0DF0BAEF0DF082
:101B7000BEEF0DF0010E656FC7EF0DF067A1C3EF6B
:101B80000DF0C5EF0DF0C7EF0DF0BAEF0DF0655198
:101B9000D8B4CDEF0DF0CFEF0DF0F3EF0DF0010E57
:101BA0006727000E682369236A236AA1DAEF0DF024
:101BB000DCEF0DF0F3EF0DF067C04DF068C04EF0B4
:101BC00069C04FF06AC050F0503450324F324E323C
:101BD0004D324DC067F04EC068F04FC069F050C044
:101BE0006AF06B4B6C2B6CBFFEEF0DF06C5108E193
:101BF0006B29D8A0FEEF0DF000EF0EF00AEF0EF00B
:101C0000000E676F000E686F800E696F7F0E6A6F3F
:101C100038EF0EF06CBF17EF0EF06C5106E16B055C
:101C2000D8B015EF0EF017EF0EF023EF0EF0000E08
:101C3000676F000E686F000E696F000E6A6F000E0E
:101C4000606F38EF0EF06BC066F0FF0E6717FF0E87
:101C500068177F0E6917000E6A1766A132EF0EF043
:101C600034EF0EF035EF0EF0698FD89066316A6F61
:101C700060516A1367C045F068C046F069C047F01C
:101C80006AC048F012007CAE48EF0EF04AEF0EF04A
:101C900031EF10F00001F95107E10C0EF85DD8B0FA
:101CA00054EF0EF056EF0EF067EF0EF0F8C008F0AC
:101CB000F9C009F0000E0B6E3C0E0A6E56EC20F0D7
:101CC0000001FA510824F06FFB510920F16FF9511E
:101CD00009E10D0EF85DD8A070EF0EF072EF0EF076
:101CE00014EF10F0F8C008F0F9C009F0000E0B6E08
:101CF0003C0E0A6E56EC20F00001FA510824EC6FFD
:101D0000FB510920ED6FDB0E496E0F0E4A6E490E36
:101D10004B6E400E4C6E660E396E660E3A6E9D0E20
:101D20003B6E420E3C6E000E206E800E216EB60E93
:101D3000226E430E236E010E0B6E680E0A6EAF0EFE
:101D4000F625086EFF0EF721096E56EC20F008C04C
:101D50000EF009C00FF0106A116A000E40EC17F087
:101D60000EC01CF00FC01DF010C01EF011C01FF0FF
:101D700013EC12F01CC035F01DC036F01EC037F059
:101D80001FC038F0CDEC09F035C045F036C046F044
:101D900037C047F038C048F02DEC0CF045C0C5F016
:101DA00046C0C6F047C0C7F048C0C8F0000E206E5D
:101DB000000E216E340E226E430E236EC5C01CF041
:101DC000C6C01DF0C7C01EF0C8C01FF013EC12F053
:101DD0001CC0A5F01DC0A6F01EC0A7F01FC0A8F033
:101DE0003EEC07F0A5C0C9F0A6C0CAF0A7C0CBF072
:101DF000A8C0CCF0DB0E496E0F0E4A6E490E4B6E3A
:101E0000400E4C6E000E206E800E216EB60E226EBD
:101E1000430E236EAF0E0001F625086EFF0EF7216C
:101E2000096E010E0B6E680E0A6E56EC20F008C0AB
:101E30000EF009C00FF0106A116A000E40EC17F0A6
:101E40000EC01CF00FC01DF010C01EF011C01FF01E
:101E500013EC12F01CC045F01DC046F01EC047F048
:101E60001FC048F02DEC0CF045C0CDF046C0CEF0C0
:101E700047C0CFF048C0D0F0000E496E000E4A6E49
:101E8000000E4B6E400E4C6E000E206E000E216E4A
:101E9000340E226E430E236ECDC01CF0CEC01DF05A
:101EA000CFC01EF0D0C01FF013EC12F01CC045F0E4
:101EB0001DC046F01EC047F01FC048F02DEC0CF0CE
:101EC00045C0D1F046C0D2F047C0D3F048C0D4F0EE
:101ED000D1C0A5F0D2C0A6F0D3C0A7F0D4C0A8F05E
:101EE0003EEC07F0A5C0D5F0A6C0D6F0A7C0D7F04D
:101EF000A8C0D8F0A40E496E700E4A6EF50E4B6E57
:101F0000400E4C6EC9C045F0CAC046F0CBC047F089
:101F1000CCC048F02DEC0CF045C055F046C056F052
:101F200047C057F048C058F0850E496EEB0E4A6E18
:101F30001D0E4B6E410E4C6ED5C045F0D6C046F01E
:101F4000D7C047F0D8C048F02DEC0CF045C051F098
:101F500046C052F047C053F048C054F007EC1FF0A1
:101F600051C06DF052C06EF053C06FF054C070F0AD
:101F70005FEC1AF06DC0E4F06EC0E5F00001E451D2
:101F8000D008E66FE551D8A0E82A0208E76FF051C3
:101F9000EC5DC16FF151ED59C26FD890C231C36F82
:101FA000C131E86FC3C0E9F0E851E6250E6EE95192
:101FB000E7210F6E000E116E3C0E106E14EC1EF039
:101FC0000EC0F8F00FC0F9F00001E851E625046EEC
:101FD000E951E721056E000E076E3C0E066E82EC9D
:101FE0001EF004C0FAF005C0FBF0000E076E3C0EB8
:101FF000066E0001E851E625046EE951E721056E01
:1020000082EC1EF004C0D9F005C0DAF0D9C004F0AB
:10201000DAC005F0000E076E3C0E066E82EC1EF074
:1020200004C0FCF005C0FDF0010EA6EC1FF0280E68
:10203000346E010E356E410E366EFCC037F0FDC0B9
:1020400038F0FAC039F0FBC03AF0F8C03BF0F9C004
:102050003CF06BEC1FF0280E076E010E086E13ECBF
:1020600020F0120004C195F005C196F006C197F06A
:1020700007C198F085C095F086C096F087C097F0AC
:1020800088C098F0000198BF48EF10F04BEF10F0B7
:10209000010E4CEF10F0000E946F989FDB0E955DD3
:1020A0000F0E9659C90E97594D0E9859D8B05BEF3F
:1020B00010F05DEF10F049EF11F085C004F086C01C
:1020C00005F087C006F088C007F0F9EC1FF004C0E7
:1020D0009DF005C09EF006C09FF007C0A0F0000E66
:1020E000396E000E3A6E000E3B6E3F0E3C6E830E54
:1020F000496EF90E4A6E220E4B6E3F0E4C6E9DC01D
:1021000045F09EC046F09FC047F0A0C048F02DECBF
:102110000CF045C035F046C036F047C037F048C037
:1021200038F0CDEC09F035C06DF036C06EF037C038
:102130006FF038C070F05FEC1AF06DC0A1F06EC0A7
:10214000A2F06FC0A3F070C0A4F0A1C00EF0A2C0B6
:102150000FF0A3C010F0A4C011F0010E40EC17F076
:102160000EC099F00FC09AF010C09BF011C09CF007
:10217000DA0E496E0F0E4A6EC90E4B6E3F0E4C6E54
:1021800099C045F09AC046F09BC047F09CC048F00B
:102190002DEC0CF045C055F046C056F047C057F046
:1021A00048C058F09DC051F09EC052F09FC053F0FF
:1021B000A0C054F007EC1FF051C090F052C091F055
:1021C00053C092F054C093F090C051F091C052F0BF
:1021D00092C053F093C054F0A30E496E850E4A6E20
:1021E000880E4B6E320E4C6E99C045F09AC046F088
:1021F0009BC047F09CC048F02DEC0CF045C055F05A
:1022000046C056F047C057F048C058F007EC1FF0E2
:1022100000018951D96EDA6A51C0DEFF52C0DEFF7B
:1022200053C0DEFF54C0DEFF9451D8B41AEF11F052
:102230001CEF11F043EF11F08951D96EDA6ADECF4D
:1022400055F0DECF56F0DECF57F0DECF58F0C3ECBE
:102250001FF000018951D96EDA6A55C0DEFF56C001
:10226000DEFF57C0DEFF58C0DEFFA1C08AF0A2C06B
:102270008BF08A1F8B1F8A4B8B2B8AC085F08BC0FB
:1022800086F012EF12F0A1C085F0A2C086F012EF26
:1022900012F085C004F086C005F087C006F088C043
:1022A00007F0F9EC1FF004C09DF005C09EF006C0D9
:1022B0009FF007C0A0F0000E396E000E3A6E000EBF
:1022C0003B6E3F0E3C6E830E496EF90E4A6E220E37
:1022D0004B6E3F0E4C6E9DC045F09EC046F09FC0B9
:1022E00047F0A0C048F02DEC0CF045C035F046C0DA
:1022F00036F047C037F048C038F0CDEC09F035C0B3
:102300006DF036C06EF037C06FF038C070F05FEC23
:102310001AF06DC0A1F06EC0A2F06FC0A3F070C043
:10232000A4F0A1C00EF0A2C00FF0A3C010F0A4C092
:1023300011F0010E40EC17F00EC099F00FC09AF0AA
:1023400010C09BF011C09CF0DA0E496E0F0E4A6E61
:10235000C90E4B6E3F0E4C6E99C045F09AC046F0C8
:102360009BC047F09CC048F02DEC0CF045C055F0E8
:1023700046C056F047C057F048C058F09DC051F0D5
:102380009EC052F09FC053F0A0C054F007EC1FF065
:1023900051C090F052C091F053C092F054C093F0ED
:1023A00090C051F091C052F092C053F093C054F0DD
:1023B000A30E496E850E4A6E880E4B6E320E4C6E21
:1023C00099C045F09AC046F09BC047F09CC048F0C9
:1023D0002DEC0CF045C055F046C056F047C057F004
:1023E00048C058F007EC1FF051C08CF052C08DF07F
:1023F00053C08EF054C08FF000018951D96EDA6A53
:102400008CC0DEFF8DC0DEFF8EC0DEFF8FC0DEFF22
:102410009451D8B40EEF12F010EF12F043EF11F018
:102420001CEF11F012001F50800B2C6E1F501F2448
:10243000336E1EAE1EEF12F020EF12F021EF12F0FD
:1024400033803350D8B427EF12F029EF12F03EEF6B
:1024500012F03328D8A42FEF12F031EF12F039EF39
:1024600012F0000E1C6E000E1D6E000E1E6E000E91
:102470001F6E1E8E000E1F6E46EF12F0000E1C6EB9
:10248000000E1D6E000E1E6E000E1F6E2350800B80
:102490002C1A23502324346E22AE51EF12F053EF46
:1024A00012F054EF12F034803450D8B45AEF12F0D6
:1024B0005CEF12F071EF12F03428D8A462EF12F042
:1024C00064EF12F06CEF12F0000E206E000E216E21
:1024D000000E226E000E236E228E000E236E79EF08
:1024E00012F0000E206E000E216E000E226E000E05
:1024F000236E2050211022102310D8A482EF12F056
:1025000084EF12F09CEF12F0000E1C6E000E1D6E98
:10251000000E1E6E000E1F6E800E1E127F0E1F120A
:102520002C501F121CC01CF01DC01DF01EC01EF040
:102530001FC01FF0DFEF13F03350D8A4A2EF12F04A
:10254000A4EF12F0AEEF12F0000E1C6E000E1D6E26
:10255000000E1E6E000E1F6EDFEF13F0345033C0FE
:1025600024F0256A245E000E255A7F0E24242D6E49
:10257000000E25202E6E1CC028F01DC029F01EC0A4
:102580002AF01FC02BF0000E1C6E000E1D6E000EF8
:102590001E6E000E1F6E000E2F6E000E306E000EAF
:1025A000316E000E326E000E346E0FEF13F03450A9
:1025B000D8B4DDEF12F0DFEF12F0F6EF12F0D890A2
:1025C000283629362A362B36D8901C361D361E362C
:1025D0001F3632AEEEEF12F0F0EF12F0F1EF12F024
:1025E0001C80D8902F363036313632362050285C59
:1025F0002150295822502A5823502B58D8A003EF95
:1026000013F005EF13F00EEF13F0328C2050285E1C
:102610002150295A22502A5A23502B5A342A190E53
:10262000346415EF13F017EF13F0D7EF12F02850C2
:1026300029102A102B10D8B420EF13F022EF13F03A
:102640003AEF13F02F803AEF13F0D8901C361D3676
:102650001E361F3632AE2FEF13F031EF13F032EF8C
:1026600013F01C80D8902F363036313632362D0696
:10267000D8A02E061EAE3FEF13F041EF13F025EF6A
:1026800013F0000E346E32AE48EF13F04AEF13F041
:102690006EEF13F0FF0E2F14246EFF0E3014256E14
:1026A000FF0E3114266E7F0E3214276E2450251033
:1026B00026102710D8B45FEF13F061EF13F065EF29
:1026C00013F0010E346E6EEF13F01CA06AEF13F0DE
:1026D0006CEF13F06EEF13F061EF13F03450D8B4D9
:1026E00074EF13F076EF13F09AEF13F0010E1C263F
:1026F000000E1D221E221F221FA081EF13F083EF68
:1027000013F09AEF13F01CC024F01DC025F01EC07A
:1027100026F01FC027F027342732263225322432F4
:1027200024C01CF025C01DF026C01EF027C01FF0DD
:102730002D4A2E2A2EBEA5EF13F02E5008E12D288B
:10274000D8A0A5EF13F0A7EF13F0B2EF13F0000E2F
:102750002E6E2D68000E1C6E000E1D6E000E1E6E7D
:10276000000E1F6E2EBEBFEF13F02E5006E12D049B
:10277000D8B0BDEF13F0BFEF13F0CDEF13F0000EA4
:102780002E6E000E2D6E000E1C6E000E1D6E000EC5
:102790001E6E000E1F6E000E2C6E2DC033F033A087
:1027A000D4EF13F0D6EF13F0D9EF13F01E8EDAEF5B
:1027B00013F01E9ED89033301F6E90EF12F012006F
:1027C0007CAEE5EF13F0E7EF13F001EF14F000013A
:1027D000F95109E10D0EF85DD8A0F1EF13F0F3EF18
:1027E00013F0FAEF13F0010E056E046864EC1BF0B1
:1027F00000EF14F0000E056E000E046E64EC1BF08A
:102800007C9E7CA806EF14F008EF14F03FEF14F064
:1028100080A00DEF14F00FEF14F012EF14F0000190
:10282000F84BF92B80B017EF14F019EF14F03EEFCE
:1028300014F00001FC4BFD2BFD5109E13C0EFC5D49
:10284000D8A025EF14F027EF14F03EEF14F0000E9F
:10285000FD6F000EFC6FFA4BFB2BFB5109E13C0EA8
:10286000FA5DD8A036EF14F038EF14F03EEF14F014
:10287000000EFB6F000EFA6FF84BF92B7C9880A0CE
:1028800044EF14F046EF14F05FEF14F09CEC20F0EE
:1028900004C008F005C009F0000E0B6E3C0E0A6E75
:1028A00056EC20F008C00EF009C00FF0000E116EBB
:1028B000106814EC1EF00EC0FAF00FC0FBF000011F
:1028C000F95109E1180EF85DD8A069EF14F06BEF2B
:1028D00014F073EF14F0000EF96F000EF86FF64B62
:1028E000F72BF44BF52BF55109E1080EF45DD8A058
:1028F0007CEF14F07EEF14F082EF14F0000EF56F11
:10290000010EF46F59C009F05AC00AF0F2C00BF082
:10291000F3C00CF01AEC18F00001F651095CF75105
:102920000A58D8B096EF14F098EF14F09EEF14F018
:10293000000EF76F010EF66F594A5A2A5A5009E1F4
:102940000D0E595CD8A0A7EF14F0A9EF14F0AFEF6B
:1029500014F0000E5A6E010E596EF24BF32BF8056F
:10296000F911D8A4B6EF14F0B8EF14F0BAEF14F0E0
:1029700036EC1DF0050E0001F819F911D8A4C3EFCB
:1029800014F0C5EF14F0CAEF14F0010E056E0468E0
:1029900064EC1BF0030E59185A10D8B4D2EF14F09F
:1029A000D4EF14F0DEEF14F00A0E59185A10D8A420
:1029B000DCEF14F0DEEF14F002EF15F0070E00016B
:1029C000F419F511D8A4E7EF14F0E9EF14F002EFD1
:1029D00015F0F75109E1190EF65DD8A0F2EF14F0E9
:1029E000F4EF14F002EF15F059C004F05AC005F0EE
:1029F000F8C006F0F9C007F0D0EC1DF004C0F8F004
:102A000005C0F9F0020EA6EC1FF0320E346E010E76
:102A1000356E5A0E366EFAC037F0FBC038F0F8C08B
:102A200039F0F9C03AF0F6C03BF0F7C03CF059C0BD
:102A30003DF05AC03EF0F2C03FF0F3C040F06BEC06
:102A40001FF0320E076E010E086E13EC20F012001C
:102A500051C045F052C046F053C047F054C048F052
:102A600051C049F052C04AF053C04BF054C04CF032
:102A70002DEC0CF045C085F046C086F047C087F0CD
:102A800048C088F085C045F086C046F087C047F052
:102A900088C048F085C049F086C04AF087C04BF036
:102AA00088C04CF02DEC0CF045C071F046C072F0BF
:102AB00047C073F048C074F03C0E496E6C0E4A6E0D
:102AC000360E4B6E360E4C6E85C045F086C046F015
:102AD00087C047F088C048F02DEC0CF045C035F0B9
:102AE00046C036F047C037F048C038F0CF0E396ED8
:102AF000070E3A6E500E3B6EB90E3C6ECDEC09F0EF
:102B000035C06DF036C06EF037C06FF038C070F071
:102B100085C045F086C046F087C047F088C048F0C1
:102B200051C049F052C04AF053C04BF054C04CF071
:102B30002DEC0CF045C081F046C082F047C083F018
:102B400048C084F0AB0E396EAA0E3A6E2A0E3B6E68
:102B5000BE0E3C6E840E496E880E4A6E080E4B6E99
:102B60003C0E4C6E85C045F086C046F087C047F0ED
:102B700088C048F02DEC0CF045C035F046C036F06A
:102B800047C037F048C038F0CDEC09F035C075F0DB
:102B900036C076F037C077F038C078F071C049F0B1
:102BA00072C04AF073C04BF074C04CF081C045F065
:102BB00082C046F083C047F084C048F02DEC0CF092
:102BC00045C079F046C07AF047C07BF048C07CF041
:102BD00051C039F052C03AF053C03BF054C03CF001
:102BE00081C049F082C04AF083C04BF084C04CF0F1
:102BF00075C045F076C046F077C047F078C048F021
:102C00002DEC0CF045C035F046C036F047C037F02B
:102C100048C038F0CDEC09F035C07DF036C07EF00C
:102C200037C07FF038C080F07DC035F07EC036F010
:102C30007FC037F080C038F06DC049F06EC04AF0F8
:102C40006FC04BF070C04CF079C045F07AC046F0D0
:102C50007BC047F07CC048F02DEC0CF045C039F04B
:102C600046C03AF047C03BF048C03CF0CDEC09F01C
:102C700035C051F036C052F037C053F038C054F070
:102C8000120051C045F052C046F053C047F054C046
:102C900048F051C049F052C04AF053C04BF054C004
:102CA0004CF02DEC0CF045C081F046C082F047C0DE
:102CB00083F048C084F081C045F082C046F083C0F4
:102CC00047F084C048F081C049F082C04AF083C018
:102CD0004BF084C04CF02DEC0CF045C07DF046C0AC
:102CE0007EF047C07FF048C080F0170E496E9A0E04
:102CF0004A6ECC0E4B6E370E4C6E81C045F082C0D2
:102D000046F083C047F084C048F02DEC0CF045C07D
:102D100035F046C036F047C037F048C038F03F0EB7
:102D2000396E040E3A6EB60E3B6EBA0E3C6ECDECAA
:102D300009F035C06DF036C06EF037C06FF038C0A6
:102D400070F0000E396E000E3A6E800E3B6E3F0E34
:102D50003C6E000E496E000E4A6E000E4B6EBF0EAA
:102D60004C6E81C045F082C046F083C047F084C0FD
:102D700048F02DEC0CF045C035F046C036F047C0A9
:102D800037F048C038F0CDEC09F035C071F036C0EE
:102D900072F037C073F038C074F081C049F082C05F
:102DA0004AF083C04BF084C04CF07DC045F07EC03B
:102DB00046F07FC047F080C048F02DEC0CF045C0D5
:102DC00075F046C076F047C077F048C078F09F0EA7
:102DD000496EAA0E4A6E2A0E4B6E3D0E4C6E7DC099
:102DE00045F07EC046F07FC047F080C048F02DEC33
:102DF0000CF045C039F046C03AF047C03BF048C03F
:102E00003CF071C035F072C036F073C037F074C05A
:102E100038F0CDEC09F035C079F036C07AF037C023
:102E20007BF038C07CF079C035F07AC036F07BC0DA
:102E300037F07CC038F06DC049F06EC04AF06FC00A
:102E40004BF070C04CF075C045F076C046F077C0CE
:102E500047F078C048F02DEC0CF045C039F046C082
:102E60003AF047C03BF048C03CF0CDEC09F035C02B
:102E700051F036C052F037C053F038C054F0120051
:102E8000166E1650D8B447EF17F049EF17F06BEFF6
:102E900017F011BE50EF17F04EEF17F06BEF17F071
:102EA0000EC012F00FC013F010C014F011C015F0D6
:102EB000121E131E141E151E122A000E1322142297
:102EC000152212C018F013C019F014C01AF015C062
:102ED0001BF073EF17F00EC018F00FC019F010C000
:102EE0001AF011C01BF00E500F1010101110D8A4C2
:102EF0007CEF17F07EEF17F088EF17F0000E0E6EE4
:102F0000000E0F6E000E106E000E116E19EF18F00D
:102F1000960E176E92EF17F0172AD8901B321A32BE
:102F200019321832000E1814126E000E1914136E96
:102F3000000E1A14146EFE0E1B14156E1250131090
:102F400014101510D8A4A7EF17F0A9EF17F08CEF05
:102F500017F0B7EF17F0172A010E1826000E1922E6
:102F60001A221B22D8901B321A3219321832000E44
:102F70001814126E000E1914136E000E1A14146E2B
:102F8000FF0E1B14156E1250131014101510D8A438
:102F9000CCEF17F0CEEF17F0ABEF17F0D6EF17F03E
:102FA0001706D890183619361A361B361ABEDBEFBC
:102FB00017F0DDEF17F0E5EF17F0020E1760E3EF03
:102FC00017F0E5EF17F0D0EF17F017B0EAEF17F0B2
:102FD000ECEF17F0EDEF17F01A9ED890173217C0EC
:102FE00012F0136A146A156A12C015F0146A136A93
:102FF000126A125018121350191214501A12155046
:103000001B121650D8B407EF18F009EF18F011EFA3
:1030100018F011BE10EF18F00EEF18F011EF18F0C5
:103020001B8E18C00EF019C00FF01AC010F01BC094
:1030300011F0120009040A10D8B421EF18F023EFA0
:1030400018F05FEF18F0030E09180A10D8B42BEF30
:1030500018F02DEF18F05FEF18F0050E09180A10A0
:10306000D8B435EF18F037EF18F05FEF18F0070E0F
:1030700009180A10D8B43FEF18F041EF18F05FEFCD
:1030800018F0080E09180A10D8B449EF18F04BEFE1
:1030900018F05FEF18F00A0E09180A10D8B453EFB1
:1030A00018F055EF18F05FEF18F00C0E09180A1021
:1030B000D8A45DEF18F05FEF18F065EF18F0000E80
:1030C000106E1F0E0F6EDCEF18F0040E09180A10B8
:1030D000D8B46DEF18F06FEF18F08DEF18F0060E02
:1030E00009180A10D8B477EF18F079EF18F08DEFBF
:1030F00018F0090E09180A10D8B481EF18F083EF00
:1031000018F08DEF18F00B0E09180A10D8A48BEFE9
:1031100018F08DEF18F093EF18F0000E106E1E0EE1
:103120000F6EDCEF18F0020E09180A10D8A49BEFFE
:1031300018F09DEF18F0DCEF18F0030E0B140D6E75
:10314000000E0C140E6E0D500E10D8A4AAEF18F03D
:10315000ACEF18F0BFEF18F00BC004F00CC005F096
:10316000000E076E640E066E82EC1EF00450051011
:10317000D8A4BDEF18F0BFEF18F0D2EF18F00BC0D5
:1031800004F00CC005F0010E076E900E066E82EC86
:103190001EF004500510D8A4D0EF18F0D2EF18F0AC
:1031A000D8EF18F0000E106E1D0E0F6EDCEF18F049
:1031B000000E106E1C0E0F6E0FC009F010C00AF04A
:1031C00012002650D96EDA6ADFCFF6FF0E0EF76EC8
:1031D000000EF86E0800F550250AD8A4F2EF18F09A
:1031E000F4EF18F090EF19F02650D96EDA6ADF2A62
:1031F000000E0001DD6F000EDC6FDCC05BF0DE69ED
:10320000DF69000E2E6E2BEF19F05B822650D96E0F
:10321000DA6ADF2A2BEF19F0010E2E6E2BEF19F070
:103220002650D96EDA6ADFCFF6FF0E0EF76E000E6B
:10323000F86E0800F550286E296A2950000AD8B4A3
:1032400024EF19F00CEF19F02850300AD8B405EF2C
:1032500019F00CEF19F02E50D8B431EF19F033EF0C
:1032600019F010EF19F026C00EF027C00FF0DFECB8
:103270001CF00EC0DCF00FC0DDF00001DDBF45EF3B
:1032800019F043EF19F04AEF19F05B80DC6DDD1F98
:10329000D8B0DD2B2650D96EDA6ADF502F6E2FC0E2
:1032A000F6FF0E0EF76E000EF86E0800F550640A79
:1032B000D8B45DEF19F05FEF19F06FEF19F02FC080
:1032C000F6FF0E0EF76E000EF86E0800F550690A54
:1032D000D8A46DEF19F06FEF19F08AEF19F02750AD
:1032E000D96EDA6A020EDF26DF5CD96EDA6ADECFCB
:1032F0002AF0DECF2BF02650D96EDA6A2F28DF6E47
:1033000025C01AF02AC01BF02BC01CF0A4EC19F049
:10331000A3EF19F02650D96EDA6ADF2AA3EF19F06D
:103320002650D96EDA6ADFCFF6FF0E0EF76E000E6A
:10333000F86E0800F550046E056A25C006F02AEC08
:103340001CF08AEF19F01200010E1F6E1CBEABEFCD
:1033500019F0AEEF19F0010EAFEF19F0000E226E6A
:10336000DCC020F0DDC021F02250D8B4BAEF19F053
:10337000BCEF19F0D3EF19F02006D8A02106225097
:10338000D8A4C5EF19F0C7EF19F0CDEF19F0000E72
:103390001E6E2B0E1D6ED1EF19F0000E1E6E2D0E3F
:1033A0001D6E1DC022F0000E246E1F0E236E000E37
:1033B0000101276F0BEF1AF02306D8A02406080E90
:1033C0002324D96E010E2420DA6E1BC004F01CC029
:1033D00005F0000E076E0A0E066E87EC1CF004C0A6
:1033E0000AF005C00BF0DFEC1FF00A50300FDF6E63
:1033F000000E1F6E2006D8A021061BC004F01CC0C2
:1034000005F0000E076E0A0E066EC8EC1BF004C035
:103410001BF005C01CF024BE16EF1AF0245008E182
:103420002304D8A016EF1AF018EF1AF03DEF1AF0A7
:103430001B501C10D8A41FEF1AF021EF1AF0DCEF7C
:1034400019F01F50D8A427EF1AF029EF1AF0DCEF7B
:1034500019F021BE34EF1AF0215008E12004D8A061
:1034600034EF1AF036EF1AF03DEF1AF05BB23BEF93
:103470001AF03DEF1AF0DCEF19F02250D8B443EF08
:103480001AF045EF1AF050EF1AF02306D8A02406E0
:10349000080E2324D96E010E2420DA6E22C0DFFF2D
:1034A0001AC012F0080E2324136E010E2420146E8D
:1034B00020C015F021C016F087EC1DF012000001AD
:1034C0006F357035766F7651D8A469EF1AF06BEFCF
:1034D0001AF075EF1AF0000E6D6F000E6E6F000E91
:1034E0006F6F000E706FE2EF1AF06DC071F06EC07A
:1034F00072F06FC073F070C074F0200E85EF1AF098
:10350000D8907433733372337133E82E80EF1AF02E
:103510007151756F6F8FFF0E6D17FF0E6E17FF0ED7
:103520006F17000E7017960E765F76BF9CEF1AF03D
:103530009AEF1AF0B2EF1AF07651800A970FD8B0CE
:10354000A4EF1AF0A6EF1AF0A8EF1AF06BEF1AF03A
:10355000D89070336F336E336D33763FA8EF1AF027
:10356000CAEF1AF01F0E7665B8EF1AF0BAEF1AF02C
:10357000C2EF1AF06BEF1AF0D8906D376E376F37D5
:10358000703776077651D8A4C8EF1AF0CAEF1AF050
:10359000BCEF1AF07551D8B4D0EF1AF0D2EF1AF090
:1035A000DAEF1AF0701F6F1F6E1F6D6D000E6E2325
:1035B0006F2370236DC06DF06EC06EF06FC06FF042
:1035C00070C070F01200839C8394829682948596DA
:1035D00085927B9C7B947A967A947D967D920D0E53
:1035E000086E2D0E076ED80EE82EFED7072EFCD7DC
:1035F000082EFAD7030E4EEC1EF0680E076EE40E8E
:10360000E82EFED7072EFCD700D0030E4EEC1EF09E
:10361000050E076E260EE82EFED7072EFCD700D02B
:10362000030E4EEC1EF0050E076E260EE82EFED79A
:10363000072EFCD700D0020E4EEC1EF0050E076ED2
:10364000260EE82EFED7072EFCD700D0000E056E02
:103650002C0E2DEC20F0E40E00D000D0E82EFCD78C
:1036600000D000D0000E056E080E2DEC20F0E40E08
:1036700000D000D0E82EFCD700D000D0000E056EA0
:10368000010E2DEC20F0680E076EE40EE82EFED73A
:10369000072EFCD700D0000E056E060E2DEC20F094
:1036A000E40E00D000D0E82EFCD700D000D0000EF1
:1036B000056E0C0E2DEC20F0E40E00D000D0E82EAC
:1036C000FCD700D000D0120004A069EF1BF06BEF14
:1036D0001BF06EEF1BF07F806FEF1BF07F9004A25A
:1036E00074EF1BF076EF1BF079EF1BF07F827AEF1F
:1036F0001BF07F9204A47FEF1BF081EF1BF084EF9F
:103700001BF0798485EF1BF0799404A68AEF1BF0F7
:103710008CEF1BF08FEF1BF07E8C90EF1BF07E9CEC
:1037200004A895EF1BF097EF1BF09AEF1BF0798838
:103730009BEF1BF0799804AAA0EF1BF0A2EF1BF0FF
:10374000A5EF1BF0798AA6EF1BF0799A04ACABEFDA
:103750001BF0ADEF1BF0B0EF1BF07E80B1EF1BF064
:103760007E9004AEB6EF1BF0B8EF1BF0BBEF1BF082
:103770007A80BCEF1BF07A9005A0C1EF1BF0C3EF7D
:103780001BF0C6EF1BF07A82C7EF1BF07A92120093
:10379000000E096E07BED1EF1BF0CFEF1BF0D7EF85
:1037A0001BF0066C071ED8B0072A010E096E05BE75
:1037B000DEEF1BF0DCEF1BF0E4EF1BF0046C051EEA
:1037C000D8B0052A010E091A000E0B6E000E0A6E03
:1037D00006500710D8B4EFEF1BF0F1EF1BF019EF14
:1037E0001CF0010E086EF9EF1BF0D8900636073674
:1037F000082A07AEFEEF1BF000EF1CF0F5EF1BF000
:10380000D8900A360B360650045C07500558D8A0ED
:103810000CEF1CF00EEF1CF013EF1CF00650045ED2
:103820000750055A0A80D89007320632082E00EF5A
:103830001CF00950D8B41FEF1CF021EF1CF025EF4D
:103840001CF00A6C0B1ED8B00B2A0AC004F00BC087
:1038500005F012000650D8B430EF1CF032EF1CF027
:103860003AEF1CF00650D8A438EF1CF03AEF1CF0E9
:103870003FEF1CF00450BEEC20F086EF1CF0065029
:10388000D96EDA6A0A0ED926DE50DE10D8B44BEFB4
:103890001CF04DEF1CF066EF1CF00650D96EDA6A92
:1038A0000A0ED9260650E16EE26A030EE126DE50CA
:1038B000E65CE650800A0B6EDE50800A0B58D8B0EA
:1038C00064EF1CF066EF1CF086EF1CF00650D96E1A
:1038D000DA6A030ED926DECF07F0DDCF08F00650F6
:1038E000D96EDA6ADECF09F0DDCF0AF0075009247D
:1038F000D96E08500A20DA6E04C0DFFF0650D96E78
:10390000DA6A030ED926DE2A000EDD221200000E2E
:10391000096E05BE90EF1CF08EEF1CF096EF1CF0C8
:10392000046C051ED8B0052A010E096E07BE9DEF76
:103930001CF09BEF1CF0A1EF1CF0066C071ED8B02A
:10394000072A06500710D8B4A8EF1CF0AAEF1CF005
:10395000CEEF1CF0010E086EB2EF1CF0D8900636C8
:103960000736082A07AEB7EF1CF0B9EF1CF0AEEF30
:103970001CF00650045C07500558D8A0C2EF1CF09C
:10398000C4EF1CF0C8EF1CF00650045E0750055A47
:10399000D89007320632082EB9EF1CF00950D8B47F
:1039A000D4EF1CF0D6EF1CF0DAEF1CF0046C051E0F
:1039B000D8B0052A04C004F005C005F01200000EBE
:1039C000126E000E116E0E50D96EDA6ADFCFF6FF5E
:1039D0000E0EF76E000EF86E0800F5502A0AD8A4F5
:1039E000F4EF1CF0F6EF1CF01CEF1DF00E50D96E3A
:1039F000DA6ADF2A0F50D96EDA6A020EDF26DF5C40
:103A0000D96EDA6ADECF11F0DECF12F031EF1DF0A1
:103A100011C008F012C009F0000E0B6E0A0E0A6EFB
:103A200056EC20F010500824116E000E0920126E82
:103A30000E50D96EDA6ADF2A0E50D96EDA6ADFCFFD
:103A4000F6FF0E0EF76E000EF86E0800F550D00F60
:103A5000106E090E10642FEF1DF031EF1DF008EF0E
:103A60001DF011C00EF012C00FF01200000E0A6E11
:103A7000000E096EF6C004F0F7C005F0000E076EE8
:103A8000030E066E82EC1EF004500510D8A44BEF16
:103A90001DF04DEF1DF051EF1DF0000E0A6E490EA6
:103AA000096EF6C004F0F7C005F0000E076E030EB5
:103AB000066E82EC1EF004040510D8A462EF1DF01F
:103AC00064EF1DF068EF1DF0000E0A6E920E096E95
:103AD000F6C004F0F7C005F0000E076E030E066E88
:103AE00082EC1EF0020E04180510D8A47AEF1DF027
:103AF0007CEF1DF080EF1DF0010E0A6E240E096EA2
:103B000009C004F00AC005F064EC1BF012005BA0D1
:103B10008CEF1DF08EEF1DF096EF1DF013C00CF032
:103B200014C00DF012C00EF04BEC1FF016BE9DEF4E
:103B30001DF09BEF1DF0A1EF1DF0000E166E000EA4
:103B4000156E000E196E000E186EB1EF1DF0000E0E
:103B5000056E200E046E12C006F02AEC1CF0184A06
:103B6000192A1550185C1950800A176E1650800AD1
:103B70001758D8A0BEEF1DF0C0EF1DF0A7EF1DF045
:103B80005BB0C5EF1DF0C7EF1DF0CFEF1DF013C008
:103B90000CF014C00DF012C00EF04BEC1FF0120030
:103BA000030E04180510D8A4D8EF1DF0DAEF1DF0AD
:103BB000EFEF1DF006040710D8A4E1EF1DF0E3EFCE
:103BC0001DF0EFEF1DF080B6E8EF1DF0EAEF1DF0FD
:103BD000EFEF1DF0000E076E020E066E80860A0ED5
:103BE00004180510D8A4F7EF1DF0F9EF1DF00FEF42
:103BF0001EF0020E06180710D8A401EF1EF003EF06
:103C00001EF00FEF1EF080A608EF1EF00AEF1EF068
:103C10000FEF1EF0000E076E010E066E809606C0B6
:103C200004F007C005F01200000E136E000E126EB5
:103C300010501110D8B41FEF1EF021EF1EF049EF05
:103C40001EF0010E146E29EF1EF0D89010361136BA
:103C5000142A11AE2EEF1EF030EF1EF025EF1EF0ED
:103C6000D8901236133610500E5C11500F58D8A051
:103C70003CEF1EF03EEF1EF043EF1EF010500E5EC4
:103C800011500F5A1280D89011321032142E30EF8A
:103C90001EF012C00EF013C00FF01200046E04A04C
:103CA00054EF1EF056EF1EF059EF1EF07A865AEFD1
:103CB0001EF07A9604A25FEF1EF061EF1EF064EF33
:103CC0001EF07A8465EF1EF07A9404A46AEF1EF069
:103CD0006CEF1EF06FEF1EF07D8670EF1EF07D968C
:103CE00004A675EF1EF077EF1EF07AEF1EF07D82CE
:103CF0007BEF1EF07D92B6EC20F0A00E00D0E82EF7
:103D0000FDD7120006500710D8B489EF1EF08BEFD4
:103D10001EF0AFEF1EF0010E086E93EF1EF0D8906C
:103D200006360736082A07AE98EF1EF09AEF1EF007
:103D30008FEF1EF00650045C07500558D8A0A3EF83
:103D40001EF0A5EF1EF0A9EF1EF00650045E07500E
:103D5000055AD89007320632082E9AEF1EF004C09A
:103D600004F005C005F012005C0EF66E410EF76E11
:103D7000000EF86E00EEEEF010EE10F00900F5CF38
:103D8000EEFFE550E150FAE17A0EF66E410EF76E65
:103D9000000EF86E0900F5CF59F00900F5CF5AF082
:103DA00001EE00F03C0EEE6AE806FDE100EEDCF00C
:103DB000120EEE6AE806FDE15B6A5C905C9200011F
:103DC000E2EF1EF0E3EC1AF043EC20F079EC20F087
:103DD00069EC20F089EC1FF0A5EC20F08096889625
:103DE000808088907C9E849E7C98849843EC0EF022
:103DF000E0EC13F0D00E0001DB6FC90EE82EFED709
:103E0000DB2FFCD700D0F6EF1EF029EF00F0000EFC
:103E1000551A000E561A000E571A800E581A51C025
:103E200035F052C036F053C037F054C038F055C0AA
:103E300039F056C03AF057C03BF058C03CF0CDECDA
:103E400009F035C051F036C052F037C053F038C0D9
:103E500054F0120031C033F036EF1FF030C025F0BF
:103E6000330E266E32C027F0E1EC18F033C0F6FFB7
:103E70000E0EF76E000EF86E0800F5500009D8A47B
:103E800044EF1FF046EF1FF02EEF1FF0000E316ED3
:103E9000000E306E1200000E116E000E106E5AEF02
:103EA0001FF00FC004F0056A0EC006F02AEC1CF0EB
:103EB000104A112A10500C24D96E11500D20DA6EC0
:103EC000DF500F6E0F50D8A468EF1FF06AEF1FF09D
:103ED00051EF1FF01200370E416E34C042F035C072
:103EE00043F0000E466E000E456E000E4D6E000E45
:103EF0004C6E420E306E36C031F0410E326E2AECFE
:103F00001FF045503424D96E46503520DA6EDF6AF2
:103F10001200879087928194869C8198819A8690DE
:103F2000829082927F907F9279947E9C7998799A00
:103F30007E907A907A920E01BC91BC939295B49D3A
:103F40009299929BB4919A919A931200076E0704EA
:103F5000D8A4ADEF1FF0AFEF1FF0B4EF1FF0000ECD
:103F6000056E800E2DEC20F0020E0718D8A4BBEFD2
:103F70001FF0BDEF1FF0C2EF1FF0000E056EC00E68
:103F80002DEC20F012005550561057105810D8B490
:103F9000CCEF1FF0CEEF1FF0D6EF1FF0000E551A3A
:103FA000000E561A000E571A800E581A55C055F0BA
:103FB00056C056F057C057F058C058F012000BBE0C
:103FC000E4EF1FF0E6EF1FF0ECEF1FF00AC00AF07D
:103FD0000BC00BF0F8EF1FF00AC00CF00BC00DF097
:103FE0000C1E0D1E0C4A0D2A0CC00AF00DC00BF061
:103FF000120000C108F001C109F002C10AF003C1BA
:104000000BF004C008F005C009F006C00AF007C0B4
:104010000BF00B9E08C004F009C005F00AC006F0C2
:104020000BC007F0120020EF20F0010E056E07C054
:10403000D9FF08C0DAFFDF502DEC20F0074A082A2C
:1040400007C0D9FF08C0DAFFDF50D8A42AEF20F05C
:104050002CEF20F015EF20F01200066E05B002D014
:104060007B9C01D07B8C06380F0B4EEC1EF0A00E13
:1040700000D0E82EFDD706504EEC1EF0A00E00D06A
:10408000E82EFDD71200868E0E01D251F80B0309DF
:10409000D26FD351F80B0509D36FD083D089D18368
:1040A000D18192EC20F00E01D08F120008500A024C
:1040B000F3CF0CF0F4CF0DF008500B02F3500D26A7
:1040C00009500A02F3500D260CC008F00DC009F08B
:1040D0001200D6501F0B4009D66ED688D650F00B72
:1040E0000809D66ED5880B0ED46EDB0ED36ED58E36
:1040F000120081860E0192870F015899FC0E581705
:10410000030E5F6F60946088608E12000E0135A10F
:104110008CEF20F08EEF20F090EF20F07C8E359128
:104120005C921100F30E0E01C617C691C751E00B49
:104130001B09C76FC68F1200D350D4CF06F0076A91
:1041400006C004F007C005F012000E01298B2B8178
:1041500021811F9BF28AF28EF28C12000C008201E8
:10416000E80706000A00110037001E007B841A0EC3
:0E417000E82EFED700D07B9412000300120050
:020000040030CA
:02000000AAFF55
:020004009FFF5C
:00000001FF
