:0400000029EF00F0F4
:060008005C82A0EF20F075
:100018005C80D8CF01F0E8CF02F0E0CF03F00E010A
:1000280033AB19EF00F01BEF00F021EF00F00B0EDF
:10003800D46EDB0ED36E7C88339B03C0E0FF02C016
:0E004800E8FF01C0D8FF5C9010009DEF1EF095
:100E0000003C6C3636CF0750B98488083CABAA2A20
:100E1000BEA3858832DA0FC93F83F9223F00000064
:100E20003F179ACC373F04B6BA9FAA2A3D0000006C
:100E3000BFDB0FC940E4CB9640DB0F4940DB0FC955
:100E40003F253032643A2530326420253032642F19
:0B0E5000253032642F25303464000090
:100E5C00A5C0BDF0A6C0BEF0A7C0BFF0A8C0C0F032
:100E6C000001C0BF3CEF07F03FEF07F0010E40EF71
:100E7C0007F0000EB46FC09FDB0EBD5D0F0EBE59A8
:100E8C00490EBF593F0EC059D8B04FEF07F051EF84
:100E9C0007F07AEF07F0800EBF5D390EC059D8B05D
:100EAC005AEF07F05CEF07F066EF07F0A5C0A5F06E
:100EBC00A6C0A6F0A7C0A7F0A8C0A8F0BCEF09F088
:100ECC00A5C051F0A6C052F0A7C053F0A8C054F072
:100EDC00CBEC13F051C0A5F052C0A6F053C0A7F054
:100EEC0054C0A8F0BCEF09F0D20EBD5D530EBE5934
:100EFC007B0EBF59400EC059D8B087EF07F089EF71
:100F0C0007F06CEF08F0E40EBD5DCB0EBE59160E6B
:100F1C00BF59400EC059D8B096EF07F098EF07F0C4
:100F2C0006EF08F0B451D8B49EEF07F0A0EF07F02D
:100F3C00D8EF07F0DB0E396E0F0E3A6EC90E3B6E12
:100F4C003F0E3C6EA5C035F0A6C036F0A7C037F0FA
:100F5C00A8C038F0BDEC09F035C0B5F036C0B6F01D
:100F6C0037C0B7F038C0B8F0B5C051F0B6C052F0C9
:100F7C00B7C053F0B8C054F0E4EC14F051C055F0C5
:100F8C0052C056F053C057F054C058F0D0EC1FF07C
:100F9C0055C0A5F056C0A6F057C0A7F058C0A8F091
:100FAC00BCEF09F0A5C035F0A6C036F0A7C037F0ED
:100FBC00A8C038F0DB0E396E0F0E3A6EC90E3B6EC0
:100FCC00BF0E3C6EBDEC09F035C0B5F036C0B6F0C6
:100FDC0037C0B7F038C0B8F0B5C051F0B6C052F059
:100FEC00B7C053F0B8C054F0E4EC14F051C0A5F005
:100FFC0052C0A6F053C0A7F054C0A8F0BCEF09F043
:10100C00B451D8A40CEF08F00EEF08F034EF08F050
:10101C00DB0E396E0F0E3A6E490E3B6EC00E3C6EF7
:10102C00A5C035F0A6C036F0A7C037F0A8C038F080
:10103C00BDEC09F035C055F036C056F037C057F04E
:10104C0038C058F0D0EC1FF055C0ABF056C0ACF027
:10105C0057C0ADF058C0AEF058EF08F0DB0E396E4B
:10106C000F0E3A6E490E3B6E400E3C6EA5C035F02D
:10107C00A6C036F0A7C037F0A8C038F0BDEC09F018
:10108C0035C055F036C056F037C057F038C058F060
:10109C00D0EC1FF055C0ABF056C0ACF057C0ADF063
:1010AC0058C0AEF0ABC051F0ACC052F0ADC053F074
:1010BC00AEC054F0CBEC13F051C0A5F052C0A6F06A
:1010CC0053C0A7F054C0A8F0BCEF09F0D60EBD5D1C
:1010DC00310EBE59E20EBF59400EC059D8B079EF4F
:1010EC0008F07BEF08F01CEF09F0E00EBD5DED0E93
:1010FC00BE59AF0EBF59400EC059D8B088EF08F09A
:10110C008AEF08F0CAEF08F0B451D8B490EF08F0A9
:10111C0092EF08F0AEEF08F0A5C035F0A6C036F09F
:10112C00A7C037F0A8C038F0E40E396ECB0E3A6E7B
:10113C00960E3B6E400E3C6EBDEC09F035C0B5F022
:10114C0036C0B6F037C0B7F038C0B8F0F2EF07F0E1
:10115C00E40E396ECB0E3A6E960E3B6EC00E3C6EA4
:10116C00A5C035F0A6C036F0A7C037F0A8C038F03F
:10117C00BDEC09F035C0B5F036C0B6F037C0B7F0ED
:10118C0038C0B8F0BAEF07F0B451D8A4D0EF08F0DB
:10119C00D2EF08F0EEEF08F0A5C035F0A6C036F09F
:1011AC00A7C037F0A8C038F0DB0E396E0F0E3A6EC0
:1011BC00C90E3B6EC00E3C6EBDEC09F035C0AFF0F5
:1011CC0036C0B0F037C0B1F038C0B2F008EF09F05B
:1011DC00A5C035F0A6C036F0A7C037F0A8C038F0CF
:1011EC00DB0E396E0F0E3A6EC90E3B6E400E3C6E26
:1011FC00BDEC09F035C0AFF036C0B0F037C0B1F07F
:10120C0038C0B2F0AFC051F0B0C052F0B1C053F022
:10121C00B2C054F0CBEC13F051C0A5F052C0A6F004
:10122C0053C0A7F054C0A8F0BCEF09F0800EBF5D0E
:10123C007F0EC059D8A025EF09F027EF09F039EF40
:10124C0009F0FF0EBD13FF0EBE13FF0EBF13000EF1
:10125C00C013BDC0A5F0BEC0A6F0BFC0A7F0C0C0F3
:10126C00A8F0BCEF09F0A5C085F0A6C086F0A7C019
:10127C0087F0A8C088F0B90E896F1DEC10F0000142
:10128C008551030BB36FA3EF09F0B9C055F0BAC089
:10129C0056F0BBC057F0BCC058F0D0EC1FF055C096
:1012AC00B9F056C0BAF057C0BBF058C0BCF0B9C0CA
:1012BC0051F0BAC052F0BBC053F0BCC054F0CBECF0
:1012CC0013F051C0A5F052C0A6F053C0A7F054C003
:1012DC00A8F0BCEF09F0B9C051F0BAC052F0BBC0D5
:1012EC0053F0BCC054F0E4EC14F051C0A5F052C063
:1012FC00A6F053C0A7F054C0A8F0BCEF09F0B9C0D9
:10130C0051F0BAC052F0BBC053F0BCC054F0E4EC86
:10131C0014F051C055F052C056F053C057F054C0A1
:10132C0058F0D0EC1FF055C0A5F056C0A6F057C031
:10133C00A7F058C0A8F0BCEF09F0B351A96FAA6B85
:10134C00AA51000AD8B4ADEF09F085EF09F0A95104
:10135C00000AD8B45DEF09F0010AD8B471EF09F0B6
:10136C00030AD8B44BEF09F085EF09F0120038509E
:10137C00800B416E38503824436E37AEC8EF09F0FD
:10138C00CAEF09F0CBEF09F043804350D8B4D1EF4A
:10139C0009F0D3EF09F0E8EF09F04328D8A4D9EF0E
:1013AC0009F0DBEF09F0E3EF09F0000E356E000EEB
:1013BC00366E000E376E000E386E378E000E386E9D
:1013CC00F0EF09F0000E356E000E366E000E376E23
:1013DC00000E386E3C50800B426E41504218D8B40F
:1013EC00FAEF09F0FCEF09F0FDEF09F0418C3C50ED
:1013FC003C24426E3BAE05EF0AF007EF0AF008EF13
:10140C000AF042804250D8B40EEF0AF010EF0AF006
:10141C0025EF0AF04228D8A416EF0AF018EF0AF0CC
:10142C0020EF0AF0000E396E000E3A6E000E3B6E85
:10143C00000E3C6E3B8E000E3C6E2DEF0AF0000E43
:10144C00396E000E3A6E000E3B6E000E3C6E435031
:10145C00425CD8B034EF0AF036EF0AF05DEF0AF0D8
:10146C0041AC3BEF0AF03DEF0AF03FEF0AF0800E83
:10147C00411A43C044F042C043F044C042F035C06E
:10148C0044F039C035F044C039F036C044F03AC0AD
:10149C0036F044C03AF037C044F03BC037F044C09B
:1014AC003BF038C044F03CC038F044C03CF0000E77
:1014BC00446E435042C03DF03E6A3D5E000E3E5AC3
:1014CC003EBE72EF0AF03E5009E11A0E3D5CD8A008
:1014DC0072EF0AF074EF0AF0ABEF0AF035503610E9
:1014EC0037103810D8A47DEF0AF080EF0AF0010E07
:1014FC0081EF0AF0000E446E000E356E000E366E53
:10150C00000E376E000E386E42C043F0B4EF0AF096
:10151C0044A093EF0AF095EF0AF09BEF0AF0D890F5
:10152C0044300109446E9DEF0AF0D890443235A046
:10153C00A2EF0AF0A4EF0AF0A5EF0AF0448E3834BB
:10154C003832373236323532432A4250435CD8A0D7
:10155C00B2EF0AF0B4EF0AF08EEF0AF041BCB9EF2B
:10156C000AF0BBEF0AF0FBEF0AF04350D8A4C1EF2E
:10157C000AF0C3EF0AF0CDEF0AF0000E356E000E44
:10158C00366E000E376E000E386E1CEF0CF03950B4
:10159C0035263A5036223B5037223C50382238A060
:1015AC00DAEF0AF0DCEF0AF088EF0BF044A0E1EF81
:1015BC000AF0E3EF0AF0E9EF0AF0D89044300109A1
:1015CC00446EEBEF0AF0D890443235A0F0EF0AF0FD
:1015DC00F2EF0AF0F3EF0AF0448E38343832373237
:1015EC0036323532432A88EF0BF03950355C3A509D
:1015FC0036583B5037583850800A3D6E3C50800A64
:10160C003D58D8B00CEF0BF00EEF0BF039EF0BF0A0
:10161C003550395C3D6E36503A583E6E37503B581B
:10162C003F6E38503C58406EFF0E3D24356EFF0E19
:10163C003E20366EFF0E3F20376EFF0E4020386E78
:10164C00800E411A446C4450D8A42FEF0BF031EFAC
:10165C000BF041EF0BF0010E3526000E362237222F
:10166C00382241EF0BF03950355E3A50365A3B5028
:10167C00375A3C50385A3550361037103810D8A4D9
:10168C004AEF0BF04CEF0BF081EF0BF04450D8A469
:10169C0052EF0BF054EF0BF081EF0BF0000E356EA8
:1016AC00000E366E000E376E000E386E1CEF0CF00E
:1016BC00D890353636363736383644AE68EF0BF0C0
:1016CC006AEF0BF06BEF0BF0358044A070EF0BF072
:1016DC0072EF0BF076EF0BF0D880443678EF0BF00E
:1016EC00D89044364350D8B47EEF0BF080EF0BF01B
:1016FC0081EF0BF0430637AE86EF0BF088EF0BF063
:10170C005EEF0BF0000E426E44AE8FEF0BF091EFDC
:10171C000BF0A9EF0BF044C03DF07F0E3D16D8B492
:10172C009AEF0BF09CEF0BF0A0EF0BF0010E426E5A
:10173C00A9EF0BF035A0A5EF0BF0A7EF0BF0A9EF7D
:10174C000BF09CEF0BF04250D8B4AFEF0BF0B1EFB5
:10175C000BF0DCEF0BF0010E3526000E3622372293
:10176C00382238A0BCEF0BF0BEEF0BF0DCEF0BF027
:10177C0035C03DF036C03EF037C03FF038C040F0C9
:10178C00403440323F323E323D323DC035F03EC0F7
:10179C0036F03FC037F040C038F04328D8B4D9EF0A
:1017AC000BF0DBEF0BF0DCEF0BF0432A4328D8B443
:1017BC00E2EF0BF0E4EF0BF0ECEF0BF04350D8A49E
:1017CC00EAEF0BF0ECEF0BF0FEEF0BF0000E356ECA
:1017DC00000E366E000E376E000E386E4350D8A4D5
:1017EC00FAEF0BF0FCEF0BF0FEEF0BF0000E416E7E
:1017FC0043A003EF0CF005EF0CF008EF0CF0378E64
:10180C0009EF0CF0379ED8904330386E41AE11EF93
:10181C000CF013EF0CF014EF0CF0388E35C035F0E3
:10182C0036C036F037C037F038C038F012004850A8
:10183C00800B0001606F48504824666F47AE29EF5B
:10184C000CF02BEF0CF02CEF0CF066816651D8B439
:10185C0032EF0CF034EF0CF047EF0CF06629D8A403
:10186C003AEF0CF03CEF0CF044EF0CF0000E456E30
:10187C00000E466E000E476E000E486E478E4FEF00
:10188C000CF0000E456E000E466E000E476E000EFC
:10189C00486E4C50800B601B4C504C24656F4BAE0B
:1018AC005AEF0CF05CEF0CF05DEF0CF065816551BC
:1018BC00D8B463EF0CF065EF0CF078EF0CF0652901
:1018CC00D8A46BEF0CF06DEF0CF075EF0CF0000E74
:1018DC00496E000E4A6E000E4B6E000E4C6E4B8E17
:1018EC0080EF0CF0000E496E000E4A6E000E4B6E2F
:1018FC00000E4C6E6551D8B486EF0CF088EF0CF0EE
:10190C0090EF0CF06651D8A48EEF0CF090EF0CF029
:10191C009AEF0CF0000E456E000E466E000E476EF0
:10192C00000E486E32EF0EF04B504502F3CF6BF0C9
:10193C00F4CF6CF06B51616F626B636B646B6C51C9
:10194C00676F686B696B6A6B4A504602F3CF6BF03A
:10195C00F4CF6CF06B516127000E62236323642378
:10196C006C516727000E682369236A23495047028C
:10197C00F3CF6BF0F4CF6CF06B516127000E622348
:10198C00632364236C516727000E682369236A2341
:10199C0063C064F062C063F061C062F0616B495077
:1019AC004602F3CF6BF0F4CF6CF06B5161276C51A6
:1019BC006223000E6323000E64234A504502F3CFCA
:1019CC006BF0F4CF6CF06B5161276C516223000EFD
:1019DC006323000E642363C064F062C063F061C0D3
:1019EC0062F0616B49504502F3CF6BF0F4CF6CF0B1
:1019FC006B5161276C516223000E6323000E64232C
:101A0C004B504602F3CF6BF0F4CF6CF06B51672761
:101A1C006C516823000E6923000E6A234A5047025A
:101A2C00F3CF6BF0F4CF6CF06B5167276C516823DC
:101A3C00000E6923000E6A234B504702F3CF6BF064
:101A4C00F4CF6CF06B514D6E6C514E6E4F6A506A08
:101A5C004FC050F04EC04FF04DC04EF04D6A4D503F
:101A6C0067274E5068234F50692350506A2361C03A
:101A7C004DF062C04EF063C04FF064C050F0190ED0
:101A8C004DEF0DF0D89050324F324E324D32E82E91
:101A9C0048EF0DF04D5067274E5068234F50692387
:101AAC0050506A2363C064F062C063F061C062F09E
:101ABC00616B655166C04DF04E6A4D26000E4E228C
:101ACC00820E4D246B6FFF0E4E206C6F83EF0DF06A
:101ADC00D8906737683769376A3764AF78EF0DF09D
:101AEC007AEF0DF07BEF0DF06781D890613762379C
:101AFC00633764376B07D8A06C0769AF88EF0DF0BC
:101B0C008AEF0DF06EEF0DF0000E656F64AF91EF84
:101B1C000DF093EF0DF0B7EF0DF0FF0E61154D6E5C
:101B2C00FF0E62154E6EFF0E63154F6E7F0E641521
:101B3C00506E4D504E104F105010D8B4A8EF0DF001
:101B4C00AAEF0DF0AEEF0DF0010E656FB7EF0DF0D3
:101B5C0067A1B3EF0DF0B5EF0DF0B7EF0DF0AAEFF5
:101B6C000DF06551D8B4BDEF0DF0BFEF0DF0E3EF04
:101B7C000DF0010E6727000E682369236A236AA102
:101B8C00CAEF0DF0CCEF0DF0E3EF0DF067C04DF0A8
:101B9C0068C04EF069C04FF06AC050F050345032FB
:101BAC004F324E324D324DC067F04EC068F04FC0D0
:101BBC0069F050C06AF06B4B6C2B6CBFEEEF0DF004
:101BCC006C5108E16B29D8A0EEEF0DF0F0EF0DF0A1
:101BDC00FAEF0DF0000E676F000E686F800E696FE4
:101BEC007F0E6A6F28EF0EF06CBF07EF0EF06C5192
:101BFC0006E16B05D8B005EF0EF007EF0EF013EF12
:101C0C000EF0000E676F000E686F000E696F000E0D
:101C1C006A6F000E606F28EF0EF06BC066F0FF0E5F
:101C2C006717FF0E68177F0E6917000E6A1766A1FB
:101C3C0022EF0EF024EF0EF025EF0EF0698FD89006
:101C4C0066316A6F60516A1367C045F068C046F030
:101C5C0069C047F06AC048F012007CAE38EF0EF055
:101C6C003AEF0EF01CEF10F00001F95107E10C0EE9
:101C7C00F85DD8B044EF0EF046EF0EF057EF0EF0D3
:101C8C00F8C008F0F9C009F0000E0B6E3C0E0A6E9D
:101C9C0063EC20F00001FA510824F06FFB5109208D
:101CAC00F16FF95109E10D0EF85DD8A060EF0EF05F
:101CBC0062EF0EF01CEF10F0F8C008F0F9C009F05C
:101CCC00000E0B6E3C0E0A6E63EC20F00001FA5114
:101CDC000824EA6FFB510920EB6FDB0E496E0F0EE7
:101CEC004A6E490E4B6E400E4C6E660E396E660E89
:101CFC003A6E9D0E3B6E420E3C6E000E206E800EB8
:101D0C00216EB60E226E430E236E010E0B6E680E04
:101D1C000A6EAF0EF625086EFF0EF721096E63EC06
:101D2C0020F008C00EF009C00FF0106A116A000E06
:101D3C00C9EC16F00EC01CF00FC01DF010C01EF048
:101D4C0011C01FF0FEEC11F01CC035F01DC036F0B8
:101D5C001EC037F01FC038F0BDEC09F035C045F09F
:101D6C0036C046F037C047F038C048F01DEC0CF0D8
:101D7C0045C0C5F046C0C6F047C0C7F048C0C8F063
:101D8C00000E206E000E216E340E226E430E236E5A
:101D9C00C5C01CF0C6C01DF0C7C01EF0C8C01FF0E7
:101DAC00FEEC11F01CC0A5F01DC0A6F01EC0A7F0E3
:101DBC001FC0A8F02EEC07F0A5C0C9F0A6C0CAF051
:101DCC00A7C0CBF0A8C0CCF0DB0E496E0F0E4A6E4C
:101DDC00490E4B6E400E4C6E000E206E800E216E26
:101DEC00B60E226E430E236EAF0E0001F625086E62
:101DFC00FF0EF721096E010E0B6E680E0A6E63EC76
:101E0C0020F008C00EF009C00FF0106A116A000E25
:101E1C00C9EC16F00EC01CF00FC01DF010C01EF067
:101E2C0011C01FF0FEEC11F01CC045F01DC046F0B7
:101E3C001EC047F01FC048F01DEC0CF045C0CDF0A3
:101E4C0046C0CEF047C0CFF048C0D0F0000E496E6F
:101E5C00000E4A6E000E4B6E400E4C6E000E206E45
:101E6C00000E216E340E226E430E236ECDC01CF07C
:101E7C00CEC01DF0CFC01EF0D0C01FF0FEEC11F094
:101E8C001CC045F01DC046F01EC047F01FC048F0F6
:101E9C001DEC0CF045C0D1F046C0D2F047C0D3F0D9
:101EAC0048C0D4F0D1C0A5F0D2C0A6F0D3C0A7F0E2
:101EBC00D4C0A8F02EEC07F0A5C0D5F0A6C0D6F083
:101ECC00A7C0D7F0A8C0D8F0A40E496E700E4A6E09
:101EDC00F50E4B6E400E4C6EC9C045F0CAC046F0B4
:101EEC00CBC047F0CCC048F01DEC0CF045C055F011
:101EFC0046C056F047C057F048C058F0850E496EA2
:101F0C00EB0E4A6E1D0E4B6E410E4C6ED5C045F05D
:101F1C00D6C046F0D7C047F0D8C048F01DEC0CF046
:101F2C0045C051F046C052F047C053F048C054F081
:101F3C0014EC1FF051C06DF052C06EF053C06FF036
:101F4C0054C070F0E8EC19F06DC0E4F06EC0E5F030
:101F5C0080A0B3EF0FF0B5EF0FF0BEEF0FF0000164
:101F6C00E451D108E66FE551D8A0E82A0208E76FE2
:101F7C0080B0C3EF0FF0C5EF0FF0CEEF0FF0000104
:101F8C00E451D008E66FE551D8A0E82A0208E76FC3
:101F9C000001F051EA5DC16FF151EB59C26FD8905D
:101FAC00C231C36FC131E86FC3C0E9F0E851E62517
:101FBC000E6EE951E7210F6E000E116E3C0E106E85
:101FCC00FDEC1DF00EC0F8F00FC0F9F00001E85167
:101FDC00E625046EE951E721056E000E076E3C0EF6
:101FEC00066E6BEC1EF004C0FAF005C0FBF0000EA0
:101FFC00076E3C0E066E0001E851E625046EE951B1
:10200C00E721056E6BEC1EF004C0D9F005C0DAF0C8
:10201C00D9C004F0DAC005F0000E076E3C0E066E57
:10202C006BEC1EF004C0FCF005C0FDF01200DCC02F
:10203C0095F0DDC096F0DEC097F0DFC098F085C05B
:10204C0095F086C096F087C097F088C098F0000194
:10205C0098BF33EF10F036EF10F0010E37EF10F0A1
:10206C00000E946F989FDB0E955D0F0E9659C90E5E
:10207C0097594D0E9859D8B046EF10F048EF10F024
:10208C0034EF11F085C004F086C005F087C006F06F
:10209C0088C007F020EC20F004C09DF005C09EF035
:1020AC0006C09FF007C0A0F0000E396E000E3A6E0D
:1020BC00000E3B6E3F0E3C6E830E496EF90E4A6E5F
:1020CC00220E4B6E3F0E4C6E9DC045F09EC046F0EE
:1020DC009FC047F0A0C048F01DEC0CF045C035F097
:1020EC0046C036F047C037F048C038F0BDEC09F0B8
:1020FC0035C06DF036C06EF037C06FF038C070F080
:10210C00E8EC19F06DC0A1F06EC0A2F06FC0A3F0A6
:10211C0070C0A4F0A1C00EF0A2C00FF0A3C010F0CC
:10212C00A4C011F0010EC9EC16F00EC099F00FC04E
:10213C009AF010C09BF011C09CF0DA0E496E0F0E95
:10214C004A6EC90E4B6E3F0E4C6E99C045F09AC04C
:10215C0046F09BC047F09CC048F01DEC0CF045C00D
:10216C0055F046C056F047C057F048C058F09DC0D7
:10217C0051F09EC052F09FC053F0A0C054F014EC2C
:10218C001FF051C090F052C091F053C092F054C067
:10219C0093F090C051F091C052F092C053F093C0A4
:1021AC0054F0A30E496E850E4A6E880E4B6E320E9D
:1021BC004C6E99C045F09AC046F09BC047F09CC04D
:1021CC0048F01DEC0CF045C055F046C056F047C029
:1021DC0057F048C058F014EC1FF000018951D96E2B
:1021EC00DA6A51C0DEFF52C0DEFF53C0DEFF54C0BE
:1021FC00DEFF9451D8B405EF11F007EF11F02EEF7C
:10220C0011F08951D96EDA6ADECF55F0DECF56F077
:10221C00DECF57F0DECF58F0D0EC1FF00001895123
:10222C00D96EDA6A55C0DEFF56C0DEFF57C0DEFF3E
:10223C0058C0DEFFA1C08AF0A2C08BF08A1F8B1F92
:10224C008A4B8B2B8AC085F08BC086F0FDEF11F08A
:10225C00A1C085F0A2C086F0FDEF11F085C004F09E
:10226C0086C005F087C006F088C007F020EC20F08F
:10227C0004C09DF005C09EF006C09FF007C0A0F002
:10228C00000E396E000E3A6E000E3B6E3F0E3C6E29
:10229C00830E496EF90E4A6E220E4B6E3F0E4C6E3B
:1022AC009DC045F09EC046F09FC047F0A0C048F0CE
:1022BC001DEC0CF045C035F046C036F047C037F089
:1022CC0048C038F0BDEC09F035C06DF036C06EF08A
:1022DC0037C06FF038C070F0E8EC19F06DC0A1F0A9
:1022EC006EC0A2F06FC0A3F070C0A4F0A1C00EF03D
:1022FC00A2C00FF0A3C010F0A4C011F0010EC9ECE5
:10230C0016F00EC099F00FC09AF010C09BF011C0DF
:10231C009CF0DA0E496E0F0E4A6EC90E4B6E3F0ED4
:10232C004C6E99C045F09AC046F09BC047F09CC0DB
:10233C0048F01DEC0CF045C055F046C056F047C0B7
:10234C0057F048C058F09DC051F09EC052F09FC04D
:10235C0053F0A0C054F014EC1FF051C090F052C0D8
:10236C0091F053C092F054C093F090C051F091C0D2
:10237C0052F092C053F093C054F0A30E496E850EE8
:10238C004A6E880E4B6E320E4C6E99C045F09AC058
:10239C0046F09BC047F09CC048F01DEC0CF045C0CB
:1023AC0055F046C056F047C057F048C058F014ECF2
:1023BC001FF051C08CF052C08DF053C08EF054C041
:1023CC008FF000018951D96EDA6A8CC0DEFF8DC0A6
:1023DC00DEFF8EC0DEFF8FC0DEFF9451D8B4F9EF64
:1023EC0011F0FBEF11F02EEF11F007EF11F01200CE
:1023FC001F50800B2C6E1F501F24336E1EAE09EF26
:10240C0012F00BEF12F00CEF12F033803350D8B403
:10241C0012EF12F014EF12F029EF12F03328D8A4B7
:10242C001AEF12F01CEF12F024EF12F0000E1C6EDB
:10243C00000E1D6E000E1E6E000E1F6E1E8E000E08
:10244C001F6E31EF12F0000E1C6E000E1D6E000E92
:10245C001E6E000E1F6E2350800B2C1A235023244B
:10246C00346E22AE3CEF12F03EEF12F03FEF12F062
:10247C0034803450D8B445EF12F047EF12F05CEFD3
:10248C0012F03428D8A44DEF12F04FEF12F057EFA2
:10249C0012F0000E206E000E216E000E226E000E49
:1024AC00236E228E000E236E64EF12F0000E206E4F
:1024BC00000E216E000E226E000E236E2050211095
:1024CC0022102310D8A46DEF12F06FEF12F087EFEB
:1024DC0012F0000E1C6E000E1D6E000E1E6E000E15
:1024EC001F6E800E1E127F0E1F122C501F121CC04E
:1024FC001CF01DC01DF01EC01EF01FC01FF0CAEF47
:10250C0013F03350D8A48DEF12F08FEF12F099EF37
:10251C0012F0000E1C6E000E1D6E000E1E6E000ED4
:10252C001F6ECAEF13F0345033C024F0256A245EBA
:10253C00000E255A7F0E24242D6E000E25202E6EA3
:10254C001CC028F01DC029F01EC02AF01FC02BF0A3
:10255C00000E1C6E000E1D6E000E1E6E000E1F6E09
:10256C00000E2F6E000E306E000E316E000E326EAD
:10257C00000E346EFAEF12F03450D8B4C8EF12F0EB
:10258C00CAEF12F0E1EF12F0D890283629362A362D
:10259C002B36D8901C361D361E361F3632AED9EF70
:1025AC0012F0DBEF12F0DCEF12F01C80D8902F361B
:1025BC003036313632362050285C21502958225082
:1025CC002A5823502B58D8A0EEEF12F0F0EF12F04F
:1025DC00F9EF12F0328C2050285E2150295A2250EB
:1025EC002A5A23502B5A342A190E346400EF13F054
:1025FC0002EF13F0C2EF12F0285029102A102B1002
:10260C00D8B40BEF13F00DEF13F025EF13F02F8070
:10261C0025EF13F0D8901C361D361E361F3632AE01
:10262C001AEF13F01CEF13F01DEF13F01C80D89071
:10263C002F363036313632362D06D8A02E061EAE49
:10264C002AEF13F02CEF13F010EF13F0000E346E92
:10265C0032AE33EF13F035EF13F059EF13F0FF0EEA
:10266C002F14246EFF0E3014256EFF0E3114266EBF
:10267C007F0E3214276E2450251026102710D8B444
:10268C004AEF13F04CEF13F050EF13F0010E346ED1
:10269C0059EF13F01CA055EF13F057EF13F059EF4F
:1026AC0013F04CEF13F03450D8B45FEF13F061EF2C
:1026BC0013F085EF13F0010E1C26000E1D221E22B6
:1026CC001F221FA06CEF13F06EEF13F085EF13F0C9
:1026DC001CC024F01DC025F01EC026F01FC027F022
:1026EC002734273226322532243224C01CF025C050
:1026FC001DF026C01EF027C01FF02D4A2E2A2EBE1C
:10270C0090EF13F02E5008E12D28D8A090EF13F085
:10271C0092EF13F09DEF13F0000E2E6E2D68000E4D
:10272C001C6E000E1D6E000E1E6E000E1F6E2EBE59
:10273C00AAEF13F02E5006E12D04D8B0A8EF13F039
:10274C00AAEF13F0B8EF13F0000E2E6E000E2D6EE4
:10275C00000E1C6E000E1D6E000E1E6E000E1F6E07
:10276C00000E2C6E2DC033F033A0BFEF13F0C1EF71
:10277C0013F0C4EF13F01E8EC5EF13F01E9ED8900D
:10278C0033301F6E7BEF12F0120051C045F052C077
:10279C0046F053C047F054C048F051C049F052C005
:1027AC004AF053C04BF054C04CF01DEC0CF045C03B
:1027BC0085F046C086F047C087F048C088F085C0D9
:1027CC0045F086C046F087C047F088C048F085C009
:1027DC0049F086C04AF087C04BF088C04CF01DEC25
:1027EC000CF045C071F046C072F047C073F048C0A1
:1027FC0074F03C0E496E6C0E4A6E360E4B6E360EF5
:10280C004C6E85C045F086C046F087C047F088C046
:10281C0048F01DEC0CF045C035F046C036F047C012
:10282C0037F048C038F0CF0E396E070E3A6E500EA6
:10283C003B6EB90E3C6EBDEC09F035C06DF036C088
:10284C006EF037C06FF038C070F085C045F086C0B0
:10285C0046F087C047F088C048F051C049F052C0DC
:10286C004AF053C04BF054C04CF01DEC0CF045C07A
:10287C0081F046C082F047C083F048C084F0AB0EB4
:10288C00396EAA0E3A6E2A0E3B6EBE0E3C6E840E4C
:10289C00496E880E4A6E080E4B6E3C0E4C6E85C00F
:1028AC0045F086C046F087C047F088C048F01DEC64
:1028BC000CF045C035F046C036F047C037F048C084
:1028CC0038F0BDEC09F035C075F036C076F037C085
:1028DC0077F038C078F071C049F072C04AF073C01C
:1028EC004BF074C04CF081C045F082C046F083C000
:1028FC0047F084C048F01DEC0CF045C079F046C0A0
:10290C007AF047C07BF048C07CF051C039F052C01F
:10291C003AF053C03BF054C03CF081C049F082C047
:10292C004AF083C04BF084C04CF075C045F076C0C3
:10293C0046F077C047F078C048F01DEC0CF045C06D
:10294C0035F046C036F047C037F048C038F0BDEC23
:10295C0009F035C07DF036C07EF037C07FF038C04E
:10296C0080F07DC035F07EC036F07FC037F080C07F
:10297C0038F06DC049F06EC04AF06FC04BF070C0BB
:10298C004CF079C045F07AC046F07BC047F07CC073
:10299C0048F01DEC0CF045C039F046C03AF047C089
:1029AC003BF048C03CF0BDEC09F035C051F036C0EE
:1029BC0052F037C053F038C054F0120051C045F0FB
:1029CC0052C046F053C047F054C048F051C049F0D3
:1029DC0052C04AF053C04BF054C04CF01DEC0CF0FC
:1029EC0045C081F046C082F047C083F048C084F0F7
:1029FC0081C045F082C046F083C047F084C048F0E7
:102A0C0081C049F082C04AF083C04BF084C04CF0C6
:102A1C001DEC0CF045C07DF046C07EF047C07FF049
:102A2C0048C080F0170E496E9A0E4A6ECC0E4B6E53
:102A3C00370E4C6E81C045F082C046F083C047F023
:102A4C0084C048F01DEC0CF045C035F046C036F0A3
:102A5C0047C037F048C038F03F0E396E040E3A6E5E
:102A6C00B60E3B6EBA0E3C6EBDEC09F035C06DF087
:102A7C0036C06EF037C06FF038C070F0000E396E93
:102A8C00000E3A6E800E3B6E3F0E3C6E000E496E91
:102A9C00000E4A6E000E4B6EBF0E4C6E81C045F0A0
:102AAC0082C046F083C047F084C048F01DEC0CF0A7
:102ABC0045C035F046C036F047C037F048C038F056
:102ACC00BDEC09F035C071F036C072F037C073F050
:102ADC0038C074F081C049F082C04AF083C04BF01A
:102AEC0084C04CF07DC045F07EC046F07FC047F0FE
:102AFC0080C048F01DEC0CF045C075F046C076F077
:102B0C0047C077F048C078F09F0E496EAA0E4A6E07
:102B1C002A0E4B6E3D0E4C6E7DC045F07EC046F0CD
:102B2C007FC047F080C048F01DEC0CF045C039F078
:102B3C0046C03AF047C03BF048C03CF071C035F09D
:102B4C0072C036F073C037F074C038F0BDEC09F0C9
:102B5C0035C079F036C07AF037C07BF038C07CF0E5
:102B6C0079C035F07AC036F07BC037F07CC038F0D5
:102B7C006DC049F06EC04AF06FC04BF070C04CF0A5
:102B8C0075C045F076C046F077C047F078C048F085
:102B9C001DEC0CF045C039F046C03AF047C03BF094
:102BAC0048C03CF0BDEC09F035C051F036C052F0D5
:102BBC0037C053F038C054F012007CA8E8EF15F081
:102BCC00EAEF15F021EF16F080A0EFEF15F0F1EF22
:102BDC0015F0F4EF15F00001F84BF92B80B0F9EF7C
:102BEC0015F0FBEF15F020EF16F00001FC4BFD2B60
:102BFC00FD5109E13C0EFC5DD8A007EF16F009EF82
:102C0C0016F020EF16F0000EFD6F000EFC6FFA4B65
:102C1C00FB2BFB5109E13C0EFA5DD8A018EF16F026
:102C2C001AEF16F020EF16F0000EFB6F000EFA6F85
:102C3C00F84BF92B7C9880A026EF16F028EF16F0B5
:102C4C0041EF16F0B6EC20F004C008F005C009F016
:102C5C00000E0B6E3C0E0A6E63EC20F008C00EF0FA
:102C6C0009C00FF0000E116E1068FDEC1DF00EC0C7
:102C7C00FAF00FC0FBF00001F95109E1180EF85DF4
:102C8C00D8A04BEF16F04DEF16F055EF16F0000EE6
:102C9C00F96F000EF86FF64BF72BF44BF52BF55143
:102CAC0009E1080EF45DD8A05EEF16F060EF16F0A7
:102CBC0064EF16F0000EF56F010EF46F59C009F0B9
:102CCC005AC00AF0F2C00BF0F3C00CF0A3EC17F0F2
:102CDC000001F651095CF7510A58D8B078EF16F09C
:102CEC007AEF16F080EF16F0000EF76F010EF66F0C
:102CFC00594A5A2A5A5009E10D0E595CD8A089EF4D
:102D0C0016F08BEF16F091EF16F0000E5A6E010EC6
:102D1C00596EF24BF32B030E59185A10D8B499EF85
:102D2C0016F09BEF16F0A5EF16F00A0E59185A1074
:102D3C00D8A4A3EF16F0A5EF16F0C8EF16F0070E07
:102D4C00F419F511D8A4ADEF16F0AFEF16F0C8EFEB
:102D5C0016F0F75109E1190EF65DD8A0B8EF16F090
:102D6C00BAEF16F0C8EF16F059C004F05AC005F0CF
:102D7C00F8C006F0F9C007F0B9EC1DF004C0F8F08B
:102D8C0005C0F9F01200166E1650D8B4D0EF16F03C
:102D9C00D2EF16F0F4EF16F011BED9EF16F0D7EF14
:102DAC0016F0F4EF16F00EC012F00FC013F010C0B6
:102DBC0014F011C015F0121E131E141E151E122A2B
:102DCC00000E13221422152212C018F013C019F091
:102DDC0014C01AF015C01BF0FCEF16F00EC018F062
:102DEC000FC019F010C01AF011C01BF00E500F10CC
:102DFC0010101110D8A405EF17F007EF17F011EF12
:102E0C0017F0000E0E6E000E0F6E000E106E000E00
:102E1C00116EA2EF17F0960E176E1BEF17F0172A14
:102E2C00D8901B321A3219321832000E1814126E46
:102E3C00000E1914136E000E1A14146EFE0E1B14D1
:102E4C00156E1250131014101510D8A430EF17F083
:102E5C0032EF17F015EF17F040EF17F0172A010EAD
:102E6C001826000E19221A221B22D8901B321A3255
:102E7C0019321832000E1814126E000E1914136E3B
:102E8C00000E1A14146EFF0E1B14156E1250131034
:102E9C0014101510D8A455EF17F057EF17F034EFA6
:102EAC0017F05FEF17F01706D890183619361A3648
:102EBC001B361ABE64EF17F066EF17F06EEF17F0C3
:102ECC00020E17606CEF17F06EEF17F059EF17F05A
:102EDC0017B073EF17F075EF17F076EF17F01A9E27
:102EEC00D890173217C012F0136A146A156A12C000
:102EFC0015F0146A136A126A125018121350191230
:102F0C0014501A1215501B121650D8B490EF17F01B
:102F1C0092EF17F09AEF17F011BE99EF17F097EFA9
:102F2C0017F09AEF17F01B8E18C00EF019C00FF0A7
:102F3C001AC010F01BC011F0120009040A10D8B40A
:102F4C00AAEF17F0ACEF17F0E8EF17F0030E091823
:102F5C000A10D8B4B4EF17F0B6EF17F0E8EF17F08B
:102F6C00050E09180A10D8B4BEEF17F0C0EF17F011
:102F7C00E8EF17F0070E09180A10D8B4C8EF17F0CD
:102F8C00CAEF17F0E8EF17F0080E09180A10D8B4BA
:102F9C00D2EF17F0D4EF17F0E8EF17F00A0E09187C
:102FAC000A10D8B4DCEF17F0DEEF17F0E8EF17F0EB
:102FBC000C0E09180A10D8A4E6EF17F0E8EF17F07A
:102FCC00EEEF17F0000E106E1F0E0F6E65EF18F07F
:102FDC00040E09180A10D8B4F6EF17F0F8EF17F032
:102FEC0016EF18F0060E09180A10D8B400EF18F0F6
:102FFC0002EF18F016EF18F0090E09180A10D8B4E1
:10300C000AEF18F00CEF18F016EF18F00B0E091869
:10301C000A10D8A414EF18F016EF18F01CEF18F0E3
:10302C00000E106E1E0E0F6E65EF18F0020E0918D2
:10303C000A10D8A424EF18F026EF18F065EF18F05A
:10304C00030E0B140D6E000E0C140E6E0D500E10A4
:10305C00D8A433EF18F035EF18F048EF18F00BC088
:10306C0004F00CC005F0000E076E640E066E6BECDF
:10307C001EF004500510D8A446EF18F048EF18F0D5
:10308C005BEF18F00BC004F00CC005F0010E076EDE
:10309C00900E066E6BEC1EF004500510D8A459EF80
:1030AC0018F05BEF18F061EF18F0000E106E1D0EAB
:1030BC000F6E65EF18F0000E106E1C0E0F6E0FC029
:1030CC0009F010C00AF012002650D96EDA6ADFCF70
:1030DC00F6FF0E0EF76E000EF86E0800F550250A7E
:1030EC00D8A47BEF18F07DEF18F019EF19F02650EB
:1030FC00D96EDA6ADF2A000E0001E16F000EE06F74
:10310C00E0C05BF0E269E369000E2E6EB4EF18F0DC
:10311C005B822650D96EDA6ADF2AB4EF18F0010E02
:10312C002E6EB4EF18F02650D96EDA6ADFCFF6FFA8
:10313C000E0EF76E000EF86E0800F550286E296A18
:10314C002950000AD8B4ADEF18F095EF18F02850BC
:10315C00300AD8B48EEF18F095EF18F02E50D8B482
:10316C00BAEF18F0BCEF18F099EF18F026C00EF07B
:10317C0027C00FF0C8EC1CF00EC0E0F00FC0E1F05F
:10318C000001E1BFCEEF18F0CCEF18F0D3EF18F040
:10319C005B80E06DE11FD8B0E12B2650D96EDA6A66
:1031AC00DF502F6E2FC0F6FF0E0EF76E000EF86E6E
:1031BC000800F550640AD8B4E6EF18F0E8EF18F000
:1031CC00F8EF18F02FC0F6FF0E0EF76E000EF86E2B
:1031DC000800F550690AD8A4F6EF18F0F8EF18F0CB
:1031EC0013EF19F02750D96EDA6A020EDF26DF5C76
:1031FC00D96EDA6ADECF2AF0DECF2BF02650D96EEC
:10320C00DA6A2F28DF6E25C01AF02AC01BF02BC0FB
:10321C001CF02DEC19F02CEF19F02650D96EDA6A4F
:10322C00DF2A2CEF19F02650D96EDA6ADFCFF6FFC1
:10323C000E0EF76E000EF86E0800F550046E056A5F
:10324C0025C006F013EC1CF013EF19F01200010E60
:10325C001F6E1CBE34EF19F037EF19F0010E38EF6A
:10326C0019F0000E226EE0C020F0E1C021F02250D7
:10327C00D8B443EF19F045EF19F05CEF19F02006C4
:10328C00D8A021062250D8A44EEF19F050EF19F017
:10329C0056EF19F0000E1E6E2B0E1D6E5AEF19F024
:1032AC00000E1E6E2D0E1D6E1DC022F0000E246E23
:1032BC001F0E236E000E01012D6F94EF19F02306E3
:1032CC00D8A024060E0E2324D96E010E2420DA6E0B
:1032DC001BC004F01CC005F0000E076E0A0E066E33
:1032EC0070EC1CF004C00AF005C00BF0ECEC1FF005
:1032FC000A50300FDF6E000E1F6E2006D8A021067C
:10330C001BC004F01CC005F0000E076E0A0E066E02
:10331C0051EC1BF004C01BF005C01CF024BE9FEF49
:10332C0019F0245008E12304D8A09FEF19F0A1EF65
:10333C0019F0C6EF19F01B501C10D8A4A8EF19F007
:10334C00AAEF19F065EF19F01F50D8A4B0EF19F0DF
:10335C00B2EF19F065EF19F021BEBDEF19F0215055
:10336C0008E12004D8A0BDEF19F0BFEF19F0C6EFAB
:10337C0019F05BB2C4EF19F0C6EF19F065EF19F054
:10338C002250D8B4CCEF19F0CEEF19F0D9EF19F0D8
:10339C002306D8A024060E0E2324D96E010E242059
:1033AC00DA6E22C0DFFF1AC012F00E0E2324136E49
:1033BC00010E2420146E20C015F021C016F070EC04
:1033CC001DF0120000016F357035766F7651D8A460
:1033DC00F2EF19F0F4EF19F0FEEF19F0000E6D6F2B
:1033EC00000E6E6F000E6F6F000E706F6BEF1AF0A9
:1033FC006DC071F06EC072F06FC073F070C074F07D
:10340C00200E0EEF1AF0D89074337333723371337D
:10341C00E82E09EF1AF07151756F6F8FFF0E6D1753
:10342C00FF0E6E17FF0E6F17000E7017960E765F5D
:10343C0076BF25EF1AF023EF1AF03BEF1AF0765116
:10344C00800A970FD8B02DEF1AF02FEF1AF031EF4A
:10345C001AF0F4EF19F0D89070336F336E336D337C
:10346C00763F31EF1AF053EF1AF01F0E766541EFED
:10347C001AF043EF1AF04BEF1AF0F4EF19F0D89062
:10348C006D376E376F37703776077651D8A451EF9A
:10349C001AF053EF1AF045EF1AF07551D8B459EFF2
:1034AC001AF05BEF1AF063EF1AF0701F6F1F6E1FAC
:1034BC006D6D000E6E236F2370236DC06DF06EC0AA
:1034CC006EF06FC06FF070C070F01200839C83942C
:1034DC0082968294859685927B9C7B947A967A943C
:1034EC007D967D920D0E086E2D0E076ED80EE82E71
:1034FC00FED7072EFCD7082EFAD7030E37EC1EF09A
:10350C00680E076EE40EE82EFED7072EFCD700D00F
:10351C00030E37EC1EF0050E076E260EE82EFED7B6
:10352C00072EFCD700D0030E37EC1EF0050E076EED
:10353C00260EE82EFED7072EFCD700D0020E37EC55
:10354C001EF0050E076E260EE82EFED7072EFCD7B2
:10355C0000D0000E056E2C0E3AEC20F0E40E00D0DC
:10356C0000D0E82EFCD700D000D0000E056E080E5F
:10357C003AEC20F0E40E00D000D0E82EFCD700D0BE
:10358C0000D0000E056E010E3AEC20F0680E076EAE
:10359C00E40EE82EFED7072EFCD700D0000E056EE9
:1035AC00060E3AEC20F0E40E00D000D0E82EFCD74A
:1035BC0000D000D0000E056E0C0E3AEC20F0E40E9C
:1035CC0000D000D0E82EFCD700D000D0120004A010
:1035DC00F2EF1AF0F4EF1AF0F7EF1AF07F80F8EF31
:1035EC001AF07F9004A2FDEF1AF0FFEF1AF002EF31
:1035FC001BF07F8203EF1BF07F9204A408EF1BF0FB
:10360C000AEF1BF00DEF1BF079840EEF1BF0799491
:10361C0004A613EF1BF015EF1BF018EF1BF07E8CBC
:10362C0019EF1BF07E9C04A81EEF1BF020EF1BF083
:10363C0023EF1BF0798824EF1BF0799804AA29EF6B
:10364C001BF02BEF1BF02EEF1BF0798A2FEF1BF0EA
:10365C00799A04AC34EF1BF036EF1BF039EF1BF00A
:10366C007E803AEF1BF07E9004AE3FEF1BF041EFF3
:10367C001BF044EF1BF07A8045EF1BF07A9005A00D
:10368C004AEF1BF04CEF1BF04FEF1BF07A8250EF20
:10369C001BF07A921200000E096E07BE5AEF1BF057
:1036AC0058EF1BF060EF1BF0066C071ED8B0072A12
:1036BC00010E096E05BE67EF1BF065EF1BF06DEF99
:1036CC001BF0046C051ED8B0052A010E091A000E59
:1036DC000B6E000E0A6E06500710D8B478EF1BF074
:1036EC007AEF1BF0A2EF1BF0010E086E82EF1BF0BD
:1036FC00D89006360736082A07AE87EF1BF089EFFD
:10370C001BF07EEF1BF0D8900A360B360650045C8B
:10371C0007500558D8A095EF1BF097EF1BF09CEFC6
:10372C001BF00650045E0750055A0A80D8900732E9
:10373C000632082E89EF1BF00950D8B4A8EF1BF005
:10374C00AAEF1BF0AEEF1BF00A6C0B1ED8B00B2AC5
:10375C000AC004F00BC005F012000001F805F911C5
:10376C00D8A4BBEF1BF0BDEF1BF0C3EF1BF0F6C0F2
:10377C0009F0F7C00AF01FEC1DF0050E0001F81956
:10378C00F911D8A4CCEF1BF0CEEF1BF0D3EF1BF04C
:10379C00010E056E0468EDEC1AF07CAED8EF1BF050
:1037AC00DAEF1BF012EF1CF00001F95107E1060EE5
:1037BC00F85DD8B0E4EF1BF0E6EF1BF0EEEF1BF07A
:1037CC00000E056E000E046EEDEC1AF000EF1CF00E
:1037DC00F95107E10C0EF85DD8B0F7EF1BF0F9EFDB
:1037EC001BF000EF1CF0000E056E000E046EEDECED
:1037FC001AF07C9E0001F95109E10D0EF85DD8A07C
:10380C000AEF1CF00CEF1CF012EF1CF0010E056E11
:10381C000468EDEC1AF07C9E12000650D8B419EF37
:10382C001CF01BEF1CF023EF1CF00650D8A421EF6A
:10383C001CF023EF1CF028EF1CF00450D3EC20F00C
:10384C006FEF1CF00650D96EDA6A0A0ED926DE50DC
:10385C00DE10D8B434EF1CF036EF1CF04FEF1CF038
:10386C000650D96EDA6A0A0ED9260650E16EE26A63
:10387C00030EE126DE50E65CE650800A0B6EDE504D
:10388C00800A0B58D8B04DEF1CF04FEF1CF06FEFC7
:10389C001CF00650D96EDA6A030ED926DECF07F07B
:1038AC00DDCF08F00650D96EDA6ADECF09F0DDCF35
:1038BC000AF007500924D96E08500A20DA6E04C0A9
:1038CC00DFFF0650D96EDA6A030ED926DE2A000E07
:1038DC00DD221200000E096E05BE79EF1CF077EFA9
:1038EC001CF07FEF1CF0046C051ED8B0052A010EED
:1038FC00096E07BE86EF1CF084EF1CF08AEF1CF0FB
:10390C00066C071ED8B0072A06500710D8B491EFE2
:10391C001CF093EF1CF0B7EF1CF0010E086E9BEF40
:10392C001CF0D89006360736082A07AEA0EF1CF01C
:10393C00A2EF1CF097EF1CF00650045C07500558E2
:10394C00D8A0ABEF1CF0ADEF1CF0B1EF1CF00650A3
:10395C00045E0750055AD89007320632082EA2EFA3
:10396C001CF00950D8B4BDEF1CF0BFEF1CF0C3EF36
:10397C001CF0046C051ED8B0052A04C004F005C068
:10398C0005F01200000E126E000E116E0E50D96E64
:10399C00DA6ADFCFF6FF0E0EF76E000EF86E080037
:1039AC00F5502A0AD8A4DDEF1CF0DFEF1CF005EF70
:1039BC001DF00E50D96EDA6ADF2A0F50D96EDA6A12
:1039CC00020EDF26DF5CD96EDA6ADECF11F0DECFB5
:1039DC0012F01AEF1DF011C008F012C009F0000E21
:1039EC000B6E0A0E0A6E63EC20F010500824116E58
:1039FC00000E0920126E0E50D96EDA6ADF2A0E50B4
:103A0C00D96EDA6ADFCFF6FF0E0EF76E000EF86E87
:103A1C000800F550D00F106E090E106418EF1DF051
:103A2C001AEF1DF0F1EF1CF011C00EF012C00FF0E8
:103A3C001200000E0C6E000E0B6E09C004F00AC0D2
:103A4C0005F0000E076E030E066E6BEC1EF00450B4
:103A5C000510D8A434EF1DF036EF1DF03AEF1DF031
:103A6C00000E0C6E490E0B6E09C004F00AC005F076
:103A7C00000E076E030E066E6BEC1EF004040510B0
:103A8C00D8A44BEF1DF04DEF1DF051EF1DF0000EC3
:103A9C000C6E920E0B6E09C004F00AC005F0000EFD
:103AAC00076E030E066E6BEC1EF0020E041805106A
:103ABC00D8A463EF1DF065EF1DF069EF1DF0010E4A
:103ACC000C6E240E0B6E0BC004F00CC005F0EDEC6C
:103ADC001AF012005BA075EF1DF077EF1DF07FEF71
:103AEC001DF013C00CF014C00DF012C00EF058EC09
:103AFC001FF016BE86EF1DF084EF1DF08AEF1DF04F
:103B0C00000E166E000E156E000E196E000E186E5D
:103B1C009AEF1DF0000E056E200E046E12C006F01A
:103B2C0013EC1CF0184A192A1550185C1950800A0D
:103B3C00176E1650800A1758D8A0A7EF1DF0A9EFE2
:103B4C001DF090EF1DF05BB0AEEF1DF0B0EF1DF06F
:103B5C00B8EF1DF013C00CF014C00DF012C00EF035
:103B6C0058EC1FF01200030E04180510D8A4C1EF76
:103B7C001DF0C3EF1DF0D8EF1DF006040710D8A4FC
:103B8C00CAEF1DF0CCEF1DF0D8EF1DF080B6D1EFD1
:103B9C001DF0D3EF1DF0D8EF1DF0000E076E020ED6
:103BAC00066E80860A0E04180510D8A4E0EF1DF0EE
:103BBC00E2EF1DF0F8EF1DF0020E06180710D8A466
:103BCC00EAEF1DF0ECEF1DF0F8EF1DF080A6F1EF21
:103BDC001DF0F3EF1DF0F8EF1DF0000E076E010E57
:103BEC00066E809606C004F007C005F01200000EA9
:103BFC00136E000E126E10501110D8B408EF1EF098
:103C0C000AEF1EF032EF1EF0010E146E12EF1EF0D2
:103C1C00D89010361136142A11AE17EF1EF019EF8A
:103C2C001EF00EEF1EF0D8901236133610500E5CAC
:103C3C0011500F58D8A025EF1EF027EF1EF02CEFD7
:103C4C001EF010500E5E11500F5A1280D890113287
:103C5C001032142E19EF1EF012C00EF013C00FF01C
:103C6C001200046E04A03DEF1EF03FEF1EF042EF79
:103C7C001EF07A8643EF1EF07A9604A248EF1EF0EF
:103C8C004AEF1EF04DEF1EF07A844EEF1EF07A9440
:103C9C0004A453EF1EF055EF1EF058EF1EF07D8676
:103CAC0059EF1EF07D9604A65EEF1EF060EF1EF03D
:103CBC0063EF1EF07D8264EF1EF07D92C6EC20F067
:103CCC00A00E00D0E82EFDD7120006500710D8B475
:103CDC0072EF1EF074EF1EF098EF1EF0010E086EDE
:103CEC007CEF1EF0D89006360736082A07AE81EF17
:103CFC001EF083EF1EF078EF1EF00650045C0750A8
:103D0C000558D8A08CEF1EF08EEF1EF092EF1EF02F
:103D1C000650045E0750055AD89007320632082E1A
:103D2C0083EF1EF004C004F005C005F012007E0EF7
:103D3C00F66E410EF76E000EF86E00EEF0F010EE1F
:103D4C000EF00900F5CFEEFFE550E150FAE1A40EBC
:103D5C00F66E410EF76E000EF86E0900F5CF59F0B5
:103D6C000900F5CF5AF001EE00F0380EEE6AE806C5
:103D7C00FDE100EEDCF0140EEE6AE806FDE15B6A94
:103D8C005C905C920001F1EF1EF0010E96EC1FF0BE
:103D9C002E0E346E010E356E410E366EF8C037F0B5
:103DAC00F9C038F0FAC039F0FBC03AF0F6C03BF07D
:103DBC00F7C03CF059C03DF05AC03EF0F2C03FF0A5
:103DCC00F3C040F078EC1FF02E0E076E010E086E5B
:103DDC0006EC20F012006CEC1AF050EC20F093EC96
:103DEC0020F076EC20F0B3EC1FF086EC20F0CDEC5C
:103DFC0020F033EC0EF0E3EC15F0B3EC1BF0CBEC55
:103E0C001EF0D00E0001DB6FC90EE82EFED7DB2FA3
:103E1C00FCD700D0FFEF1EF029EF00F0000E551A72
:103E2C00000E561A000E571A800E581A51C035F053
:103E3C0052C036F053C037F054C038F055C039F08A
:103E4C0056C03AF057C03BF058C03CF0BDEC09F0FE
:103E5C0035C051F036C052F037C053F038C054F072
:103E6C00120031C033F043EF1FF030C025F0330E99
:103E7C00266E32C027F06AEC18F033C0F6FF0E0E37
:103E8C00F76E000EF86E0800F5500009D8A451EF3B
:103E9C001FF053EF1FF03BEF1FF0000E316E000EC2
:103EAC00306E1200000E116E000E106E67EF1FF0D8
:103EBC000FC004F0056A0EC006F013EC1CF0104A9B
:103ECC00112A10500C24D96E11500D20DA6EDF50CF
:103EDC000F6E0F50D8A475EF1FF077EF1FF05EEF49
:103EEC001FF01200370E416E34C042F035C043F063
:103EFC00000E466E000E456E000E4D6E000E4C6EA2
:103F0C00420E306E36C031F0410E326E37EC1FF07F
:103F1C0045503424D96E46503520DA6EDF6A1200D3
:103F2C00076E0704D8A49DEF1FF09FEF1FF0A4EFBE
:103F3C001FF0000E056E800E3AEC20F0020E0718F2
:103F4C00D8A4ABEF1FF0ADEF1FF0B2EF1FF0000ED7
:103F5C00056EC00E3AEC20F0120087908792819487
:103F6C00869C8198819A8690829082927F907F9293
:103F7C0079947E9C7998799A7E907A907A920E01B7
:103F8C00BC91BC939295B49D9299929BB4919A9149
:103F9C009A9312005550561057105810D8B4D9EFA8
:103FAC001FF0DBEF1FF0E3EF1FF0000E551A000EB1
:103FBC00561A000E571A800E581A55C055F056C096
:103FCC0056F057C057F058C058F012000BBEF1EF26
:103FDC001FF0F3EF1FF0F9EF1FF00AC00AF00BC04F
:103FEC000BF005EF20F00AC00CF00BC00DF00C1E0E
:103FFC000D1E0C4A0D2A0CC00AF00DC00BF012005D
:10400C0013EF20F0010E056E07C0D9FF08C0DAFFD0
:10401C00DF503AEC20F0074A082A07C0D9FF08C045
:10402C00DAFFDF50D8A41DEF20F01FEF20F008EFCF
:10403C0020F012000AC108F00BC109F00CC10AF003
:10404C000DC10BF004C008F005C009F006C00AF061
:10405C0007C00BF00B9E08C004F009C005F00AC0A5
:10406C0006F00BC007F01200066E05B002D07B9C68
:10407C0001D07B8C06380F0B37EC1EF0A00E00D055
:10408C00E82EFDD7065037EC1EF0A00E00D0E82E1F
:10409C00FDD71200868E0E01D251F80B0309D26F98
:1040AC00D351F80B0509D36FD083D089D183D1813B
:1040BC00ACEC20F00E01D08F120008500A02F3CFA6
:1040CC000CF0F4CF0DF008500B02F3500D260950F4
:1040DC000A02F3500D260CC008F00DC009F01200B6
:1040EC00D6501F0B4009D66ED688D650F00B080957
:1040FC00D66ED5880B0ED46EDB0ED36ED58E120019
:10410C000E01298B2B8121811F9BF28AF28EF28C5E
:10411C00849E7C9E84987C98120081860E019287E6
:10412C000F015899FC0E5817030E5F6F609460884E
:10413C00608E12000E0135A1A6EF20F0A8EF20F042
:10414C00AAEF20F07C8E35915C921100F30E0E01DB
:10415C00C617C691C751E00B1B09C76FC68F12005B
:10416C00D350D4CF06F0076A06C004F007C005F0A0
:10417C0012008201E80706000A00110037001E0039
:10418C007B841A0EE82EFED700D07B941200808020
:0C419C00889080968896120003001200A4
:020000040030CA
:02000000AAFF55
:020004009FFF5C
:00000001FF
