:0400000029EF00F0F4
:060008005C82ADEF20F068
:100018005C80D8CF01F0E8CF02F0E0CF03F00E010A
:1000280033AB19EF00F01BEF00F021EF00F00B0EDF
:10003800D46EDB0ED36E7C88339B03C0E0FF02C016
:0E004800E8FF01C0D8FF5C901000AAEF1EF088
:100E0000003C6C3636CF0750B98488083CABAA2A20
:100E1000BEA3858832DA0FC93F83F9223F00000064
:100E20003F179ACC373F04B6BA9FAA2A3D0000006C
:100E3000BFDB0FC940E4CB9640DB0F4940DB0FC955
:100E40003F253032643A2530326420253032642F19
:100E5000253032642F2530346400253032643A2541
:0F0E60003032643A253032642C25303264000081
:100E7000A5C0BDF0A6C0BEF0A7C0BFF0A8C0C0F01E
:100E80000001C0BF46EF07F049EF07F0010E4AEF3F
:100E900007F0000EB46FC09FDB0EBD5D0F0EBE5994
:100EA000490EBF593F0EC059D8B059EF07F05BEF5C
:100EB00007F084EF07F0800EBF5D390EC059D8B03F
:100EC00064EF07F066EF07F070EF07F0A5C0A5F03C
:100ED000A6C0A6F0A7C0A7F0A8C0A8F0C6EF09F06A
:100EE000A5C051F0A6C052F0A7C053F0A8C054F05E
:100EF000F6EC13F051C0A5F052C0A6F053C0A7F015
:100F000054C0A8F0C6EF09F0D20EBD5D530EBE5915
:100F10007B0EBF59400EC059D8B091EF07F093EF48
:100F200007F076EF08F0E40EBD5DCB0EBE59160E4D
:100F3000BF59400EC059D8B0A0EF07F0A2EF07F09C
:100F400010EF08F0B451D8B4A8EF07F0AAEF07F0FB
:100F5000E2EF07F0DB0E396E0F0E3A6EC90E3B6EF4
:100F60003F0E3C6EA5C035F0A6C036F0A7C037F0E6
:100F7000A8C038F0C7EC09F035C0B5F036C0B6F0FF
:100F800037C0B7F038C0B8F0B5C051F0B6C052F0B5
:100F9000B7C053F0B8C054F00FEC15F051C055F085
:100FA00052C056F053C057F054C058F0DDEC1FF05B
:100FB00055C0A5F056C0A6F057C0A7F058C0A8F07D
:100FC000C6EF09F0A5C035F0A6C036F0A7C037F0CF
:100FD000A8C038F0DB0E396E0F0E3A6EC90E3B6EAC
:100FE000BF0E3C6EC7EC09F035C0B5F036C0B6F0A8
:100FF00037C0B7F038C0B8F0B5C051F0B6C052F045
:10100000B7C053F0B8C054F00FEC15F051C0A5F0C4
:1010100052C0A6F053C0A7F054C0A8F0C6EF09F024
:10102000B451D8A416EF08F018EF08F03EEF08F01E
:10103000DB0E396E0F0E3A6E490E3B6EC00E3C6EE3
:10104000A5C035F0A6C036F0A7C037F0A8C038F06C
:10105000C7EC09F035C055F036C056F037C057F030
:1010600038C058F0DDEC1FF055C0ABF056C0ACF006
:1010700057C0ADF058C0AEF062EF08F0DB0E396E2D
:101080000F0E3A6E490E3B6E400E3C6EA5C035F019
:10109000A6C036F0A7C037F0A8C038F0C7EC09F0FA
:1010A00035C055F036C056F037C057F038C058F04C
:1010B000DDEC1FF055C0ABF056C0ACF057C0ADF042
:1010C00058C0AEF0ABC051F0ACC052F0ADC053F060
:1010D000AEC054F0F6EC13F051C0A5F052C0A6F02B
:1010E00053C0A7F054C0A8F0C6EF09F0D60EBD5DFE
:1010F000310EBE59E20EBF59400EC059D8B083EF31
:1011000008F085EF08F026EF09F0E00EBD5DED0E6A
:10111000BE59AF0EBF59400EC059D8B092EF08F07B
:1011200094EF08F0D4EF08F0B451D8B49AEF08F077
:101130009CEF08F0B8EF08F0A5C035F0A6C036F077
:10114000A7C037F0A8C038F0E40E396ECB0E3A6E67
:10115000960E3B6E400E3C6EC7EC09F035C0B5F004
:1011600036C0B6F037C0B7F038C0B8F0FCEF07F0C3
:10117000E40E396ECB0E3A6E960E3B6EC00E3C6E90
:10118000A5C035F0A6C036F0A7C037F0A8C038F02B
:10119000C7EC09F035C0B5F036C0B6F037C0B7F0CF
:1011A00038C0B8F0C4EF07F0B451D8A4DAEF08F0B3
:1011B000DCEF08F0F8EF08F0A5C035F0A6C036F077
:1011C000A7C037F0A8C038F0DB0E396E0F0E3A6EAC
:1011D000C90E3B6EC00E3C6EC7EC09F035C0AFF0D7
:1011E00036C0B0F037C0B1F038C0B2F012EF09F03D
:1011F000A5C035F0A6C036F0A7C037F0A8C038F0BB
:10120000DB0E396E0F0E3A6EC90E3B6E400E3C6E11
:10121000C7EC09F035C0AFF036C0B0F037C0B1F060
:1012200038C0B2F0AFC051F0B0C052F0B1C053F00E
:10123000B2C054F0F6EC13F051C0A5F052C0A6F0C5
:1012400053C0A7F054C0A8F0C6EF09F0800EBF5DF0
:101250007F0EC059D8A02FEF09F031EF09F043EF0E
:1012600009F0FF0EBD13FF0EBE13FF0EBF13000EDD
:10127000C013BDC0A5F0BEC0A6F0BFC0A7F0C0C0DF
:10128000A8F0C6EF09F0A5C085F0A6C086F0A7C0FB
:1012900087F0A8C088F0B90E896F48EC10F0000103
:1012A0008551030BB36FADEF09F0B9C055F0BAC06B
:1012B00056F0BBC057F0BCC058F0DDEC1FF055C075
:1012C000B9F056C0BAF057C0BBF058C0BCF0B9C0B6
:1012D00051F0BAC052F0BBC053F0BCC054F0F6ECB1
:1012E00013F051C0A5F052C0A6F053C0A7F054C0EF
:1012F000A8F0C6EF09F0B9C051F0BAC052F0BBC0B7
:1013000053F0BCC054F00FEC15F051C0A5F052C022
:10131000A6F053C0A7F054C0A8F0C6EF09F0B9C0BA
:1013200051F0BAC052F0BBC053F0BCC054F00FEC47
:1013300015F051C055F052C056F053C057F054C08C
:1013400058F0DDEC1FF055C0A5F056C0A6F057C010
:10135000A7F058C0A8F0C6EF09F0B351A96FAA6B67
:10136000AA51000AD8B4B7EF09F08FEF09F0A951DC
:10137000000AD8B467EF09F0010AD8B47BEF09F08E
:10138000030AD8B455EF09F08FEF09F01200385076
:10139000800B416E38503824436E37AED2EF09F0DF
:1013A000D4EF09F0D5EF09F043804350D8B4DBEF18
:1013B00009F0DDEF09F0F2EF09F04328D8A4E3EFDC
:1013C00009F0E5EF09F0EDEF09F0000E356E000EC3
:1013D000366E000E376E000E386E378E000E386E89
:1013E000FAEF09F0000E356E000E366E000E376E05
:1013F000000E386E3C50800B426E41504218D8B4FB
:1014000004EF0AF006EF0AF007EF0AF0418C3C50B7
:101410003C24426E3BAE0FEF0AF011EF0AF012EFE0
:101420000AF042804250D8B418EF0AF01AEF0AF0DE
:101430002FEF0AF04228D8A420EF0AF022EF0AF09A
:101440002AEF0AF0000E396E000E3A6E000E3B6E67
:10145000000E3C6E3B8E000E3C6E37EF0AF0000E25
:10146000396E000E3A6E000E3B6E000E3C6E43501D
:10147000425CD8B03EEF0AF040EF0AF067EF0AF0A6
:1014800041AC45EF0AF047EF0AF049EF0AF0800E51
:10149000411A43C044F042C043F044C042F035C05A
:1014A00044F039C035F044C039F036C044F03AC099
:1014B00036F044C03AF037C044F03BC037F044C087
:1014C0003BF038C044F03CC038F044C03CF0000E63
:1014D000446E435042C03DF03E6A3D5E000E3E5AAF
:1014E0003EBE7CEF0AF03E5009E11A0E3D5CD8A0EA
:1014F0007CEF0AF07EEF0AF0B5EF0AF035503610B7
:1015000037103810D8A487EF0AF08AEF0AF0010EDE
:101510008BEF0AF0000E446E000E356E000E366E34
:10152000000E376E000E386E42C043F0BEEF0AF078
:1015300044A09DEF0AF09FEF0AF0A5EF0AF0D890C3
:1015400044300109446EA7EF0AF0D890443235A028
:10155000ACEF0AF0AEEF0AF0AFEF0AF0448E383489
:101560003832373236323532432A4250435CD8A0C3
:10157000BCEF0AF0BEEF0AF098EF0AF041BCC3EFEF
:101580000AF0C5EF0AF005EF0BF04350D8A4CBEFFB
:101590000AF0CDEF0AF0D7EF0AF0000E356E000E1C
:1015A000366E000E376E000E386E26EF0CF0395096
:1015B00035263A5036223B5037223C50382238A04C
:1015C000E4EF0AF0E6EF0AF092EF0BF044A0EBEF45
:1015D0000AF0EDEF0AF0F3EF0AF0D8904430010979
:1015E000446EF5EF0AF0D890443235A0FAEF0AF0D5
:1015F000FCEF0AF0FDEF0AF0448E3834383237320F
:1016000036323532432A92EF0BF03950355C3A507E
:1016100036583B5037583850800A3D6E3C50800A4F
:101620003D58D8B016EF0BF018EF0BF043EF0BF06E
:101630003550395C3D6E36503A583E6E37503B5807
:101640003F6E38503C58406EFF0E3D24356EFF0E05
:101650003E20366EFF0E3F20376EFF0E4020386E64
:10166000800E411A446C4450D8A439EF0BF03BEF84
:101670000BF04BEF0BF0010E3526000E3622372211
:1016800038224BEF0BF03950355E3A50365A3B500A
:10169000375A3C50385A3550361037103810D8A4C5
:1016A00054EF0BF056EF0BF08BEF0BF04450D8A437
:1016B0005CEF0BF05EEF0BF08BEF0BF0000E356E76
:1016C000000E366E000E376E000E386E26EF0CF0F0
:1016D000D890353636363736383644AE72EF0BF0A2
:1016E00074EF0BF075EF0BF0358044A07AEF0BF040
:1016F0007CEF0BF080EF0BF0D880443682EF0BF0DC
:10170000D89044364350D8B488EF0BF08AEF0BF0F2
:101710008BEF0BF0430637AE90EF0BF092EF0BF030
:1017200068EF0BF0000E426E44AE99EF0BF09BEFAA
:101730000BF0B3EF0BF044C03DF07F0E3D16D8B474
:10174000A4EF0BF0A6EF0BF0AAEF0BF0010E426E28
:10175000B3EF0BF035A0AFEF0BF0B1EF0BF0B3EF41
:101760000BF0A6EF0BF04250D8B4B9EF0BF0BBEF83
:101770000BF0E6EF0BF0010E3526000E3622372275
:10178000382238A0C6EF0BF0C8EF0BF0E6EF0BF0F5
:1017900035C03DF036C03EF037C03FF038C040F0B5
:1017A000403440323F323E323D323DC035F03EC0E3
:1017B00036F03FC037F040C038F04328D8B4E3EFEC
:1017C0000BF0E5EF0BF0E6EF0BF0432A4328D8B41B
:1017D000ECEF0BF0EEEF0BF0F6EF0BF04350D8A46C
:1017E000F4EF0BF0F6EF0BF008EF0CF0000E356E97
:1017F000000E366E000E376E000E386E4350D8A4C1
:1018000004EF0CF006EF0CF008EF0CF0000E416E48
:1018100043A00DEF0CF00FEF0CF012EF0CF0378E31
:1018200013EF0CF0379ED8904330386E41AE1BEF6B
:101830000CF01DEF0CF01EEF0CF0388E35C035F0BB
:1018400036C036F037C037F038C038F01200485094
:10185000800B0001606F48504824666F47AE33EF3D
:101860000CF035EF0CF036EF0CF066816651D8B411
:101870003CEF0CF03EEF0CF051EF0CF06629D8A4D1
:1018800044EF0CF046EF0CF04EEF0CF0000E456EFE
:10189000000E466E000E476E000E486E478E59EFE2
:1018A0000CF0000E456E000E466E000E476E000EE8
:1018B000486E4C50800B601B4C504C24656F4BAEF7
:1018C00064EF0CF066EF0CF067EF0CF0658165518A
:1018D000D8B46DEF0CF06FEF0CF082EF0CF06529CF
:1018E000D8A475EF0CF077EF0CF07FEF0CF0000E42
:1018F000496E000E4A6E000E4B6E000E4C6E4B8E03
:101900008AEF0CF0000E496E000E4A6E000E4B6E10
:10191000000E4C6E6551D8B490EF0CF092EF0CF0C5
:101920009AEF0CF06651D8A498EF0CF09AEF0CF0F7
:10193000A4EF0CF0000E456E000E466E000E476ED2
:10194000000E486E3CEF0EF04B504502F3CF6BF0AB
:10195000F4CF6CF06B51616F626B636B646B6C51B5
:10196000676F686B696B6A6B4A504602F3CF6BF026
:10197000F4CF6CF06B516127000E62236323642364
:101980006C516727000E682369236A234950470278
:10199000F3CF6BF0F4CF6CF06B516127000E622334
:1019A000632364236C516727000E682369236A232D
:1019B00063C064F062C063F061C062F0616B495063
:1019C0004602F3CF6BF0F4CF6CF06B5161276C5192
:1019D0006223000E6323000E64234A504502F3CFB6
:1019E0006BF0F4CF6CF06B5161276C516223000EE9
:1019F0006323000E642363C064F062C063F061C0BF
:101A000062F0616B49504502F3CF6BF0F4CF6CF09C
:101A10006B5161276C516223000E6323000E642317
:101A20004B504602F3CF6BF0F4CF6CF06B5167274D
:101A30006C516823000E6923000E6A234A50470246
:101A4000F3CF6BF0F4CF6CF06B5167276C516823C8
:101A5000000E6923000E6A234B504702F3CF6BF050
:101A6000F4CF6CF06B514D6E6C514E6E4F6A506AF4
:101A70004FC050F04EC04FF04DC04EF04D6A4D502B
:101A800067274E5068234F50692350506A2361C026
:101A90004DF062C04EF063C04FF064C050F0190EBC
:101AA00057EF0DF0D89050324F324E324D32E82E73
:101AB00052EF0DF04D5067274E5068234F50692369
:101AC00050506A2363C064F062C063F061C062F08A
:101AD000616B655166C04DF04E6A4D26000E4E2278
:101AE000820E4D246B6FFF0E4E206C6F8DEF0DF04C
:101AF000D8906737683769376A3764AF82EF0DF07F
:101B000084EF0DF085EF0DF06781D8906137623773
:101B1000633764376B07D8A06C0769AF92EF0DF09D
:101B200094EF0DF078EF0DF0000E656F64AF9BEF52
:101B30000DF09DEF0DF0C1EF0DF0FF0E61154D6E34
:101B4000FF0E62154E6EFF0E63154F6E7F0E64150D
:101B5000506E4D504E104F105010D8B4B2EF0DF0E3
:101B6000B4EF0DF0B8EF0DF0010E656FC1EF0DF0A1
:101B700067A1BDEF0DF0BFEF0DF0C1EF0DF0B4EFB9
:101B80000DF06551D8B4C7EF0DF0C9EF0DF0EDEFD2
:101B90000DF0010E6727000E682369236A236AA1EE
:101BA000D4EF0DF0D6EF0DF0EDEF0DF067C04DF076
:101BB00068C04EF069C04FF06AC050F050345032E7
:101BC0004F324E324D324DC067F04EC068F04FC0BC
:101BD00069F050C06AF06B4B6C2B6CBFF8EF0DF0E6
:101BE0006C5108E16B29D8A0F8EF0DF0FAEF0DF079
:101BF00004EF0EF0000E676F000E686F800E696FC5
:101C00007F0E6A6F32EF0EF06CBF11EF0EF06C5169
:101C100006E16B05D8B00FEF0EF011EF0EF01DEFDF
:101C20000EF0000E676F000E686F000E696F000EF9
:101C30006A6F000E606F32EF0EF06BC066F0FF0E41
:101C40006717FF0E68177F0E6917000E6A1766A1E7
:101C50002CEF0EF02EEF0EF02FEF0EF0698FD890D4
:101C600066316A6F60516A1367C045F068C046F01C
:101C700069C047F06AC048F012007CAE42EF0EF037
:101C800044EF0EF047EF10F00001F95107E10C0EA0
:101C9000F85DD8B04EEF0EF050EF0EF061EF0EF0A1
:101CA000F8C008F0F9C009F0000E0B6E3C0E0A6E89
:101CB00070EC20F00001FA510824F06FFB5109206C
:101CC000F16FF95109E10D0EF85DD8A06AEF0EF041
:101CD0006CEF0EF026EF10F0F8C008F0F9C009F034
:101CE000000E0B6E3C0E0A6E70EC20F00001FA51F3
:101CF0000824EA6FFB510920EB6FDB0E496E0F0ED3
:101D00004A6E490E4B6E400E4C6E660E396E660E74
:101D10003A6E9D0E3B6E420E3C6E000E206E800EA3
:101D2000216EB60E226E430E236E010E0B6E680EF0
:101D30000A6EAF0EF625086EFF0EF721096E70ECE5
:101D400020F008C00EF009C00FF0106A116A000EF2
:101D5000F4EC16F00EC01CF00FC01DF010C01EF009
:101D600011C01FF029EC12F01CC035F01DC036F078
:101D70001EC037F01FC038F0C7EC09F035C045F081
:101D800036C046F037C047F038C048F027EC0CF0BA
:101D900045C0C5F046C0C6F047C0C7F048C0C8F04F
:101DA000000E206E000E216E340E226E430E236E46
:101DB000C5C01CF0C6C01DF0C7C01EF0C8C01FF0D3
:101DC00029EC12F01CC0A5F01DC0A6F01EC0A7F0A3
:101DD0001FC0A8F038EC07F0A5C0C9F0A6C0CAF033
:101DE000A7C0CBF0A8C0CCF0DB0E496E0F0E4A6E38
:101DF000490E4B6E400E4C6E000E206E800E216E12
:101E0000B60E226E430E236EAF0E0001F625086E4D
:101E1000FF0EF721096E010E0B6E680E0A6E70EC54
:101E200020F008C00EF009C00FF0106A116A000E11
:101E3000F4EC16F00EC01CF00FC01DF010C01EF028
:101E400011C01FF029EC12F01CC045F01DC046F077
:101E50001EC047F01FC048F027EC0CF045C0CDF085
:101E600046C0CEF047C0CFF048C0D0F0000E496E5B
:101E7000000E4A6E000E4B6E400E4C6E000E206E31
:101E8000000E216E340E226E430E236ECDC01CF068
:101E9000CEC01DF0CFC01EF0D0C01FF029EC12F054
:101EA0001CC045F01DC046F01EC047F01FC048F0E2
:101EB00027EC0CF045C0D1F046C0D2F047C0D3F0BB
:101EC00048C0D4F0D1C0A5F0D2C0A6F0D3C0A7F0CE
:101ED000D4C0A8F038EC07F0A5C0D5F0A6C0D6F065
:101EE000A7C0D7F0A8C0D8F0A40E496E700E4A6EF5
:101EF000F50E4B6E400E4C6EC9C045F0CAC046F0A0
:101F0000CBC047F0CCC048F027EC0CF045C055F0F2
:101F100046C056F047C057F048C058F0850E496E8D
:101F2000EB0E4A6E1D0E4B6E410E4C6ED5C045F049
:101F3000D6C046F0D7C047F0D8C048F027EC0CF028
:101F400045C051F046C052F047C053F048C054F06D
:101F500021EC1FF051C06DF052C06EF053C06FF015
:101F600054C070F013EC1AF06DC0E4F06EC0E5F0F0
:101F700080A6BDEF0FF0BFEF0FF0C8EF0FF000012C
:101F8000E451D108E66FE551D8A0E82A0208E76FCE
:101F900080B6CDEF0FF0CFEF0FF0D8EF0FF00001CC
:101FA000E451D008E66FE551D8A0E82A0208E76FAF
:101FB0000001F051EA5DC16FF151EB59C26FD89049
:101FC000C231C36FC131E86FC3C0E9F0E851E62503
:101FD0000E6EE951E7210F6E000E116E3C0E106E71
:101FE0000AEC1EF00EC0F8F00FC0F9F00001E85145
:101FF000E625046EE951E721056E000E076E3C0EE2
:10200000066E78EC1EF004C0FAF005C0FBF0000E7E
:10201000076E3C0E066E0001E851E625046EE9519C
:10202000E721056E78EC1EF004C0D9F005C0DAF0A7
:10203000D9C004F0DAC005F0000E076E3C0E066E43
:1020400078EC1EF004C0FCF005C0FDF0010EC0EC01
:102050001FF0240E346E010E356E5A0E366EF8C027
:1020600037F0F9C038F0FAC039F0FBC03AF0FCC0E4
:102070003BF0FDC03CF0E8C03DF0E9C03EF085EC2F
:102080001FF0240E076E010E086E2DEC20F01200DA
:10209000DCC095F0DDC096F0DEC097F0DFC098F0B0
:1020A00085C095F086C096F087C097F088C098F0FC
:1020B000000198BF5EEF10F061EF10F0010E62EFCB
:1020C00010F0000E946F989FDB0E955D0F0E9659E1
:1020D000C90E97594D0E9859D8B071EF10F073EFA3
:1020E00010F05FEF11F085C004F086C005F087C0E6
:1020F00006F088C007F013EC20F004C09DF005C086
:102100009EF006C09FF007C0A0F0000E396E000ED2
:102110003A6E000E3B6E3F0E3C6E830E496EF90E1A
:102120004A6E220E4B6E3F0E4C6E9DC045F09EC017
:1021300046F09FC047F0A0C048F027EC0CF045C027
:1021400035F046C036F047C037F048C038F0C7EC2D
:1021500009F035C06DF036C06EF037C06FF038C092
:1021600070F013EC1AF06DC0A1F06EC0A2F06FC059
:10217000A3F070C0A4F0A1C00EF0A2C00FF0A3C0E5
:1021800010F0A4C011F0010EF4EC16F00EC099F09E
:102190000FC09AF010C09BF011C09CF0DA0E496E8F
:1021A0000F0E4A6EC90E4B6E3F0E4C6E99C045F035
:1021B0009AC046F09BC047F09CC048F027EC0CF05A
:1021C00045C055F046C056F047C057F048C058F0DB
:1021D0009DC051F09EC052F09FC053F0A0C054F07B
:1021E00021EC1FF051C090F052C091F053C092F01A
:1021F00054C093F090C051F091C052F092C053F08F
:1022000093C054F0A30E496E850E4A6E880E4B6E35
:10221000320E4C6E99C045F09AC046F09BC047F014
:102220009CC048F027EC0CF045C055F046C056F075
:1022300047C057F048C058F021EC1FF00001895109
:10224000D96EDA6A51C0DEFF52C0DEFF53C0DEFF36
:1022500054C0DEFF9451D8B430EF11F032EF11F0DA
:1022600059EF11F08951D96EDA6ADECF55F0DECF21
:1022700056F0DECF57F0DECF58F0DDEC1FF0000156
:102280008951D96EDA6A55C0DEFF56C0DEFF57C0ED
:10229000DEFF58C0DEFFA1C08AF0A2C08BF08A1F0B
:1022A0008B1F8A4B8B2B8AC085F08BC086F028EF62
:1022B00012F0A1C085F0A2C086F028EF12F085C010
:1022C00004F086C005F087C006F088C007F013EC64
:1022D00020F004C09DF005C09EF006C09FF007C02E
:1022E000A0F0000E396E000E3A6E000E3B6E3F0EEF
:1022F0003C6E830E496EF90E4A6E220E4B6E3F0EF7
:102300004C6E9DC045F09EC046F09FC047F0A0C0F7
:1023100048F027EC0CF045C035F046C036F047C019
:1023200037F048C038F0C7EC09F035C06DF036C062
:102330006EF037C06FF038C070F013EC1AF06DC05B
:10234000A1F06EC0A2F06FC0A3F070C0A4F0A1C055
:102350000EF0A2C00FF0A3C010F0A4C011F0010E47
:10236000F4EC16F00EC099F00FC09AF010C09BF07C
:1023700011C09CF0DA0E496E0F0E4A6EC90E4B6EFC
:102380003F0E4C6E99C045F09AC046F09BC047F096
:102390009CC048F027EC0CF045C055F046C056F004
:1023A00047C057F048C058F09DC051F09EC052F051
:1023B0009FC053F0A0C054F021EC1FF051C090F02A
:1023C00052C091F053C092F054C093F090C051F0BD
:1023D00091C052F092C053F093C054F0A30E496ED6
:1023E000850E4A6E880E4B6E320E4C6E99C045F0CB
:1023F0009AC046F09BC047F09CC048F027EC0CF018
:1024000045C055F046C056F047C057F048C058F098
:1024100021EC1FF051C08CF052C08DF053C08EF0F3
:1024200054C08FF000018951D96EDA6A8CC0DEFF8A
:102430008DC0DEFF8EC0DEFF8FC0DEFF9451D8B4AA
:1024400024EF12F026EF12F059EF11F032EF11F0F5
:1024500012001F50800B2C6E1F501F24336E1EAEB7
:1024600034EF12F036EF12F037EF12F033803350C2
:10247000D8B43DEF12F03FEF12F054EF12F03328D2
:10248000D8A445EF12F047EF12F04FEF12F0000E14
:102490001C6E000E1D6E000E1E6E000E1F6E1E8E38
:1024A000000E1F6E5CEF12F0000E1C6E000E1D6E13
:1024B000000E1E6E000E1F6E2350800B2C1A235030
:1024C0002324346E22AE67EF12F069EF12F06AEF48
:1024D00012F034803450D8B470EF12F072EF12F072
:1024E00087EF12F03428D8A478EF12F07AEF12F0C8
:1024F00082EF12F0000E206E000E216E000E226E92
:10250000000E236E228E000E236E8FEF12F0000E4F
:10251000206E000E216E000E226E000E236E2050E3
:10252000211022102310D8A498EF12F09AEF12F085
:10253000B2EF12F0000E1C6E000E1D6E000E1E6E2D
:10254000000E1F6E800E1E127F0E1F122C501F12C7
:102550001CC01CF01DC01DF01EC01EF01FC01FF0CF
:10256000F5EF13F03350D8A4B8EF12F0BAEF12F031
:10257000C4EF12F0000E1C6E000E1D6E000E1E6EDB
:10258000000E1F6EF5EF13F0345033C024F0256AAF
:10259000245E000E255A7F0E24242D6E000E252069
:1025A0002E6E1CC028F01DC029F01EC02AF01FC0CE
:1025B0002BF0000E1C6E000E1D6E000E1E6E000E27
:1025C0001F6E000E2F6E000E306E000E316E000E6C
:1025D000326E000E346E25EF13F03450D8B4F3EFA2
:1025E00012F0F5EF12F00CEF13F0D89028362936E0
:1025F0002A362B36D8901C361D361E361F3632AE84
:1026000004EF13F006EF13F007EF13F01C80D890DF
:102610002F363036313632362050285C215029583A
:1026200022502A5823502B58D8A019EF13F01BEF33
:1026300013F024EF13F0328C2050285E2150295AD9
:1026400022502A5A23502B5A342A190E34642BEF65
:1026500013F02DEF13F0EDEF12F0285029102A108F
:102660002B10D8B436EF13F038EF13F050EF13F00F
:102670002F8050EF13F0D8901C361D361E361F36B3
:1026800032AE45EF13F047EF13F048EF13F01C8024
:10269000D8902F363036313632362D06D8A02E0659
:1026A0001EAE55EF13F057EF13F03BEF13F0000E93
:1026B000346E32AE5EEF13F060EF13F084EF13F080
:1026C000FF0E2F14246EFF0E3014256EFF0E3114F2
:1026D000266E7F0E3214276E2450251026102710E8
:1026E000D8B475EF13F077EF13F07BEF13F0010E12
:1026F000346E84EF13F01CA080EF13F082EF13F020
:1027000084EF13F077EF13F03450D8B48AEF13F05E
:102710008CEF13F0B0EF13F0010E1C26000E1D22FB
:102720001E221F221FA097EF13F099EF13F0B0EFB6
:1027300013F01CC024F01DC025F01EC026F01FC0E1
:1027400027F02734273226322532243224C01CF0C9
:1027500025C01DF026C01EF027C01FF02D4A2E2ACE
:102760002EBEBBEF13F02E5008E12D28D8A0BBEFF2
:1027700013F0BDEF13F0C8EF13F0000E2E6E2D68AE
:10278000000E1C6E000E1D6E000E1E6E000E1F6EE3
:102790002EBED5EF13F02E5006E12D04D8B0D3EFA6
:1027A00013F0D5EF13F0E3EF13F0000E2E6E000ED2
:1027B0002D6E000E1C6E000E1D6E000E1E6E000EA5
:1027C0001F6E000E2C6E2DC033F033A0EAEF13F015
:1027D000ECEF13F0EFEF13F01E8EF0EF13F01E9EF0
:1027E000D89033301F6EA6EF12F0120051C045F0A2
:1027F00052C046F053C047F054C048F051C049F0B1
:1028000052C04AF053C04BF054C04CF027EC0CF0CF
:1028100045C085F046C086F047C087F048C088F0C4
:1028200085C045F086C046F087C047F088C048F0B4
:1028300085C049F086C04AF087C04BF088C04CF094
:1028400027EC0CF045C071F046C072F047C073F041
:1028500048C074F03C0E496E6C0E4A6E360E4B6EDC
:10286000360E4C6E85C045F086C046F087C047F0F6
:1028700088C048F027EC0CF045C035F046C036F073
:1028800047C037F048C038F0CF0E396E070E3A6EA9
:10289000500E3B6EB90E3C6EC7EC09F035C06DF0C2
:1028A00036C06EF037C06FF038C070F085C045F0AC
:1028B00086C046F087C047F088C048F051C049F054
:1028C00052C04AF053C04BF054C04CF027EC0CF00F
:1028D00045C081F046C082F047C083F048C084F014
:1028E000AB0E396EAA0E3A6E2A0E3B6EBE0E3C6ED1
:1028F000840E496E880E4A6E080E4B6E3C0E4C6E6E
:1029000085C045F086C046F087C047F088C048F0D3
:1029100027EC0CF045C035F046C036F047C037F024
:1029200048C038F0C7EC09F035C075F036C076F015
:1029300037C077F038C078F071C049F072C04AF003
:1029400073C04BF074C04CF081C045F082C046F0BB
:1029500083C047F084C048F027EC0CF045C079F004
:1029600046C07AF047C07BF048C07CF051C039F0D7
:1029700052C03AF053C03BF054C03CF081C049F023
:1029800082C04AF083C04BF084C04CF075C045F063
:1029900076C046F077C047F078C048F027EC0CF0DE
:1029A00045C035F046C036F047C037F048C038F073
:1029B000C7EC09F035C07DF036C07EF037C07FF03F
:1029C00038C080F07DC035F07EC036F07FC037F073
:1029D00080C038F06DC049F06EC04AF06FC04BF057
:1029E00070C04CF079C045F07AC046F07BC047F02B
:1029F0007CC048F027EC0CF045C039F046C03AF0F6
:102A000047C03BF048C03CF0C7EC09F035C051F07E
:102A100036C052F037C053F038C054F0120051C0E5
:102A200045F052C046F053C047F054C048F051C082
:102A300049F052C04AF053C04BF054C04CF027EC60
:102A40000CF045C081F046C082F047C083F048C01A
:102A500084F081C045F082C046F083C047F084C056
:102A600048F081C049F082C04AF083C04BF084C076
:102A70004CF027EC0CF045C07DF046C07EF047C01E
:102A80007FF048C080F0170E496E9A0E4A6ECC0E49
:102A90004B6E370E4C6E81C045F082C046F083C04D
:102AA00047F084C048F027EC0CF045C035F046C034
:102AB00036F047C037F048C038F03F0E396E040E8C
:102AC0003A6EB60E3B6EBA0E3C6EC7EC09F035C0DE
:102AD0006DF036C06EF037C06FF038C070F0000E89
:102AE000396E000E3A6E800E3B6E3F0E3C6E000E4D
:102AF000496E000E4A6E000E4B6EBF0E4C6E81C0CA
:102B000045F082C046F083C047F084C048F027EC0F
:102B10000CF045C035F046C036F047C037F048C02D
:102B200038F0C7EC09F035C071F036C072F037C02C
:102B300073F038C074F081C049F082C04AF083C09D
:102B40004BF084C04CF07DC045F07EC046F07FC0A5
:102B500047F080C048F027EC0CF045C075F046C047
:102B600076F047C077F048C078F09F0E496EAA0E05
:102B70004A6E2A0E4B6E3D0E4C6E7DC045F07EC0F7
:102B800046F07FC047F080C048F027EC0CF045C00D
:102B900039F046C03AF047C03BF048C03CF071C045
:102BA00035F072C036F073C037F074C038F0C7EC3F
:102BB00009F035C079F036C07AF037C07BF038C004
:102BC0007CF079C035F07AC036F07BC037F07CC03D
:102BD00038F06DC049F06EC04AF06FC04BF070C065
:102BE0004CF075C045F076C046F077C047F078C02D
:102BF00048F027EC0CF045C039F046C03AF047C029
:102C00003BF048C03CF0C7EC09F035C051F036C08D
:102C100052F037C053F038C054F012007CA813EFC4
:102C200016F015EF16F04CEF16F080A01AEF16F024
:102C30001CEF16F01FEF16F00001F84BF92B80B0D7
:102C400024EF16F026EF16F04BEF16F00001FC4BC8
:102C5000FD2BFD5109E13C0EFC5DD8A032EF16F0D2
:102C600034EF16F04BEF16F0000EFD6F000EFC6F08
:102C7000FA4BFB2BFB5109E13C0EFA5DD8A043EF68
:102C800016F045EF16F04BEF16F0000EFB6F000E3E
:102C9000FA6FF84BF92B7C9880A051EF16F053EFA8
:102CA00016F06CEF16F0C3EC20F004C008F005C07D
:102CB00009F0000E0B6E3C0E0A6E70EC20F008C09E
:102CC0000EF009C00FF0000E116E10680AEC1EF035
:102CD0000EC0FAF00FC0FBF00001F95109E1180E27
:102CE000F85DD8A076EF16F078EF16F080EF16F0CA
:102CF000000EF96F000EF86FF64BF72BF44BF52B27
:102D0000F55109E1080EF45DD8A089EF16F08BEFBC
:102D100016F08FEF16F0000EF56F010EF46F59C02C
:102D200009F05AC00AF0F2C00BF0F3C00CF0CEEC80
:102D300017F00001F651095CF7510A58D8B0A3EF1B
:102D400016F0A5EF16F0ABEF16F0000EF76F010EC0
:102D5000F66F594A5A2A5A5009E10D0E595CD8A00B
:102D6000B4EF16F0B6EF16F0BCEF16F0000E5A6E88
:102D7000010E596EF24BF32B030E59185A10D8B4AA
:102D8000C4EF16F0C6EF16F0D0EF16F00A0E591881
:102D90005A10D8A4CEEF16F0D0EF16F0F3EF16F0DD
:102DA000070EF419F511D8A4D8EF16F0DAEF16F0E3
:102DB000F3EF16F0F75109E1190EF65DD8A0E3EF35
:102DC00016F0E5EF16F0F3EF16F059C004F05AC014
:102DD00005F0F8C006F0F9C007F084EC1DF004C05F
:102DE000F8F005C0F9F01200166E1650D8B4FBEFDB
:102DF00016F0FDEF16F01FEF17F011BE04EF17F0FD
:102E000002EF17F01FEF17F00EC012F00FC013F013
:102E100010C014F011C015F0121E131E141E151E42
:102E2000122A000E13221422152212C018F013C009
:102E300019F014C01AF015C01BF027EF17F00EC0E0
:102E400018F00FC019F010C01AF011C01BF00E508E
:102E50000F1010101110D8A430EF17F032EF17F048
:102E60003CEF17F0000E0E6E000E0F6E000E106E8F
:102E7000000E116ECDEF17F0960E176E46EF17F09D
:102E8000172AD8901B321A3219321832000E181431
:102E9000126E000E1914136E000E1A14146EFE0E2C
:102EA0001B14156E1250131014101510D8A45BEFDC
:102EB00017F05DEF17F040EF17F06BEF17F0172AE0
:102EC000010E1826000E19221A221B22D8901B323E
:102ED0001A3219321832000E1814126E000E19141C
:102EE000136E000E1A14146EFF0E1B14156E125082
:102EF000131014101510D8A480EF17F082EF17F0FC
:102F00005FEF17F08AEF17F01706D89018361936CA
:102F10001A361B361ABE8FEF17F091EF17F099EFA4
:102F200017F0020E176097EF17F099EF17F084EF84
:102F300017F017B09EEF17F0A0EF17F0A1EF17F002
:102F40001A9ED890173217C012F0136A146A156AC5
:102F500012C015F0146A136A126A12501812135034
:102F6000191214501A1215501B121650D8B4BBEF78
:102F700017F0BDEF17F0C5EF17F011BEC4EF17F053
:102F8000C2EF17F0C5EF17F01B8E18C00EF019C076
:102F90000FF01AC010F01BC011F0120009040A1043
:102FA000D8B4D5EF17F0D7EF17F013EF18F0030EE2
:102FB00009180A10D8B4DFEF17F0E1EF17F013EF9C
:102FC00018F0050E09180A10D8B4E9EF17F0EBEF66
:102FD00017F013EF18F0070E09180A10D8B4F3EF22
:102FE00017F0F5EF17F013EF18F0080E09180A1094
:102FF000D8B4FDEF17F0FFEF17F013EF18F00A0E3B
:1030000009180A10D8B407EF18F009EF18F013EFF9
:1030100018F00C0E09180A10D8A411EF18F013EFCD
:1030200018F019EF18F0000E106E1F0E0F6E90EFD3
:1030300018F0040E09180A10D8B421EF18F023EF85
:1030400018F041EF18F0060E09180A10D8B42BEF4B
:1030500018F02DEF18F041EF18F0090E09180A10BA
:10306000D8B435EF18F037EF18F041EF18F00B0E29
:1030700009180A10D8A43FEF18F041EF18F047EFF5
:1030800018F0000E106E1E0E0F6E90EF18F0020E6C
:1030900009180A10D8A44FEF18F051EF18F090EF6C
:1030A00018F0030E0B140D6E000E0C140E6E0D5066
:1030B0000E10D8A45EEF18F060EF18F073EF18F060
:1030C0000BC004F00CC005F0000E076E640E066E17
:1030D00078EC1EF004500510D8A471EF18F073EFCF
:1030E00018F086EF18F00BC004F00CC005F0010ECC
:1030F000076E900E066E78EC1EF004500510D8A4F2
:1031000084EF18F086EF18F08CEF18F0000E106EB8
:103110001D0E0F6E90EF18F0000E106E1C0E0F6E4D
:103120000FC009F010C00AF012002650D96EDA6AFA
:10313000DFCFF6FF0E0EF76E000EF86E0800F550AA
:10314000250AD8A4A6EF18F0A8EF18F044EF19F05C
:103150002650D96EDA6ADF2A000E0001E16F000EF8
:10316000E06FE0C05BF0E269E369000E2E6EDFEF16
:1031700018F05B822650D96EDA6ADF2ADFEF18F08A
:10318000010E2E6EDFEF18F02650D96EDA6ADFCF0F
:10319000F6FF0E0EF76E000EF86E0800F550286E62
:1031A000296A2950000AD8B4D8EF18F0C0EF18F0F7
:1031B0002850300AD8B4B9EF18F0C0EF18F02E50EC
:1031C000D8B4E5EF18F0E7EF18F0C4EF18F026C018
:1031D0000EF027C00FF093EC1CF00EC0E0F00FC013
:1031E000E1F00001E1BFF9EF18F0F7EF18F0FEEFA2
:1031F00018F05B80E06DE11FD8B0E12B2650D96E4E
:10320000DA6ADF502F6E2FC0F6FF0E0EF76E000E3B
:10321000F86E0800F550640AD8B411EF19F013EFF6
:1032200019F023EF19F02FC0F6FF0E0EF76E000E07
:10323000F86E0800F550690AD8A421EF19F023EFC1
:1032400019F03EEF19F02750D96EDA6A020EDF2628
:10325000DF5CD96EDA6ADECF2AF0DECF2BF02650A3
:10326000D96EDA6A2F28DF6E25C01AF02AC01BF04B
:103270002BC01CF058EC19F057EF19F02650D96EFE
:10328000DA6ADF2A57EF19F02650D96EDA6ADFCFF3
:10329000F6FF0E0EF76E000EF86E0800F550046E85
:1032A000056A25C006F0DEEC1BF03EEF19F01200B7
:1032B000010E1F6E1CBE5FEF19F062EF19F0010ED8
:1032C00063EF19F0000E226EE0C020F0E1C021F0A3
:1032D0002250D8B46EEF19F070EF19F087EF19F0A3
:1032E0002006D8A021062250D8A479EF19F07BEF50
:1032F00019F081EF19F0000E1E6E2B0E1D6E85EF7A
:1033000019F0000E1E6E2D0E1D6E1DC022F0000E57
:10331000246E1F0E236E000E0101236FBFEF19F004
:103320002306D8A02406040E2324D96E010E2420DF
:10333000DA6E1BC004F01CC005F0000E076E0A0E0A
:10334000066E3BEC1CF004C00AF005C00BF0F9EC73
:103350001FF00A50300FDF6E000E1F6E2006D8A03F
:1033600021061BC004F01CC005F0000E076E0A0EFB
:10337000066E7CEC1BF004C01BF005C01CF024BEE4
:10338000CAEF19F0245008E12304D8A0CAEF19F0BD
:10339000CCEF19F0F1EF19F01B501C10D8A4D3EFAB
:1033A00019F0D5EF19F090EF19F01F50D8A4DBEF0A
:1033B00019F0DDEF19F090EF19F021BEE8EF19F0E8
:1033C000215008E12004D8A0E8EF19F0EAEF19F045
:1033D000F1EF19F05BB2EFEF19F0F1EF19F090EFA8
:1033E00019F02250D8B4F7EF19F0F9EF19F004EF03
:1033F0001AF02306D8A02406040E2324D96E010E49
:103400002420DA6E22C0DFFF1AC012F0040E23243B
:10341000136E010E2420146E20C015F021C016F08A
:103420003BEC1DF0120000016F357035766F765160
:10343000D8A41DEF1AF01FEF1AF029EF1AF0000EB2
:103440006D6F000E6E6F000E6F6F000E706F96EF57
:103450001AF06DC071F06EC072F06FC073F070C082
:1034600074F0200E39EF1AF0D8907433733372333E
:103470007133E82E34EF1AF07151756F6F8FFF0EB4
:103480006D17FF0E6E17FF0E6F17000E7017960E5A
:10349000765F76BF50EF1AF04EEF1AF066EF1AF033
:1034A0007651800A970FD8B058EF1AF05AEF1AF0F9
:1034B0005CEF1AF01FEF1AF0D89070336F336E3351
:1034C0006D33763F5CEF1AF07EEF1AF01F0E7665D3
:1034D0006CEF1AF06EEF1AF076EF1AF01FEF1AF099
:1034E000D8906D376E376F37703776077651D8A41E
:1034F0007CEF1AF07EEF1AF070EF1AF07551D8B425
:1035000084EF1AF086EF1AF08EEF1AF0701F6F1F1B
:103510006E1F6D6D000E6E236F2370236DC06DF0F6
:103520006EC06EF06FC06FF070C070F01200839CC0
:10353000839482968294859685927B9C7B947A96DE
:103540007A947D967D920D0E086E2D0E076ED80E24
:10355000E82EFED7072EFCD7082EFAD7030E44EC30
:103560001EF0680E076EE40EE82EFED7072EFCD77D
:1035700000D0030E44EC1EF0050E076E260EE82E5A
:10358000FED7072EFCD700D0030E44EC1EF0050E2C
:10359000076E260EE82EFED7072EFCD700D0020EAF
:1035A00044EC1EF0050E076E260EE82EFED7072E01
:1035B000FCD700D0000E056E2C0E47EC20F0E40E78
:1035C00000D000D0E82EFCD700D000D0000E056E51
:1035D000080E47EC20F0E40E00D000D0E82EFCD717
:1035E00000D000D0000E056E010E47EC20F0680EF2
:1035F000076EE40EE82EFED7072EFCD700D0000E93
:10360000056E060E47EC20F0E40E00D000D0E82E48
:10361000FCD700D000D0000E056E0C0E47EC20F059
:10362000E40E00D000D0E82EFCD700D000D012006D
:1036300004A01DEF1BF01FEF1BF022EF1BF07F809B
:1036400023EF1BF07F9004A228EF1BF02AEF1BF062
:103650002DEF1BF07F822EEF1BF07F9204A433EF3F
:103660001BF035EF1BF038EF1BF0798439EF1BF0BE
:10367000799404A63EEF1BF040EF1BF043EF1BF0E4
:103680007E8C44EF1BF07E9C04A849EF1BF04BEFAF
:103690001BF04EEF1BF079884FEF1BF0799804AACE
:1036A00054EF1BF056EF1BF059EF1BF0798A5AEFDD
:1036B0001BF0799A04AC5FEF1BF061EF1BF064EF35
:1036C0001BF07E8065EF1BF07E9004AE6AEF1BF06E
:1036D0006CEF1BF06FEF1BF07A8070EF1BF07A90AD
:1036E00005A075EF1BF077EF1BF07AEF1BF07A82E5
:1036F0007BEF1BF07A921200000E096E07BE85EF79
:103700001BF083EF1BF08BEF1BF0066C071ED8B08D
:10371000072A010E096E05BE92EF1BF090EF1BF019
:1037200098EF1BF0046C051ED8B0052A010E091A8B
:10373000000E0B6E000E0A6E06500710D8B4A3EFF1
:103740001BF0A5EF1BF0CDEF1BF0010E086EADEFE7
:103750001BF0D89006360736082A07AEB2EF1BF0EA
:10376000B4EF1BF0A9EF1BF0D8900A360B360650C9
:10377000045C07500558D8A0C0EF1BF0C2EF1BF047
:10378000C7EF1BF00650045E0750055A0A80D89018
:1037900007320632082EB4EF1BF00950D8B4D3EF2D
:1037A0001BF0D5EF1BF0D9EF1BF00A6C0B1ED8B045
:1037B0000B2A0AC004F00BC005F012000650D8B462
:1037C000E4EF1BF0E6EF1BF0EEEF1BF00650D8A481
:1037D000ECEF1BF0EEEF1BF0F3EF1BF00450E0EC0E
:1037E00020F03AEF1CF00650D96EDA6A0A0ED9269C
:1037F000DE50DE10D8B4FFEF1BF001EF1CF01AEF23
:103800001CF00650D96EDA6A0A0ED9260650E16E0F
:10381000E26A030EE126DE50E65CE650800A0B6E9B
:10382000DE50800A0B58D8B018EF1CF01AEF1CF0CD
:103830003AEF1CF00650D96EDA6A030ED926DECFB5
:1038400007F0DDCF08F00650D96EDA6ADECF09F056
:10385000DDCF0AF007500924D96E08500A20DA6E2D
:1038600004C0DFFF0650D96EDA6A030ED926DE2ABD
:10387000000EDD221200000E096E05BE44EF1CF0A2
:1038800042EF1CF04AEF1CF0046C051ED8B0052A6C
:10389000010E096E07BE51EF1CF04FEF1CF055EF03
:1038A0001CF0066C071ED8B0072A06500710D8B4C3
:1038B0005CEF1CF05EEF1CF082EF1CF0010E086E56
:1038C00066EF1CF0D89006360736082A07AE6BEF75
:1038D0001CF06DEF1CF062EF1CF00650045C07500A
:1038E0000558D8A076EF1CF078EF1CF07CEF1CF0A8
:1038F0000650045E0750055AD89007320632082E4B
:103900006DEF1CF00950D8B488EF1CF08AEF1CF062
:103910008EEF1CF0046C051ED8B0052A04C004F01C
:1039200005C005F01200000E126E000E116E0E5052
:10393000D96EDA6ADFCFF6FF0E0EF76E000EF86E64
:103940000800F5502A0AD8A4A8EF1CF0AAEF1CF032
:10395000D0EF1CF00E50D96EDA6ADF2A0F50D96E04
:10396000DA6A020EDF26DF5CD96EDA6ADECF11F08A
:10397000DECF12F0E5EF1CF011C008F012C009F024
:10398000000E0B6E0A0E0A6E70EC20F01050082428
:10399000116E000E0920126E0E50D96EDA6ADF2AFF
:1039A0000E50D96EDA6ADFCFF6FF0E0EF76E000EFC
:1039B000F86E0800F550D00F106E090E1064E3EF9A
:1039C0001CF0E5EF1CF0BCEF1CF011C00EF012C0B3
:1039D0000FF01200000E0C6E000E0B6E09C004F00A
:1039E0000AC005F0000E076E030E066E78EC1EF09E
:1039F00004500510D8A4FFEF1CF001EF1DF005EFF7
:103A00001DF0000E0C6E490E0B6E09C004F00AC0CA
:103A100005F0000E076E030E066E78EC1EF004042F
:103A20000510D8A416EF1DF018EF1DF01CEF1DF0C7
:103A3000000E0C6E920E0B6E09C004F00AC005F069
:103A4000000E076E030E066E78EC1EF0020E0418D0
:103A50000510D8A42EEF1DF030EF1DF034EF1DF04F
:103A6000010E0C6E240E0B6E0BC004F00CC005F0A2
:103A700018EC1BF012005BA040EF1DF042EF1DF0B0
:103A80004AEF1DF013C00CF014C00DF012C00EF080
:103A900065EC1FF016BE51EF1DF04FEF1DF055EF16
:103AA0001DF0000E166E000E156E000E196E000E43
:103AB000186E65EF1DF0000E056E200E046E12C02C
:103AC00006F0DEEC1BF0184A192A1550185C195044
:103AD000800A176E1650800A1758D8A072EF1DF092
:103AE00074EF1DF05BEF1DF05BB079EF1DF07BEF25
:103AF0001DF083EF1DF013C00CF014C00DF012C0C8
:103B00000EF065EC1FF01200030E04180510D8A487
:103B10008CEF1DF08EEF1DF0A3EF1DF006040710D3
:103B2000D8A495EF1DF097EF1DF0A3EF1DF080B620
:103B30009CEF1DF09EEF1DF0A3EF1DF0000E076E31
:103B4000020E066E80860A0E04180510D8A4ABEF8C
:103B50001DF0ADEF1DF0C3EF1DF0020E06180710AB
:103B6000D8A4B5EF1DF0B7EF1DF0C3EF1DF080A690
:103B7000BCEF1DF0BEEF1DF0C3EF1DF0000E076E91
:103B8000010E066E809606C004F007C005F0120014
:103B90007CAECDEF1DF0CFEF1DF0E9EF1DF0000181
:103BA000F95109E10D0EF85DD8A0D9EF1DF0DBEF5A
:103BB0001DF0E2EF1DF0010E056E046818EC1BF01D
:103BC000E8EF1DF0000E056E000E046E18EC1BF001
:103BD0007C9E0001F805F911D8A4F1EF1DF0F3EF78
:103BE0001DF0F9EF1DF0F6C009F0F7C00AF0EAEC9D
:103BF0001CF0050E0001F819F911D8A402EF1EF00F
:103C000004EF1EF009EF1EF0010E056E046818ECBB
:103C10001BF01200000E136E000E126E10501110E9
:103C2000D8B415EF1EF017EF1EF03FEF1EF0010E97
:103C3000146E1FEF1EF0D89010361136142A11AEF4
:103C400024EF1EF026EF1EF01BEF1EF0D890123668
:103C5000133610500E5C11500F58D8A032EF1EF0E2
:103C600034EF1EF039EF1EF010500E5E11500F5A57
:103C70001280D89011321032142E26EF1EF012C08E
:103C80000EF013C00FF01200046E04A04AEF1EF0F5
:103C90004CEF1EF04FEF1EF07A8650EF1EF07A9632
:103CA00004A255EF1EF057EF1EF05AEF1EF07A8473
:103CB0005BEF1EF07A9404A460EF1EF062EF1EF03A
:103CC00065EF1EF07D8666EF1EF07D9604A66BEF15
:103CD0001EF06DEF1EF070EF1EF07D8271EF1EF092
:103CE0007D92D3EC20F0A00E00D0E82EFDD712007C
:103CF00006500710D8B47FEF1EF081EF1EF0A5EF3D
:103D00001EF0010E086E89EF1EF0D89006360736B9
:103D1000082A07AE8EEF1EF090EF1EF085EF1EF022
:103D20000650045C07500558D8A099EF1EF09BEF91
:103D30001EF09FEF1EF00650045E0750055AD89003
:103D400007320632082E90EF1EF004C004F005C0C2
:103D500005F01200980EF66E410EF76E000EF86E2A
:103D600000EEF0F010EE0EF00900F5CFEEFFE5509A
:103D7000E150FAE1BE0EF66E410EF76E000EF86EDF
:103D80000900F5CF59F00900F5CF5AF001EE00F027
:103D9000380EEE6AE806FDE100EEDCF0140EEE6A85
:103DA000E806FDE15B6A5C905C920001FEEF1EF0AC
:103DB000020EC0EC1FF02E0E346E010E356E410E59
:103DC000366EF8C037F0F9C038F0FAC039F0FBC0F1
:103DD0003AF0F6C03BF0F7C03CF059C03DF05AC095
:103DE0003EF0F2C03FF0F3C040F085EC1FF02E0E25
:103DF000076E010E086E2DEC20F0120097EC1AF001
:103E00005DEC20F0A0EC20F083EC20F0A3EC1FF0A0
:103E100093EC20F0DAEC20F03DEC0EF00EEC16F016
:103E2000C8EC1DF0D8EC1EF0D00E0001DB6FC90EFF
:103E3000E82EFED7DB2FFCD700D00CEF1FF029EFC8
:103E400000F0000E551A000E561A000E571A800E7A
:103E5000581A51C035F052C036F053C037F054C034
:103E600038F055C039F056C03AF057C03BF058C052
:103E70003CF0C7EC09F035C051F036C052F037C005
:103E800053F038C054F0120031C033F050EF1FF03F
:103E900030C025F0330E266E32C027F095EC18F0B6
:103EA00033C0F6FF0E0EF76E000EF86E0800F550E8
:103EB0000009D8A45EEF1FF060EF1FF048EF1FF07D
:103EC000000E316E000E306E1200000E116E000EEC
:103ED000106E74EF1FF00FC004F0056A0EC006F0FC
:103EE000DEEC1BF0104A112A10500C24D96E115030
:103EF0000D20DA6EDF500F6E0F50D8A482EF1FF046
:103F000084EF1FF06BEF1FF01200370E416E34C0CC
:103F100042F035C043F0000E466E000E456E000EB6
:103F20004D6E000E4C6E420E306E36C031F0410EBA
:103F3000326E44EC1FF045503424D96E4650352083
:103F4000DA6EDF6A1200879087928194869C81984E
:103F5000819A8690829082927F907F9279947E9CC3
:103F60007998799A7E907A907A920E01BC91BC935E
:103F70009295B49D9299929BB4919A919A931200C2
:103F8000076E0704D8A4C7EF1FF0C9EF1FF0CEEFEC
:103F90001FF0000E056E800E47EC20F0020E071891
:103FA000D8A4D5EF1FF0D7EF1FF0DCEF1FF0000E05
:103FB000056EC00E47EC20F01200555056105710F9
:103FC0005810D8B4E6EF1FF0E8EF1FF0F0EF1FF045
:103FD000000E551A000E561A000E571A800E581A67
:103FE00055C055F056C056F057C057F058C058F05D
:103FF00012000BBEFEEF1FF000EF20F006EF20F0E6
:104000000AC00AF00BC00BF012EF20F00AC00CF04F
:104010000BC00DF00C1E0D1E0C4A0D2A0CC00AF030
:104020000DC00BF0120000C108F001C109F002C17F
:104030000AF003C10BF004C008F005C009F006C087
:104040000AF007C00BF00B9E08C004F009C005F091
:104050000AC006F00BC007F012003AEF20F0010E84
:10406000056E07C0D9FF08C0DAFFDF5047EC20F02B
:10407000074A082A07C0D9FF08C0DAFFDF50D8A4D2
:1040800044EF20F046EF20F02FEF20F01200066EF4
:1040900005B002D07B9C01D07B8C06380F0B44EC22
:1040A0001EF0A00E00D0E82EFDD7065044EC1EF006
:1040B000A00E00D0E82EFDD71200868E0E01D25140
:1040C000F80B0309D26FD351F80B0509D36FD083D6
:1040D000D089D183D181B9EC20F00E01D08F1200AC
:1040E00008500A02F3CF0CF0F4CF0DF008500B0289
:1040F000F3500D2609500A02F3500D260CC008F0AB
:104100000DC009F01200D6501F0B4009D66ED6889C
:10411000D650F00B0809D66ED5880B0ED46EDB0E88
:10412000D36ED58E12000E01298B2B8121811F9B0E
:10413000F28AF28EF28C7C9E849E7C988498120087
:1041400081860E0192870F015899FC0E5817030EB5
:104150005F6F60946088608E12000E0135A1B3EF2E
:1041600020F0B5EF20F0B7EF20F07C8E35915C9217
:104170001100F30E0E01C617C691C751E00B1B09C3
:10418000C76FC68F1200D350D4CF06F0076A06C09F
:1041900004F007C005F012008201E80706000A00DB
:1041A000110037001E007B841A0EE82EFED700D0C7
:1041B0007B9412008080889080968896120003007D
:0241C0001200EB
:020000040030CA
:02000000AAFF55
:020004009FFF5C
:00000001FF
