:040000002EEF00F0EF
:060008005882BAEF0CF073
:100018005880D8CF04F0E8CF05F0E0CF06F00E0105
:1000280033AB19EF00F01BEF00F026EF00F00B0EDA
:10003800D46EDB0ED36E010E5324536E000E542083
:10004800546E339B06C0E0FF05C0E8FF04C0D8FF2C
:080058005890100086EF0EF035
:100E000000253032642025303264202530336400E0
:090E100025642E25303264000037
:100E1A002750D96EDA6ADFCFF6FF0E0EF76E000E94
:100E2A00F86E0800F550250AD8A41EEF07F020EF47
:100E3A0007F0BAEF07F02750D96EDA6ADF2A000EF8
:100E4A004C6E000E4B6E4BC057F04D684E68000E4C
:100E5A002F6E56EF07F057822750D96EDA6ADF2ACB
:100E6A0056EF07F0010E2F6E56EF07F02750D96E96
:100E7A00DA6ADFCFF6FF0E0EF76E000EF86E080084
:100E8A00F550296E2A6A2A50000AD8B44FEF07F0A3
:100E9A0037EF07F02950300AD8B430EF07F037EFB0
:100EAA0007F02F50D8B45CEF07F05EEF07F03BEF86
:100EBA0007F027C00DF028C00EF0FFEC0AF00DC0B5
:100ECA004BF00EC04CF04CBE6FEF07F06DEF07F021
:100EDA0074EF07F057804B6C4C1ED8B04C2A275041
:100EEA00D96EDA6ADF50306E30C0F6FF0E0EF76E3A
:100EFA00000EF86E0800F550640AD8B487EF07F0C0
:100F0A0089EF07F099EF07F030C0F6FF0E0EF76E83
:100F1A00000EF86E0800F550690AD8A497EF07F09A
:100F2A0099EF07F0B4EF07F02850D96EDA6A020E8B
:100F3A00DF26DF5CD96EDA6ADECF2BF0DECF2CF04B
:100F4A002750D96EDA6A3028DF6E26C01BF02BC014
:100F5A001CF02CC01DF0CEEC07F0CDEF07F02750A7
:100F6A00D96EDA6ADF2ACDEF07F02750D96EDA6A2E
:100F7A00DFCFF6FF0E0EF76E000EF86E0800F55082
:100F8A00076E086A26C009F056EC0BF0B4EF07F0BA
:100F9A001200010E206E1DBED5EF07F0D8EF07F044
:100FAA00010ED9EF07F0000E236E4BC021F04CC0A2
:100FBA0022F02350D8B4E4EF07F0E6EF07F0FDEF94
:100FCA0007F02106D8A022062350D8A4EFEF07F095
:100FDA00F1EF07F0F7EF07F0000E1F6E2B0E1E6EF3
:100FEA00FBEF07F0000E1F6E2D0E1E6E1EC023F0C3
:100FFA00000E256E1F0E246E000E00017F6F33EF68
:10100A0008F02406D8A025062450600FD96EDA6AA3
:10101A001CC007F01DC008F0000E0A6E0A0E096E09
:10102A00A7EC0AF007C00DF008C00EF019EC0EF09C
:10103A000D50300FDF6E000E206E2106D8A022065A
:10104A001CC007F01DC008F0000E0A6E0A0E096ED9
:10105A0045EC0AF007C01CF008C01DF025BE3EEFA3
:10106A0008F0255008E12404D8A03EEF08F040EF2C
:10107A0008F065EF08F01C501D10D8A447EF08F0DF
:10108A0049EF08F006EF08F02050D8A44FEF08F017
:10109A0051EF08F006EF08F022BE5CEF08F022508C
:1010AA0008E12104D8A05CEF08F05EEF08F065EFD4
:1010BA0008F057B263EF08F065EF08F006EF08F0A2
:1010CA002350D8B46BEF08F06DEF08F076EF08F014
:1010DA002406D8A025062450600FD96EDA6A23C0E8
:1010EA00DFFF1BC014F02450600F156E21C016F0EC
:1010FA0022C017F0FCEC0BF01200839C83948296BA
:10110A008294859685927B9C7B947A967A947D9636
:10111A007D920D0E0B6E2D0E0A6ED80EE82EFED79E
:10112A000A2EFCD70B2EFAD7030EF0EC0CF0680E41
:10113A000A6EE40EE82EFED70A2EFCD700D0030E64
:10114A00F0EC0CF0050E0A6E260EE82EFED70A2EDB
:10115A00FCD700D0030EF0EC0CF0050E0A6E260E3A
:10116A00E82EFED70A2EFCD700D0020EF0EC0CF0C7
:10117A00050E0A6E260EE82EFED70A2EFCD700D0E0
:10118A00000E086E2C0E4AEC0EF0E40E00D000D0D1
:10119A00E82EFCD700D000D0000E086E080E4AECEC
:1011AA000EF0E40E00D000D0E82EFCD700D000D01C
:1011BA00000E086E010E4AEC0EF0680E0A6EE40E7E
:1011CA00E82EFED70A2EFCD700D0000E086E060EB7
:1011DA004AEC0EF0E40E00D000D0E82EFCD700D086
:1011EA0000D0000E086E0C0E4AEC0EF0E40E00D091
:1011FA0000D0E82EFCD700D000D01200180E5318E9
:10120A005410D8A40BEF09F00DEF09F017EF09F00D
:10121A00000E546E000E536E010E5524556E000ECC
:10122A005620566E53045410D8A41EEF09F020EF2E
:10123A0009F021EF09F07C9E050E53185410D8A42A
:10124A0029EF09F02BEF09F02CEF09F07C8E5304FB
:10125A005410D8A433EF09F035EF09F037EF09F04D
:10126A00ABEC0BF0050E53185410D8A43FEF09F05D
:10127A0041EF09F046EF09F0010E086E07687DECB0
:10128A0009F0BEEC0EF007C051F008C052F051C090
:10129A0007F052C008F0000E0A6E3C0E096E73EC9D
:1012AA000EF007C00DF008C00EF0000E106E0F68A9
:1012BA0080EC0CF00DC04FF00EC050F0020EC5ECE1
:1012CA000DF0800E356E010E366E4FC037F050C0ED
:1012DA0038F053C039F054C03AF055C03BF056C00C
:1012EA003CF0FFEC0DF0800E0A6E33EC0EF01200AB
:1012FA0007A082EF09F084EF09F087EF09F07F80F9
:10130A0088EF09F07F9007A28DEF09F08FEF09F0BF
:10131A0092EF09F07F8293EF09F07F9207A498EF8A
:10132A0009F09AEF09F09DEF09F079849EEF09F030
:10133A00799407A6A3EF09F0A5EF09F0A8EF09F041
:10134A007E8CA9EF09F07E9C07A8AEEF09F0B0EFFA
:10135A0009F0B3EF09F07988B4EF09F0799807AA90
:10136A00B9EF09F0BBEF09F0BEEF09F0798ABFEFD8
:10137A0009F0799A07ACC4EF09F0C6EF09F0C9EF92
:10138A0009F07E80CAEF09F07E9007AECFEF09F030
:10139A00D1EF09F0D4EF09F07A80D5EF09F07A900D
:1013AA0008A0DAEF09F0DCEF09F0DFEF09F07A8242
:1013BA00E0EF09F07A92120001A0E6EF09F0E8EFF7
:1013CA0009F0EBEF09F07F80ECEF09F07F9001A2C2
:1013DA00F1EF09F0F3EF09F0F6EF09F07F82F7EF8A
:1013EA0009F07F9201A4FCEF09F0FEEF09F001EF8A
:1013FA000AF0798402EF0AF0799401A607EF0AF05D
:10140A0009EF0AF00CEF0AF07E8C0DEF0AF07E9CD1
:10141A0001A812EF0AF014EF0AF017EF0AF0798820
:10142A0018EF0AF0799801AA1DEF0AF01FEF0AF0E7
:10143A0022EF0AF0798A23EF0AF0799A01AC28EFB1
:10144A000AF02AEF0AF02DEF0AF07E802EEF0AF05A
:10145A007E9001AE33EF0AF035EF0AF038EF0AF06A
:10146A007A8039EF0AF07A9002A03EEF0AF040EF54
:10147A000AF043EF0AF07A8244EF0AF07A921200F5
:10148A00000E0C6E0ABE4EEF0AF04CEF0AF054EF53
:10149A000AF0096C0A1ED8B00A2A010E0C6E08BEA0
:1014AA005BEF0AF059EF0AF061EF0AF0076C081EC9
:1014BA00D8B0082A010E0C1A000E0E6E000E0D6E20
:1014CA0009500A10D8B46CEF0AF06EEF0AF096EFE2
:1014DA000AF0010E0B6E76EF0AF0D89009360A363A
:1014EA000B2A0AAE7BEF0AF07DEF0AF072EF0AF0E0
:1014FA00D8900D360E360950075C0A500858D8A005
:10150A0089EF0AF08BEF0AF090EF0AF00950075EB4
:10151A000A50085A0D80D8900A3209320B2E7DEFF4
:10152A000AF00C50D8B49CEF0AF09EEF0AF0A2EF32
:10153A000AF00D6C0E1ED8B00E2A0DC007F00EC0B0
:10154A0008F01200000E0C6E08BEB0EF0AF0AEEF03
:10155A000AF0B6EF0AF0076C081ED8B0082A010E86
:10156A000C6E0ABEBDEF0AF0BBEF0AF0C1EF0AF03B
:10157A00096C0A1ED8B00A2A09500A10D8B4C8EF52
:10158A000AF0CAEF0AF0EEEF0AF0010E0B6ED2EF84
:10159A000AF0D89009360A360B2A0AAED7EF0AF0B3
:1015AA00D9EF0AF0CEEF0AF00950075C0A50085842
:1015BA00D8A0E2EF0AF0E4EF0AF0E8EF0AF00950E7
:1015CA00075E0A50085AD8900A3209320B2ED9EF10
:1015DA000AF00C50D8B4F4EF0AF0F6EF0AF0FAEF7A
:1015EA000AF0076C081ED8B0082A07C007F008C01E
:1015FA0008F01200000E116E000E106E0D50D96E1A
:10160A00DA6ADFCFF6FF0E0EF76E000EF86E0800EC
:10161A00F5502A0AD8A414EF0BF016EF0BF03CEFA2
:10162A000BF00D50D96EDA6ADF2A0E50D96EDA6ADB
:10163A00020EDF26DF5CD96EDA6ADECF10F0DECF6B
:10164A0011F051EF0BF010C007F011C008F0000EB6
:10165A000A6E0A0E096E73EC0EF00F500724106E14
:10166A00000E0820116E0D50D96EDA6ADF2A0D506D
:10167A00D96EDA6ADFCFF6FF0E0EF76E000EF86E3D
:10168A000800F550D00F0F6E090E0F644FEF0BF0E4
:10169A0051EF0BF028EF0BF010C00DF011C00EF057
:1016AA0012000950D8B45CEF0BF05EEF0BF066EF56
:1016BA000BF00950D8A464EF0BF066EF0BF06BEF58
:1016CA000BF00750D7EC0EF0AAEF0BF00950D96EC9
:1016DA00DA6A0A0ED926DE50DE10D8B477EF0BF09C
:1016EA0079EF0BF092EF0BF00950D96EDA6A0A0E15
:1016FA00D9260950E16EE26A030EE126DE50E65C65
:10170A00E650800A0E6EDE50800A0E58D8B090EF6E
:10171A000BF092EF0BF0AAEF0BF00950D96EDA6AD0
:10172A00030ED926DF500A6E0950D96EDA6ADF50E5
:10173A000A24D96EDA6A07C0DFFF0950D96EDA6A5D
:10174A00030ED926DE2A000EDD221200000E0D6ECF
:10175A00000E0C6E55C007F056C008F0000E0A6E57
:10176A00030E096E24EC0DF007500810D8A4C0EF40
:10177A000BF0C2EF0BF0C6EF0BF0000E0D6E490E28
:10178A000C6E55C007F056C008F0000E0A6E030E24
:10179A00096E24EC0DF007040810D8A4D7EF0BF05B
:1017AA00D9EF0BF0DDEF0BF0000E0D6E920E0C6E02
:1017BA0055C007F056C008F0000E0A6E030E096EF7
:1017CA0024EC0DF0020E07180810D8A4EFEF0BF066
:1017DA00F1EF0BF0F5EF0BF0010E0D6E240E0C6E0F
:1017EA000CC007F00DC008F07DEC09F0120057A0FC
:1017FA0001EF0CF003EF0CF009EF0CF015C00FF03D
:10180A0014C010F0A7EC0DF017BE10EF0CF00EEF9D
:10181A000CF014EF0CF0000E176E000E166E000E90
:10182A001A6E000E196E24EF0CF0000E086E200ED0
:10183A00076E14C009F056EC0BF0194A1A2A165012
:10184A00195C1A50800A186E1750800A1858D8A0C6
:10185A0031EF0CF033EF0CF01AEF0CF057B038EF11
:10186A000CF03AEF0CF040EF0CF015C00FF014C07A
:10187A0010F0A7EC0DF01200608060B047EF0CF09A
:10188A0049EF0CF042EF0CF064CF16F0176A1650CD
:10189A00FF08166E1750D8A0E82A0008176EDB0E4C
:1018AA001624076EFF0E1720086E000E0A6E0968CE
:1018BA0073EC0EF007C00DF008C00EF0000E106EAB
:1018CA00740E0F6E80EC0CF00DC016F00EC017F0FF
:1018DA001604020E1758D8A075EF0CF077EF0CF02B
:1018EA007BEF0CF0000E176E000E166E16C014F089
:1018FA0017C015F01200000E136E000E126E0F5074
:10190A001010D8B48BEF0CF08DEF0CF0B5EF0CF093
:10191A00010E116E95EF0CF0D8900F361036112A81
:10192A0010AE9AEF0CF09CEF0CF091EF0CF0D890FF
:10193A00123613360F500D5C10500E58D8A0A8EF6F
:10194A000CF0AAEF0CF0AFEF0CF00F500D5E105038
:10195A000E5A1280D89010320F32112E9CEF0CF0D2
:10196A0012C00DF013C00EF012000E0135A1C0EF27
:10197A000CF0C2EF0CF0EEEF0CF080A6C7EF0CF003
:10198A00CBEF0CF0036A032ACCEF0CF0036A034690
:10199A000346034680500318F70B0318806E545011
:1019AA0009E10D0E535CD8A0DDEF0CF0DFEF0CF06F
:1019BA00E6EF0CF0010E026E0168E1EC09F0ECEFC3
:1019CA000CF0000E026E000E016EE1EC09F00E0141
:1019DA00359158921100076E07A0F6EF0CF0F8EF58
:1019EA000CF0FBEF0CF07A86FCEF0CF07A9607A26B
:1019FA0001EF0DF003EF0DF006EF0DF07A8407EF1B
:101A0A000DF07A9407A40CEF0DF00EEF0DF011EF24
:101A1A000DF07D8612EF0DF07D9607A617EF0DF0FB
:101A2A0019EF0DF01CEF0DF07D821DEF0DF07D9288
:101A3A00D0EC0EF0A00E00D0E82EFDD7120009500F
:101A4A000A10D8B42BEF0DF02DEF0DF051EF0DF079
:101A5A00010E0B6E35EF0DF0D89009360A360B2AB7
:101A6A000AAE3AEF0DF03CEF0DF031EF0DF00950F0
:101A7A00075C0A500858D8A045EF0DF047EF0DF063
:101A8A004BEF0DF00950075E0A50085AD8900A32F7
:101A9A0009320B2E3CEF0DF007C007F008C008F022
:101AAA00120082EC08F060EC0EF0A7EC0EF097EC56
:101ABA000EF0E2EC0DF0C7EC0EF0809688967C9E54
:101ACA00849E010EC5EC0DF08A0E356E0B0E366E35
:101ADA0041EC0CF014C037F015C038F0FFEC0DF0F3
:101AEA008A0E0A6E33EC0EF003EC09F0D00E4A6E41
:101AFA00CA0EE82EFED74A2EFCD766EF0DF02EEF5F
:101B0A0000F032C034F092EF0DF031C026F0340EFE
:101B1A00276E33C028F00DEC07F034C0F6FF0E0E26
:101B2A00F76E000EF86E0800F5500009D8A4A0EF71
:101B3A000DF0A2EF0DF08AEF0DF0000E326E000EDE
:101B4A00316E1200000E136E000E126EB6EF0DF01B
:101B5A0011C007F0086A10C009F056EC0BF0124ADF
:101B6A00132A0F501224D96EDA6ADF50116E1150FF
:101B7A00D8A4C2EF0DF0C4EF0DF0ADEF0DF01200D6
:101B8A000A6E0A04D8A4CCEF0DF0CEEF0DF0D3EF15
:101B9A000DF0000E086E800E4AEC0EF0020E0A18C6
:101BAA00D8A4DAEF0DF0DCEF0DF0E1EF0DF0000E46
:101BBA00086EC00E4AEC0EF012008790879281944C
:101BCA00869C8198819A8690829082927F907F9259
:101BDA0079947E9C7998799A7E907A907A920E017D
:101BEA00BC91BC939295B49D9299929BB4919A910F
:101BFA009A931200370E3D6E35C03EF0000E426ECB
:101C0A00000E416E000E496E000E486E3E0E316E99
:101C1A0036C032F03D0E336E86EC0DF0355041245D
:101C2A00D96EDA6ADF6A12000EBE1EEF0EF020EFDE
:101C3A000EF026EF0EF00DC00DF00EC00EF032EFD2
:101C4A000EF00DC00FF00EC010F00F1E101E0F4A3E
:101C5A00102A0FC00DF010C00EF012003EEF0EF069
:101C6A00010E086E0A50D96EDA6ADF504AEC0EF09D
:101C7A000A2A0A50D96EDA6ADF50D8A447EF0EF062
:101C8A0049EF0EF035EF0EF01200096E08B002D0DF
:101C9A007B9C01D07B8C09380F0BF0EC0CF0A00E6A
:101CAA0000D0E82EFDD70950F0EC0CF0A00E00D0C1
:101CBA00E82EFDD71200868E0E01D251F80B0309C9
:101CCA00D26FD351F80B0509D36FD083D089D18352
:101CDA00D181B4EC0EF00E01D08F12000750090228
:101CEA00F3CF0BF0F4CF0CF007500A02F3500C2696
:101CFA0008500902F3500C260BC007F00CC008F07C
:101D0A00120000EE60F02A0EEE6AE806FDE100EE2F
:101D1A004BF00D0EEE6AE806FDE15890589200016C
:101D2A0056EF0DF0D6501F0B4009D66ED688D65006
:101D3A00F00B0809D66ED5880B0ED46EDB0ED36E67
:101D4A00D58E120081860E0192870F015899FC0EDA
:101D5A005817030E5F6F60946088608E1200F30E4E
:101D6A000E01C617C691C751E00B1B09C76FC68F74
:101D7A001200D350D4CF09F00A6A09C007F00AC08A
:101D8A0008F012000E01298B2B8121811F9BF28AF8
:101D9A00F28EF28C12007B841A0EE82EFED700D047
:061DAA007B941200120000
:020000040030CA
:02000000AAFF55
:020004009FFF5C
:00000001FF
