:0400000029EF00F0F4
:060008005B82F9EF0FF02E
:100018005B80D8CF01F0E8CF02F0E0CF03F00E010B
:1000280033AB19EF00F01BEF00F021EF00F00B0EDF
:10003800D46EDB0ED36E7C88339B03C0E0FF02C016
:0E004800E8FF01C0D8FF5B901000B0EF0EF093
:100E0000003C6C3636CF0750B98488083CABAA2A20
:100E1000BEA3858832DA0FC93F83F9223F00000064
:100E20003F179ACC373F04B6BA9FAA2A3D0000006C
:100E3000BFDB0FC940E4CB9640DB0F4940DB0FC955
:100E40003F25303264202530326420253032642042
:100E5000253032642025303464002530326420256A
:100E60003032640025642E2530326400253033642E
:100E700000007CAE3EEF07F040EF07F059EF07F0BF
:100E8000555009E10D0E545CD8A049EF07F04BEF27
:100E900007F052EF07F0010E056E0468FBEC0AF054
:100EA00058EF07F0000E056E000E046EFBEC0AF022
:100EB0007C9E7CA85EEF07F060EF07F063EF07F021
:100EC000544A552A7C98555009E1180E545CD8A014
:100ED0006CEF07F06EEF07F076EF07F0000E556E3F
:100EE000000E546E524A532A504A512A515009E179
:100EF000080E505CD8A07FEF07F081EF07F085EF78
:100F000007F0000E516E010E506E4EC009F04FC03A
:100F10000AF04CC00BF04DC00CF03DEC08F0525004
:100F2000095C53500A58D8B098EF07F09AEF07F0D1
:100F3000A0EF07F0000E536E010E526E4E4A4F2A7C
:100F40004F5009E10D0E4E5CD8A0A9EF07F0ABEFB2
:100F500007F0B1EF07F0000E4F6E010E4E6E4C4AD7
:100F60004D2A54045510D8A4B8EF07F0BAEF07F093
:100F7000BCEF07F0C5EC0CF0050E54185510D8A4C2
:100F8000C4EF07F0C6EF07F0CBEF07F0010E056ED8
:100F90000468FBEC0AF0030E4E184F10D8B4D3EFE0
:100FA00007F0D5EF07F0DFEF07F00A0E4E184F10ED
:100FB000D8A4DDEF07F0DFEF07F002EF08F0070E2F
:100FC00050185110D8A4E7EF07F0E9EF07F002EF4F
:100FD00008F0535009E1190E525CD8A0F2EF07F067
:100FE000F4EF07F002EF08F04EC004F04FC005F038
:100FF00054C006F055C007F05BEC0DF004C054F08F
:1010000005C055F00FEC10F004C008F005C009F061
:10101000000E0B6E3C0E0A6EC9EC0FF008C00EF00D
:1010200009C00FF0000E116E1068DEEC0DF00EC05E
:1010300058F00FC059F0020E1BEC0FF0A40E326EE8
:10104000410E336E58C034F059C035F054C036F0FC
:1010500055C037F052C038F053C039F04EC03AF0A6
:101060004FC03BF04CC03CF04DC03DF055EC0FF094
:10107000A40E076E89EC0FF0120009040A10D8B410
:1010800044EF08F046EF08F082EF08F0030E09186D
:101090000A10D8B44EEF08F050EF08F082EF08F0D5
:1010A000050E09180A10D8B458EF08F05AEF08F0E6
:1010B00082EF08F0070E09180A10D8B462EF08F0A2
:1010C00064EF08F082EF08F0080E09180A10D8B48F
:1010D0006CEF08F06EEF08F082EF08F00A0E0918C6
:1010E0000A10D8B476EF08F078EF08F082EF08F035
:1010F0000C0E09180A10D8A480EF08F082EF08F04F
:1011000088EF08F0000E106E1F0E0F6EFFEF08F054
:10111000040E09180A10D8B490EF08F092EF08F006
:10112000B0EF08F0060E09180A10D8B49AEF08F0CC
:101130009CEF08F0B0EF08F0090E09180A10D8B4B7
:10114000A4EF08F0A6EF08F0B0EF08F00B0E0918B6
:101150000A10D8A4AEEF08F0B0EF08F0B6EF08F030
:10116000000E106E1E0E0F6EFFEF08F0020E091833
:101170000A10D8A4BEEF08F0C0EF08F0FFEF08F0A7
:10118000030E0B140D6E000E0C140E6E0D500E108F
:10119000D8A4CDEF08F0CFEF08F0E2EF08F00BC0D5
:1011A00004F00CC005F0000E076E640E066E7EECB7
:1011B0000EF004500510D8A4E0EF08F0E2EF08F0BC
:1011C000F5EF08F00BC004F00CC005F0010E076E3F
:1011D000900E066E7EEC0EF004500510D8A4F3EFCE
:1011E00008F0F5EF08F0FBEF08F0000E106E1D0E92
:1011F0000F6EFFEF08F0000E106E1C0E0F6E0FC08A
:1012000009F010C00AF012002450D96EDA6ADFCF5C
:10121000F6FF0E0EF76E000EF86E0800F550250A68
:10122000D8A415EF09F017EF09F0B2EF09F0245038
:10123000D96EDA6ADF2A000E576E000E566E56C05F
:101240005AF0000168696969000E2C6E4EEF09F0D2
:101250005A822450D96EDA6ADF2A4EEF09F0010E65
:101260002C6E4EEF09F02450D96EDA6ADFCFF6FF0C
:101270000E0EF76E000EF86E0800F550266E276A07
:101280002750000AD8B447EF09F02FEF09F0265095
:10129000300AD8B428EF09F02FEF09F02C50D8B459
:1012A00054EF09F056EF09F033EF09F024C00EF0C7
:1012B00025C00FF019EC0CF00EC056F00FC057F01F
:1012C00057BE67EF09F065EF09F06CEF09F05A803F
:1012D000566C571ED8B0572A2450D96EDA6ADF50A0
:1012E0002D6E2DC0F6FF0E0EF76E000EF86E080084
:1012F000F550640AD8B47FEF09F081EF09F091EF5F
:1013000009F02DC0F6FF0E0EF76E000EF86E080005
:10131000F550690AD8A48FEF09F091EF09F0ACEF0E
:1013200009F02550D96EDA6A020EDF26DF5CD96E2D
:10133000DA6ADECF28F0DECF29F02450D96EDA6ADF
:101340002D28DF6E23C018F028C019F029C01AF02C
:10135000C6EC09F0C5EF09F02450D96EDA6ADF2A2D
:10136000C5EF09F02450D96EDA6ADFCFF6FF0E0E12
:10137000F76E000EF86E0800F550046E056A23C083
:1013800006F070EC0CF0ACEF09F01200010E1D6ECF
:101390001ABECDEF09F0D0EF09F0010ED1EF09F040
:1013A000000E206E56C01EF057C01FF02050D8B45B
:1013B000DCEF09F0DEEF09F0F5EF09F01E06D8A02A
:1013C0001F062050D8A4E7EF09F0E9EF09F0EFEF8E
:1013D00009F0000E1C6E2B0E1B6EF3EF09F0000ED1
:1013E0001C6E2D0E1B6E1BC020F0000E226E1F0EF9
:1013F000216E000E0001996F2BEF0AF02106D8A094
:10140000220621507A0FD96EDA6A19C004F01AC088
:1014100005F0000E076E0A0E066EC1EC0BF004C05C
:101420000AF005C00BF06FEC0FF00A50300FDF6EC2
:10143000000E1D6E1E06D8A01F0619C004F01AC0AB
:1014400005F0000E076E0A0E066E5FEC0BF004C08E
:1014500019F005C01AF022BE36EF0AF0225008E15A
:101460002104D8A036EF0AF038EF0AF05DEF0AF059
:1014700019501A10D8A43FEF0AF041EF0AF0FEEF1E
:1014800009F01D50D8A447EF0AF049EF0AF0FEEF2B
:1014900009F01FBE54EF0AF01F5008E11E04D8A047
:1014A00054EF0AF056EF0AF05DEF0AF05AB25BEF24
:1014B0000AF05DEF0AF0FEEF09F02050D8B463EFB8
:1014C0000AF065EF0AF06EEF0AF02106D8A02206B6
:1014D00021507A0FD96EDA6A20C0DFFF18C011F0F0
:1014E00021507A0F126E1EC013F01FC014F016ECBC
:1014F0000DF01200839C8394829682948596859247
:101500007B9C7B947A967A947D967D920D0E086EE4
:101510002D0E076ED80EE82EFED7072EFCD7082E0C
:10152000FAD7030E18EC0EF0680E076EE40EE82EE4
:10153000FED7072EFCD700D0030E18EC0EF0050ED8
:10154000076E260EE82EFED7072EFCD700D0030E1E
:1015500018EC0EF0050E076E260EE82EFED7072EAD
:10156000FCD700D0020E18EC0EF0050E076E260E0A
:10157000E82EFED7072EFCD700D0000E056E2C0EED
:10158000A0EC0FF0E40E00D000D0E82EFCD700D085
:1015900000D0000E056E080EA0EC0FF0E40E00D097
:1015A00000D0E82EFCD700D000D0000E056E010E52
:1015B000A0EC0FF0680E076EE40EE82EFED7072EA3
:1015C000FCD700D0000E056E060EA0EC0FF0E40E66
:1015D00000D000D0E82EFCD700D000D0000E056E61
:1015E0000C0EA0EC0FF0E40E00D000D0E82EFCD7DB
:1015F00000D000D0120004A000EF0BF002EF0BF0BF
:1016000005EF0BF07F8006EF0BF07F9004A20BEF4D
:101610000BF00DEF0BF010EF0BF07F8211EF0BF0E2
:101620007F9204A416EF0BF018EF0BF01BEF0BF0FA
:1016300079841CEF0BF0799404A621EF0BF023EFD3
:101640000BF026EF0BF07E8C27EF0BF07E9C04A8AE
:101650002CEF0BF02EEF0BF031EF0BF0798832EF1F
:101660000BF0799804AA37EF0BF039EF0BF03CEF51
:101670000BF0798A3DEF0BF0799A04AC42EF0BF056
:1016800044EF0BF047EF0BF07E8048EF0BF07E90BD
:1016900004AE4DEF0BF04FEF0BF052EF0BF07A80F2
:1016A00053EF0BF07A9005A058EF0BF05AEF0BF0C8
:1016B0005DEF0BF07A825EEF0BF07A921200000E73
:1016C000096E07BE68EF0BF066EF0BF06EEF0BF0E4
:1016D000066C071ED8B0072A010E096E05BE75EF0D
:1016E0000BF073EF0BF07BEF0BF0046C051ED8B022
:1016F000052A010E091A000E0B6E000E0A6E065026
:101700000710D8B486EF0BF088EF0BF0B0EF0BF0BA
:10171000010E086E90EF0BF0D89006360736082AB7
:1017200007AE95EF0BF097EF0BF08CEF0BF0D89026
:101730000A360B360650045C07500558D8A0A3EFB4
:101740000BF0A5EF0BF0AAEF0BF00650045E07506C
:10175000055A0A80D89007320632082E97EF0BF010
:101760000950D8B4B6EF0BF0B8EF0BF0BCEF0BF0AC
:101770000A6C0B1ED8B00B2A0AC004F00BC005F08F
:101780001200000E096E05BECAEF0BF0C8EF0BF099
:10179000D0EF0BF0046C051ED8B0052A010E096EBF
:1017A00007BED7EF0BF0D5EF0BF0DBEF0BF0066CBD
:1017B000071ED8B0072A06500710D8B4E2EF0BF086
:1017C000E4EF0BF008EF0CF0010E086EECEF0BF0FD
:1017D000D89006360736082A07AEF1EF0BF0F3EF84
:1017E0000BF0E8EF0BF00650045C07500558D8A04A
:1017F000FCEF0BF0FEEF0BF002EF0CF00650045E76
:101800000750055AD89007320632082EF3EF0BF036
:101810000950D8B40EEF0CF010EF0CF014EF0CF0F0
:10182000046C051ED8B0052A04C004F005C005F0FC
:101830001200000E126E000E116E0E50D96EDA6A92
:10184000DFCFF6FF0E0EF76E000EF86E0800F550B3
:101850002A0AD8A42EEF0CF030EF0CF056EF0CF063
:101860000E50D96EDA6ADF2A0F50D96EDA6A020E8C
:10187000DF26DF5CD96EDA6ADECF11F0DECF12F040
:101880006BEF0CF011C008F012C009F0000E0B6EE7
:101890000A0E0A6EC9EC0FF010500824116E000EEB
:1018A0000920126E0E50D96EDA6ADF2A0E50D96EF8
:1018B000DA6ADFCFF6FF0E0EF76E000EF86E080044
:1018C000F550D00F106E090E106469EF0CF06BEF3D
:1018D0000CF042EF0CF011C00EF012C00FF012002D
:1018E0000650D8B476EF0CF078EF0CF080EF0CF0E7
:1018F0000650D8A47EEF0CF080EF0CF085EF0CF0D2
:1019000004502EEC10F0C4EF0CF00650D96EDA6AD9
:101910000A0ED926DE50DE10D8B491EF0CF093EF0A
:101920000CF0ACEF0CF00650D96EDA6A0A0ED9262C
:101930000650E16EE26A030EE126DE50E65CE650F8
:10194000800A0B6EDE50800A0B58D8B0AAEF0CF05C
:10195000ACEF0CF0C4EF0CF00650D96EDA6A030E4F
:10196000D926DF50076E0650D96EDA6ADF50072499
:10197000D96EDA6A04C0DFFF0650D96EDA6A030E48
:10198000D926DE2A000EDD221200000E0A6E000E9D
:10199000096E52C004F053C005F0000E076E030E2E
:1019A000066E7EEC0EF004500510D8A4DAEF0CF0B1
:1019B000DCEF0CF0E0EF0CF0000E0A6E490E096E41
:1019C00052C004F053C005F0000E076E030E066E01
:1019D0007EEC0EF004040510D8A4F1EF0CF0F3EF48
:1019E0000CF0F7EF0CF0000E0A6E920E096E52C06A
:1019F00004F053C005F0000E076E030E066E7EEC79
:101A00000EF0020E04180510D8A409EF0DF00BEF2C
:101A10000DF00FEF0DF0010E0A6E240E096E09C0D5
:101A200004F00AC005F0FBEC0AF012005AA01BEF0C
:101A30000DF01DEF0DF023EF0DF012C00CF011C0F2
:101A40000DF0FDEC0EF014BE2AEF0DF028EF0DF0B6
:101A50002EEF0DF0000E146E000E136E000E176EBA
:101A6000000E166E3EEF0DF0000E056E200E046E99
:101A700011C006F070EC0CF0164A172A1350165CD1
:101A80001750800A156E1450800A1558D8A04BEFD5
:101A90000DF04DEF0DF034EF0DF05AB052EF0DF0A8
:101AA00054EF0DF05AEF0DF012C00CF011C00DF014
:101AB000FDEC0EF01200030E04180510D8A463EF1D
:101AC0000DF065EF0DF07AEF0DF006040710D8A4C5
:101AD0006CEF0DF06EEF0DF07AEF0DF080B673EF56
:101AE0000DF075EF0DF07AEF0DF0000E076E020E9F
:101AF000066E80860A0E04180510D8A482EF0DF039
:101B000084EF0DF09AEF0DF0020E06180710D8A41E
:101B10008CEF0DF08EEF0DF09AEF0DF080A693EFA5
:101B20000DF095EF0DF09AEF0DF0000E076E010E1F
:101B3000066E809606C004F007C005F012006080B3
:101B400060B0A5EF0DF0A7EF0DF0A0EF0DF064CFA2
:101B500017F0186A1750FF08176E1850D8A0E82A17
:101B60000008186EEE0E1724086EFF0E1820096E7E
:101B7000000E0B6E0A68C9EC0FF008C00EF009C029
:101B80000FF0000E116E580E106EDEEC0DF00EC050
:101B900017F00FC018F01704020E1858D8A0D3EF92
:101BA0000DF0D5EF0DF0D9EF0DF0000E186E000E10
:101BB000176E17C015F018C016F01200000E146E44
:101BC000000E136E10501110D8B4E9EF0DF0EBEFCA
:101BD0000DF013EF0EF0010E126EF3EF0DF0D89032
:101BE00010361136122A11AEF8EF0DF0FAEF0DF0A3
:101BF000EFEF0DF0D8901336143610500E5C1150E4
:101C00000F58D8A006EF0EF008EF0EF00DEF0EF013
:101C100010500E5E11500F5A1380D89011321032AE
:101C2000122EFAEF0DF013C00EF014C00FF01200D8
:101C3000046E04A01EEF0EF020EF0EF023EF0EF066
:101C40007A8624EF0EF07A9604A229EF0EF02BEF9D
:101C50000EF02EEF0EF07A842FEF0EF07A9404A49B
:101C600034EF0EF036EF0EF039EF0EF07D863AEFDE
:101C70000EF07D9604A63FEF0EF041EF0EF044EF1C
:101C80000EF07D8245EF0EF07D9221EC10F0A00E5B
:101C900000D0E82EFDD712007AEC0AF0B6EC0FF077
:101CA000ECEC0FF0DCEC0FF038EC0FF018EC10F06F
:101CB000809688967C9E849E7C988498010E1BEC6E
:101CC0000FF0AE0E326E6C0E336E9FEC0DF015C041
:101CD00034F016C035F055EC0FF0AE0E076E89ECFF
:101CE0000FF039EC07F0D00E4B6ECA0EE82EFED77F
:101CF0004B2EFCD75EEF0EF029EF00F006500710D8
:101D0000D8B485EF0EF087EF0EF0ABEF0EF0010EBA
:101D1000086E8FEF0EF0D89006360736082A07AE09
:101D200094EF0EF096EF0EF08BEF0EF00650045C81
:101D300007500558D8A09FEF0EF0A1EF0EF0A5EFC9
:101D40000EF00650045E0750055AD890073206324E
:101D5000082E96EF0EF004C004F005C005F0120046
:101D60005A0EF66E200EF76E000EF86E0900F5CFD3
:101D7000B2F00900F5CFB3F0500EF66E200EF76EFC
:101D8000000EF86E00EE4CF010EE0AF00900F5CFF0
:101D9000EEFFE550E150FAE100EE60F04E0EEE6A23
:101DA000E806FDE15A6A596A586A576A566A5B90B2
:101DB0005B9200014CEF0EF02FC031F0E8EF0EF017
:101DC0002EC023F0310E246E30C025F004EC09F053
:101DD00031C0F6FF0E0EF76E000EF86E0800F550DB
:101DE0000009D8A4F6EF0EF0F8EF0EF0E0EF0EF0D9
:101DF000000E2F6E000E2E6E1200000E106E000EE2
:101E00000F6E0CEF0FF00EC004F0056A0DC006F067
:101E100070EC0CF00F4A102A0C500F24D96EDA6ABD
:101E2000DF500E6E0E50D8A418EF0FF01AEF0FF01F
:101E300003EF0FF01200076E0704D8A422EF0FF093
:101E400024EF0FF029EF0FF0000E056E800EA0ECCE
:101E50000FF0020E0718D8A430EF0FF032EF0FF09A
:101E600037EF0FF0000E056EC00EA0EC0FF0120061
:101E7000879087928194869C8198819A869082909F
:101E800082927F907F9279947E9C7998799A7E90C5
:101E90007A907A920E01BC91BC939295B49D9299DE
:101EA000929BB4919A919A931200340E3E6E32C076
:101EB0003FF0000E436E000E426E000E4A6E000EA2
:101EC000496E3F0E2E6E33C02FF03E0E306EDCECAE
:101ED0000EF032504224D96EDA6ADF6A12000BBE6D
:101EE00074EF0FF076EF0FF07CEF0FF00AC00AF0FE
:101EF0000BC00BF088EF0FF00AC00CF00BC00DF018
:101F00000C1E0D1E0C4A0D2A0CC00AF00DC00BF061
:101F1000120094EF0FF0010E056E0750D96EDA6AC9
:101F2000DF50A0EC0FF0072A0750D96EDA6ADF50B5
:101F3000D8A49DEF0FF09FEF0FF08BEF0FF0120082
:101F4000066E05B002D07B9C01D07B8C06380F0B4F
:101F500018EC0EF0A00E00D0E82EFDD7065018ECBD
:101F60000EF0A00E00D0E82EFDD71200868E0E01D6
:101F7000D251F80B0309D26FD351F80B0509D36F77
:101F8000D083D089D183D18105EC10F00E01D08FA0
:101F9000120008500A02F3CF0CF0F4CF0DF00850F5
:101FA0000B02F3500D2609500A02F3500D260CC007
:101FB00008F00DC009F01200D6501F0B4009D66E74
:101FC000D688D650F00B0809D66ED5880B0ED46E85
:101FD000DB0ED36ED58E120081860E0192870F0123
:101FE0005899FC0E5817030E5F6F60946088608EDE
:101FF00012000E0135A1FFEF0FF001EF10F003EF1B
:1020000010F07C8E35915B921100F30E0E01C61715
:10201000C691C751E00B1B09C76FC68F1200D35082
:10202000D4CF06F0076A06C004F007C005F012001E
:102030000E01298B2B8121811F9BF28AF28EF28C5B
:1020400012007B841A0EE82EFED700D07B9412007B
:0E205000E807030006001E0010000C0012003E
:020000040030CA
:02000000AAFF55
:020004009FFF5C
:00000001FF
