:040000002EEF00F0EF
:060008004C828EEF0CF0AB
:100018004C80D8CF02F0E8CF03F0E0CF04F00E0117
:1000280033AB19EF00F01BEF00F026EF00F00B0EDA
:10003800D46EDB0ED36E010E4924496E000E4A20A1
:100048004A6E339B04C0E0FF03C0E8FF02C0D8FF3C
:080058004C9010007DEF0DF04B
:100E000000253033642025303264202530336400DF
:090E100025642E25303264000037
:100E1A002550D96EDA6ADFCFF6FF0E0EF76E000E96
:100E2A00F86E0800F550250AD8A41EEF07F020EF47
:100E3A0007F0BCEF07F02550D96EDA6ADF2A000EF8
:100E4A000001616F000E606F60C04BF062696369F8
:100E5A00000E2D6E57EF07F04B822550D96EDA6AD5
:100E6A00DF2A57EF07F0010E2D6E57EF07F02550D6
:100E7A00D96EDA6ADFCFF6FF0E0EF76E000EF86E45
:100E8A000800F550276E286A2850000AD8B450EF97
:100E9A0007F038EF07F02750300AD8B431EF07F0DF
:100EAA0038EF07F02D50D8B45DEF07F05FEF07F089
:100EBA003CEF07F025C00BF026C00CF0B1EC0AF0AD
:100ECA000BC060F00CC061F0000161BF71EF07F068
:100EDA006FEF07F076EF07F04B80606D611FD8B0B7
:100EEA00612B2550D96EDA6ADF502E6E2EC0F6FFBE
:100EFA000E0EF76E000EF86E0800F550640AD8B4AC
:100F0A0089EF07F08BEF07F09BEF07F02EC0F6FF93
:100F1A000E0EF76E000EF86E0800F550690AD8A496
:100F2A0099EF07F09BEF07F0B6EF07F02650D96E5E
:100F3A00DA6A020EDF26DF5CD96EDA6ADECF29F0C2
:100F4A00DECF2AF02550D96EDA6A2E28DF6E24C049
:100F5A0019F029C01AF02AC01BF0D0EC07F0CFEF25
:100F6A0007F02550D96EDA6ADF2ACFEF07F025504D
:100F7A00D96EDA6ADFCFF6FF0E0EF76E000EF86E44
:100F8A000800F550056E066A24C007F008EC0BF05D
:100F9A00B6EF07F01200010E1E6E1BBED7EF07F068
:100FAA00DAEF07F0010EDBEF07F0000E216E60C0EA
:100FBA001FF061C020F02150D8B4E6EF07F0E8EF47
:100FCA0007F0FFEF07F01F06D8A020062150D8A48B
:100FDA00F1EF07F0F3EF07F0F9EF07F0000E1D6EDF
:100FEA002B0E1C6EFDEF07F0000E1D6E2D0E1C6EF3
:100FFA001CC021F0000E236E1F0E226E000E00018F
:10100A00836F35EF08F02206D8A023062250640F1A
:10101A00D96EDA6A1AC005F01BC006F0000E086E17
:10102A000A0E076E59EC0AF005C00BF006C00CF068
:10103A0000EC0DF00B50300FDF6E000E1E6E1F0617
:10104A00D8A020061AC005F01BC006F0000E086ED4
:10105A000A0E076EF7EC09F005C01AF006C01BF07D
:10106A0023BE40EF08F0235008E12204D8A040EF45
:10107A0008F042EF08F067EF08F01A501B10D8A4E6
:10108A0049EF08F04BEF08F008EF08F01E50D8A41B
:10109A0051EF08F053EF08F008EF08F020BE5EEFBA
:1010AA0008F0205008E11F04D8A05EEF08F060EFB6
:1010BA0008F067EF08F04BB265EF08F067EF08F049
:1010CA0008EF08F02150D8B46DEF08F06FEF08F080
:1010DA0078EF08F02206D8A023062250640FD96EB2
:1010EA00DA6A21C0DFFF19C012F02250640F136EB2
:1010FA001FC014F020C015F05DEC0BF0120012ECCA
:10110A0009F047EC0DF08BEC0DF06DEC0DF0ACEC4A
:10111A000CF0ABEC0DF0000E0001956F000E946F11
:10112A00809688967C9E849E180E49184A10D8A4E8
:10113A00A1EF08F0A3EF08F0AEEF08F0000E4A6E38
:10114A00000E496E010E00019425946F000E952140
:10115A00956F49044A10D8A4B5EF08F0B7EF08F024
:10116A00B8EF08F07C9E050E49184A10D8A4C0EFC3
:10117A0008F0C2EF08F0C3EF08F07C8EA2EC0DF085
:10118A0005C092F006C093F092C005F093C006F035
:10119A0093EC09F0000E066E010E31EC0DF02A0EEA
:1011AA00486E8E0EE82EFED7482EFCD7010EC9ECEB
:1011BA000CF08E0E336E0B0E346EA2EC0BF012C0D6
:1011CA0035F013C036F0E6EC0CF08E0E086E1AEC11
:1011DA000DF0020EC9EC0CF0840E336E010E346E63
:1011EA0092C035F093C036F049C037F04AC038F0A3
:1011FA0094C039F095C03AF0E6EC0CF0840E086E13
:10120A001AEC0DF0D00E486ECA0EE82EFED7482E04
:10121A00FCD799EF08F02EEF00F0839C8394829616
:10122A008294859685927B9C7B947A967A947D9615
:10123A007D920D0E096E2D0E086ED80EE82EFED781
:10124A00082EFCD7092EFAD7030E1BEC0CF0680EF9
:10125A00086EE40EE82EFED7082EFCD700D0030E47
:10126A001BEC0CF0050E086E260EE82EFED7082E93
:10127A00FCD700D0030E1BEC0CF0050E086E260EF0
:10128A00E82EFED7082EFCD700D0020E1BEC0CF07D
:10129A00050E086E260EE82EFED7082EFCD700D0C3
:1012AA00000E066E2C0E31EC0DF0E40E00D000D0CC
:1012BA00E82EFCD700D000D0000E066E080E31ECE6
:1012CA000DF0E40E00D000D0E82EFCD700D000D0FC
:1012DA00000E066E010E31EC0DF0680E086EE40E7B
:1012EA00E82EFED7082EFCD700D0000E066E060E9A
:1012FA0031EC0DF0E40E00D000D0E82EFCD700D07F
:10130A0000D0000E066E0C0E31EC0DF0E40E00D08B
:10131A0000D0E82EFCD700D000D0120005A098EF2C
:10132A0009F09AEF09F09DEF09F07F809EEF09F02E
:10133A007F9005A2A3EF09F0A5EF09F0A8EF09F045
:10134A007F82A9EF09F07F9205A4AEEF09F0B0EF12
:10135A0009F0B3EF09F07984B4EF09F0799405A69E
:10136A00B9EF09F0BBEF09F0BEEF09F07E8CBFEFD1
:10137A0009F07E9C05A8C4EF09F0C6EF09F0C9EF91
:10138A0009F07988CAEF09F0799805AACFEF09F030
:10139A00D1EF09F0D4EF09F0798AD5EF09F0799AFB
:1013AA0005ACDAEF09F0DCEF09F0DFEF09F07E8037
:1013BA00E0EF09F07E9005AEE5EF09F0E7EF09F0FE
:1013CA00EAEF09F07A80EBEF09F07A9006A0F0EFE5
:1013DA0009F0F2EF09F0F5EF09F07A82F6EF09F079
:1013EA007A921200000E0A6E08BE00EF0AF0FEEFB3
:1013FA0009F006EF0AF0076C081ED8B0082A010E99
:10140A000A6E06BE0DEF0AF00BEF0AF013EF0AF0B0
:10141A00056C061ED8B0062A010E0A1A000E0C6EBA
:10142A00000E0B6E07500810D8B41EEF0AF020EF1A
:10143A000AF048EF0AF0010E096E28EF0AF0D89078
:10144A0007360836092A08AE2DEF0AF02FEF0AF000
:10145A0024EF0AF0D8900B360C360750055C08507A
:10146A000658D8A03BEF0AF03DEF0AF042EF0AF027
:10147A000750055E0850065A0B80D890083207328A
:10148A00092E2FEF0AF00A50D8B44EEF0AF050EFA7
:10149A000AF054EF0AF00B6C0C1ED8B00C2A0BC0E1
:1014AA0005F00CC006F01200000E0A6E06BE62EFCE
:1014BA000AF060EF0AF068EF0AF0056C061ED8B071
:1014CA00062A010E0A6E08BE6FEF0AF06DEF0AF0E7
:1014DA0073EF0AF0076C081ED8B0082A07500810E4
:1014EA00D8B47AEF0AF07CEF0AF0A0EF0AF0010E06
:1014FA00096E84EF0AF0D89007360836092A08AE32
:10150A0089EF0AF08BEF0AF080EF0AF00750055CCA
:10151A0008500658D8A094EF0AF096EF0AF09AEF0E
:10152A000AF00750055E0850065AD890083207326A
:10153A00092E8BEF0AF00A50D8B4A6EF0AF0A8EFEA
:10154A000AF0ACEF0AF0056C061ED8B0062A05C0F0
:10155A0005F006C006F01200000E0F6E000E0E6EA9
:10156A000B50D96EDA6ADFCFF6FF0E0EF76E000E59
:10157A00F86E0800F5502A0AD8A4C6EF0AF0C8EF98
:10158A000AF0EEEF0AF00B50D96EDA6ADF2A0C5035
:10159A00D96EDA6A020EDF26DF5CD96EDA6ADECF2E
:1015AA000EF0DECF0FF003EF0BF00EC005F00FC008
:1015BA0006F0000E086E0A0E076E5AEC0DF00D507A
:1015CA0005240E6E000E06200F6E0B50D96EDA6AD5
:1015DA00DF2A0B50D96EDA6ADFCFF6FF0E0EF76EEE
:1015EA00000EF86E0800F550D00F0D6E090E0D644E
:1015FA0001EF0BF003EF0BF0DAEF0AF00EC00BF07D
:10160A000FC00CF012000750D8B40EEF0BF010EF19
:10161A000BF018EF0BF00750D8A416EF0BF018EFE9
:10162A000BF01DEF0BF00550BBEC0DF05CEF0BF06F
:10163A000750D96EDA6A0A0ED926DE50DE10D8B4FF
:10164A0029EF0BF02BEF0BF044EF0BF00750D96E9C
:10165A00DA6A0A0ED9260750E16EE26A030EE1261B
:10166A00DE50E65CE650800A0C6EDE50800A0C58AA
:10167A00D8B042EF0BF044EF0BF05CEF0BF00750E1
:10168A00D96EDA6A030ED926DF50086E0750D96E72
:10169A00DA6ADF500824D96EDA6A05C0DFFF07501C
:1016AA00D96EDA6A030ED926DE2A000EDD2212006E
:1016BA004BA062EF0BF064EF0BF06AEF0BF013C074
:1016CA000DF012C00EF070EC0CF015BE71EF0BF0BD
:1016DA006FEF0BF075EF0BF0000E156E000E146E27
:1016EA00000E186E000E176E85EF0BF0000E066ED8
:1016FA00200E056E12C007F008EC0BF0174A182AE4
:10170A001450175C1850800A166E1550800A165825
:10171A00D8A092EF0BF094EF0BF07BEF0BF04BB0ED
:10172A0099EF0BF09BEF0BF0A1EF0BF013C00DF04C
:10173A0012C00EF070EC0CF01200608060B0A8EFDE
:10174A000BF0AAEF0BF0A3EF0BF064CF14F0156ABD
:10175A001450FF08146E1550D8A0E82A0008156E18
:10176A00E30E1424056EFF0E1520066E000E086E99
:10177A0007685AEC0DF005C00BF006C00CF0000E1D
:10178A000E6E720E0D6EE1EC0BF00BC014F00CC075
:10179A0015F01404020E1558D8A0D6EF0BF0D8EFA6
:1017AA000BF0DCEF0BF0000E156E000E146E14C079
:1017BA0012F015C013F01200000E116E000E106E1A
:1017CA000D500E10D8B4ECEF0BF0EEEF0BF016EF55
:1017DA000CF0010E0F6EF6EF0BF0D8900D360E36A8
:1017EA000F2A0EAEFBEF0BF0FDEF0BF0F2EF0BF052
:1017FA00D890103611360D500B5C0E500C58D8A0EC
:10180A0009EF0CF00BEF0CF010EF0CF00D500B5E23
:10181A000E500C5A1080D8900E320D320F2EFDEF5A
:10182A000BF010C00BF011C00CF01200056E05A0F1
:10183A0021EF0CF023EF0CF026EF0CF07A8627EF5D
:10184A000CF07A9605A22CEF0CF02EEF0CF031EF8B
:10185A000CF07A8432EF0CF07A9405A437EF0CF08E
:10186A0039EF0CF03CEF0CF07D863DEF0CF07D96E5
:10187A0005A642EF0CF044EF0CF047EF0CF07D8226
:10188A0048EF0CF07D92B4EC0DF0A00E00D0E82EDB
:10189A00FDD7120030C032F05BEF0CF02FC024F0FD
:1018AA00320E256E31C026F00DEC07F032C0F6FF7D
:1018BA000E0EF76E000EF86E0800F5500009D8A457
:1018CA0069EF0CF06BEF0CF053EF0CF0000E306E7A
:1018DA00000E2F6E1200000E116E000E106E7FEFBA
:1018EA000CF00FC005F0066A0EC007F008EC0BF00A
:1018FA00104A112A0D501024D96EDA6ADF500F6E81
:10190A000F50D8A48BEF0CF08DEF0CF076EF0CF0A3
:10191A0012000E0135A194EF0CF096EF0CF0AAEF2D
:10192A000CF080A69BEF0CF09FEF0CF0016A012AE5
:10193A00A0EF0CF0016A01460146014680500118E9
:10194A00F70B0118806E0E0135914C9211008790A9
:10195A0087928194869C8198819A869082908292BD
:10196A007F907F9279947E9C7998799A7E907A90EA
:10197A007A920E01BC91BC939295B49D9299929BD6
:10198A00B4919A919A931200086E0804D8A4D0EFE1
:10199A000CF0D2EF0CF0D7EF0CF0000E066E800EB2
:1019AA0031EC0DF0020E0818D8A4DEEF0CF0E0EFCF
:1019BA000CF0E5EF0CF0000E066EC00E31EC0DF0E7
:1019CA001200350E3B6E33C03CF0000E406E000E26
:1019DA003F6E000E476E000E466E3C0E2F6E34C0F0
:1019EA0030F03B0E316E4FEC0CF033503F24D96E81
:1019FA00DA6ADF6A12000CBE05EF0DF007EF0DF090
:101A0A000DEF0DF00BC00BF00CC00CF019EF0DF040
:101A1A000BC00DF00CC00EF00D1E0E1E0D4A0E2A44
:101A2A000DC00BF00EC00CF0120025EF0DF0010EE8
:101A3A00066E0850D96EDA6ADF5031EC0DF0082ACA
:101A4A000850D96EDA6ADF50D8A42EEF0DF030EFC5
:101A5A000DF01CEF0DF01200076E06B002D07B9C51
:101A6A0001D07B8C07380F0B1BEC0CF0A00E00D0BA
:101A7A00E82EFDD707501BEC0CF0A00E00D0E82E84
:101A8A00FDD71200868E0E01D251F80B0309D26FD0
:101A9A00D351F80B0509D36FD083D089D183D18173
:101AAA0098EC0DF00E01D08F120005500702F3CF0B
:101ABA0009F0F4CF0AF005500802F3500A2606503E
:101ACA000702F3500A2609C005F00AC006F0120000
:101ADA00D6501F0B4009D66ED688D650F00B08098F
:101AEA00D66ED5880B0ED46EDB0ED36ED58E120051
:101AFA0000EE60F0240EEE6AE806FDE14B6A4A6ADF
:101B0A00496A4C904C92000184EF08F081860E01DC
:101B1A0092870F015899FC0E5817030E5F6F609455
:101B2A006088608E1200F30E0E01C617C691C75167
:101B3A00E00B1B09C76FC68F1200D350D4CF07F032
:101B4A00086A07C005F008C006F012000E01298BCA
:101B5A002B8121811F9BF28AF28EF28C12007B84E8
:0E1B6A001A0EE82EFED700D07B941200120057
:020000040030CA
:02000000AAFF55
:020004009FFF5C
:00000001FF
